:0300000002020FEA
:03000B0002064F9B
:030033000201586F
:03004300020100B7
:10010000020652000206D3000206D300020699003E
:100110000206BD000206D3000206D3000206D30089
:100120000206D3000206D3000206D3000206D30063
:100130000206D3000206D3000206D3000206D30053
:100140000206D3000206D3000206D3000206D30043
:100150000206D3000206D30053D8EF32907FC8E0E6
:1001600020E15C200B5990784F747DF0A374C0F0AF
:10017000907FC9E0F8907854F0907851B41F0A74D9
:100180000FF0A37496F002019674D5254EF9741001
:10019000354FF0A3E9F0907855F0E8B41F22D2076C
:1001A000754E00754F007550007551007552007501
:1001B0005300907855E030E7F9907FC9F0809D2298
:1001C000F9E54E29F54EF8E54F3400F54FB4070A2E
:1001D000E8B40006754E00754F00E92552F9F55256
:1001E00074003553F553C92440C93400F87400C372
:1001F0009974079850BCD20B7954E72401F709E7AA
:100200003400F709E73400F709E73400F780A375F5
:10021000815F1209411202ABE41209A34005D20C1E
:1002200012090E12033030060312035D300405007C
:100230000000C20430080512082A80EA315C300749
:100240000D1208C6907FC9F0300703120705E55B61
:1002500054046558604E6558F558E55A703BD559B9
:1002600043755910200C0BE41209A34037D20C023D
:1002700002A4E533120993600612099F0202A4C288
:100280000C900F0A7400F0A3F0900F2074FFF0A3FD
:10029000F0A3F01203300202A4D55A087400120B26
:1002A0005312099F00000000004126C206C204C28A
:1002B00005C200C201755A00755800755910C20C6C
:1002C00074FF907FABF0907FA9F0907FAAF075400B
:1002D0005575415375424275435375570075540027
:1002E000755500755600C20BC207C208D2E843D844
:1002F00020538EF85391EF907F92E054FDF0907F61
:10030000AFE04411F0907FAEE04409F0907FDE74DE
:1003100005F0907FDF7405F0907FDD7409F0D2AFB7
:10032000907FD6E04402F0758901758810D2A92229
:10033000907FD6E04408F0F0E04402F07FDC7E03DA
:10034000120637907FD6E054F7F07E037FFF7801E6
:1003500012061E200606DFF6DEF480D422907FE926
:10036000E0700B907FE8E024DF70000203A81470B7
:100370000302041424FE700302046F24FB700302C2
:1003800004E11470030204F214700302050E1470E9
:100390000302051D240570030205AA907FE8E030E2
:1003A000E6030205320205EE907FE8E0247F602339
:1003B0001460302402705AA205E43325E0FFA20045
:1003C000E4334F907F00F0E4A3F0907FB57402F027
:1003D0000205F5E4907F00F0A3F0907FB57402F081
:1003E0000205F5907FECE0F45480C4FFE054072050
:1003F0000102701D2F25E024B4F58275837FE0543F
:10040000FE907F00F0E4A3F0907FB57402F0020547
:10041000F50205EE907FE8E024FE600724026040CC
:100420000205EE907FEAE07043907FECE0F45480A8
:10043000C4FFE0540720010270322F25E024B4F5F8
:100440008275837FE4F0907FECE0548013131354A3
:100450001FFFE054072F907FD7F0D2E5F00205F59B
:10046000907FEAE0B40105C2050205F50205EE90B1
:100470007FE824FE6007240260580205F5907FEAB9
:10048000E0705B907FECE0F45480C4FFE054072000
:10049000010270D82F25E024B4F58275837F7401A2
:1004A000F0C083C082907FECE05480131313541F7C
:1004B000FFE054072F907FD7F0D2E5F0D082D083B1
:1004C000EF20E407A37401F00205F5E0D2E1F002A9
:1004D00005F5907FEAE0B40105D2050205F50205B5
:1004E000EE907F00E4A20133F0907FB57401F0023A
:1004F00005F5907FEAE0600BB40110D2011205FF10
:100500000205F5C2011205FF0205F50205EE907F16
:1005100000E530F0907FB57401F00205F52001038D
:1005200002052F907FEAE0F5301205FF0205F50283
:1005300005EE907FE9E0B410257400300C0F907F39
:10054000ECE0F9C3E5339974004002E534907F0094
:10055000F0A3E533F0907FB57402F00205F5B41115
:1005600046907FECE0B53332E55A7012E53312095C
:100570009360277403120B53755A04120B66120B07
:1005800083E4907C407D40C0E0120C5FEFF0A3EE6E
:10059000F0A3D0E004DDF0120B8A907FD4747CF0DD
:1005A000A37440F00205F50205F5907FEBE024FE10
:1005B000601414601E24027035907FD4740FF0A371
:1005C0007400F00205F5907FD4740FF0A37412F05C
:1005D0000205F5907FEAE023F9900F3293C9049366
:1005E000C9907FD4F0A3E9F00205F50205F5907FEC
:1005F000B4E04401F0907FB4E04402F0C2062290DF
:100600007FD7E47F08F0D2E5F0C2E505E0DFF67FB2
:10061000087410F0D2E5F0C2E505E0DFF622C082F2
:10062000C083C0E090FB4BA3E582458370F9D8F40A
:10063000D0E0D083D082228E318F32E5321532AEB7
:1006400031700215314E60067801D11E80ED220511
:100650005B32C0E0C083C082C085C084C086C0D089
:1006600074EF5291907FAB7401F0907FE8E0B42179
:1006700017A3E0B4FF121206D412093B75815F5133
:10068000CEB1F51206984126D206D0D0D086D084BD
:10069000D085D082D083D0E032C0E0C083C0825306
:1006A00091EF907FAB7408F0907FD6E04480F0D259
:1006B000040000000000D082D083D0E032C0E0C04F
:1006C00083C0825391EF907FAB7410F0D082D083BF
:1006D000D0E03232300C2DE55A60297407120A87B7
:1006E00024B06020740E790C120A8ED11E740E791B
:1006F00008120A8E780079007407120A8730E7041E
:10070000D9F6D8F422754D00300C0BE55A702BE564
:1007100033120993700574010207E27403120B533C
:10072000120B66315C740679A0120A8E740179008E
:10073000120A8E740E7908120A8E755A041209383C
:10074000315C7407120A87548870F5740479FF12BB
:100750000A8E740579FF120A8E740779A0120A8E28
:10076000315C7407120A87540860F5315C74071213
:100770000A87548070F57E067F00900FA5E0B412C2
:1007800003000000120B26315C120B4160F9740764
:10079000120A877402120A875403700A12084B3136
:1007A0005C120DA780E114700574020207E2147058
:1007B0002530091A7404120A87FC7405120A87FD91
:1007C0007F00120AADDCF980BE74020207E2120853
:1007D0004B120D0180B17407120A875401600300A7
:1007E0000000F54C300A19200903120885E54D6018
:1007F00031907FB923F0907FB8E020E1F902082220
:1008000020091FAD48AC4912015CA952A85375528A
:1008100000755300C20BEDC399FDEC98FC40034DED
:1008200070E5D208C20712082A22907FB8E054036C
:100830007018C208907E0079407F0DE7F009A3DFB1
:10084000FA907FB9740DF012093B227404120A87E2
:10085000FC7405120A87FDD20975F0007948E7C3D8
:100860009C42F0F709E79D42F0F709E7940042F057
:10087000F709E7940042F0F7E5F06002C209EDC322
:1008800013CC13FD227948E754C0094709470947AB
:10089000601F7C007D20120D017948E7C39440F76A
:1008A00009E79400F709E79400F709E79400F78057
:1008B000D4E548543F600E7C00C313FD740034003F
:1008C000F548120D0122907FE3740FF0A37496F0A7
:1008D000A3E0B45528E0B45324E0B44220E0B4438C
:1008E0001C79447F04E0F709DFFB7F04D209E0F7BD
:1008F0006002C20909DFF7E0A2E7920A22C207906C
:100900007FB8E04401F0907FC8E04401F022E53375
:100910001209936022120B837437900F867D04C0F6
:10092000E0120C5FEFF0A3A3EEF0A3A3D0E004DD90
:10093000EE120B8A12099F22D28522C28522B2852D
:100940002290784A7480F0907827743FF09078264F
:10095000743FF0907849E0D2E0F0907F947400F01A
:1009600075B3FF75B4F075B22012093B2275B4401F
:10097000907826743FF09078277400F090784A744D
:100980008AF02290784A7480F0907827743FF0754E
:10099000B4F022F5331209C174004002740122122E
:1009A0000A1422F533120A141209C150080533E55E
:1009B0003370F5D322120AA5F53412099FE533C32B
:1009C00022E533F4F59075A0F0120A0FF4F59012B9
:1009D0000A0FB2A7120A0FB2A7120A0FB2A7120A81
:1009E0000FC2A5E533540765A054077020D2A5E5D2
:1009F00033F4540765A054077013D2A7C0017910CF
:100A00007404120A9DD001C3E533020A0ED322C03A
:100A100001D00122C2A7120A0F75A00022C2A4F5BC
:100A200090120A0FB2A522C2A4F590B2A622D2A4B7
:100A300075B300B2A6120A0FE590C2A475B3FF22E7
:100A4000D2A40586E583907FE3F0E582A3F0A37549
:100A5000B300B2A61F120A0FE590F0B2A6DFF6129D
:100A60000A0FE590F0C2A475B3FF058622C2A40563
:100A700086E583907FE3F0E582A3F0A3E0F59000A4
:100A8000B2A6DFF80586224440120A1D80A0444029
:100A9000120A1DE980914400120A1D80914400123F
:100AA0000A1DE98082740B120A96543F2279507411
:100AB00004120A9DEF4440120A1D120A2ECF444030
:100AC000120A1D120A2EFE79107404120A9D227950
:100AD000507404120A9DEF4440120A1DED120A27B9
:100AE000EF4440120A1DEE120A2779107404120A0C
:100AF0009D22EE23FEE534B405127438120A1DEE71
:100B0000120A277400120A2774104FFF79507404D8
:100B1000120A9DEF4440120A1DEEFF120A4079109E
:100B20007404120A9D2279507404120A9DEF444005
:100B3000120A1DEE23FF120A6D79107404120A9D29
:100B400022740B120A965480227405120A9654C01D
:100B500023232254030303F97405120A96543F49D0
:100B6000F97405020A9D7405120A964408F9740581
:100B7000020A9D7406020A96C0E0F97406120A9DE4
:100B8000D0E022120B73440880EE120B7354F780EE
:100B9000E7120B73440480E0120B7354FB80D912EC
:100BA0000B91120BCE60FB80EFC0E0C0F0540160EF
:100BB000027402F5F0120B7354FC45F0120B7844EA
:100BC00001120B7854FE120B78D0F0D0E0227400A2
:100BD000120A9654806002740122120B9174011261
:100BE0000BA914120BA9120BA904120BA9120BA921
:100BF000120BA9120BA9120BA9120BA9120B982206
:100C0000120B917401120BA914120BA9120BA91249
:100C10000BA9120BA9120BA9120BA9120BA9120BEB
:100C2000A9120B9822C0E0120B917401120BA97447
:100C300000120BA97401120BA9D0E02323237B0619
:100C4000120BA923DBFAEE7B0823120BA9DBFAEFC8
:100C50007B0823120BA9DBFA120B98120B9F22C000
:100C6000E0120B917401120BA9120BA914120BA91B
:100C7000D0E02323237B06120BA923DBFA7B08C0D9
:100C8000E07400120BA9120BCE13D0E033DBF0FEA0
:100C90007B08C0E07400120BA9120BCE13D0E03316
:100CA000DBF0FF120B9822120B917401120BA914A6
:100CB000120BA9120BA904120BA914120BA9120BE7
:100CC000A9120BA9120BA9120BA9120B98120B9FB8
:100CD000120B917401120BA914120BA9120BA91279
:100CE0000BA904120BA9120BA9120BA9120BA91222
:100CF0000BA97B1014120BA9DBFB120B98120B9F94
:100D000022E534B405137438120A1DEDC333FEEC2A
:100D100033CE120A27EE120A2779507404120A9D64
:100D20007440A934B905024410120A1DD2A475B347
:100D300000907FE3747EF0ED4C605F907FE4740080
:100D4000254D254DF07420C3954DF9EDC399FDEC6B
:100D50009400FCE95006E92D7C007D00FF254DF54F
:100D60004DC0E0B2A6907FB8E020E1FC907FE5DFC7
:100D700002800FE590B2A6F000E590B2A6F0000068
:100D8000DFF1E590B2A6F000E590F0D0E0B420A746
:100D9000907FB923F0754D00809DC2A475B3FF7993
:100DA000107404120A9D22EDC333FDEC33FC79501C
:100DB0007404120A9D7440120A1D12015CED4C70FD
:100DC0000879107404120A9D22907FE474D525508E
:100DD000F0907FE374103551F012015CA853A952D2
:100DE000E84960F5E9C39DE89C4004EDF9ECF8E9B9
:100DF0002550FBE83551FA7400C39BFF74079AFE37
:100E000040064F7013020E14EB2FFBEA3EFAE92F57
:100E1000F9E83EF87A007B008B508A51C3E552997D
:100E2000F552E55398F553907FE5E8C313FAE913BB
:100E3000FBEAC313FAEB13FB500AE0F590B2A6E00D
:100E4000F590B2A6EAC313FAEB13FB5014E0F59049
:100E5000B2A6E0F590B2A6E0F590B2A6E0F590B2A9
:100E6000A6EAC313FAEB13FB5028E0F590B2A6E014
:100E7000F590B2A6E0F590B2A6E0F590B2A6E0F546
:100E800090B2A6E0F590B2A6E0F590B2A6E0F5909B
:100E9000B2A6EB6052E0F590B2A6E0F590B2A6E003
:100EA000F590B2A6E0F590B2A6E0F590B2A6E0F516
:100EB00090B2A6E0F590B2A6E0F590B2A6E0F5906B
:100EC000B2A6E0F590B2A6E0F590B2A6E0F590B239
:100ED000A6E0F590B2A6E0F590B2A6E0F590B2A635
:100EE000E0F590B2A6DBAEEDC399FDEC98FC300BBB
:100EF0000CE9C39440E50094004002C20B020DBA15
:100F00001201100100000040C90AFF10060301028F
:100F10000301090220000101004000090400000251
:100F20000802500007058202400000070502024047
:100F300000000F3A0F3E0F5E0F84040309042003E4
:100F40004D006900630072006F00200053006F00C5
:100F50006C007500740069006F006E00730026035A
:100F60004200410043004B005000410043004B0051
:100F70002000550053004200200043006100620041
:100F80006C0065001203300030003000300030008B
:060F9000300030003000CB
:00000001FF
