:0300000002020FEA
:03000B0002064F9B
:030033000201586F
:03004300020100B7
:10010000020652000206D3000206D300020699003E
:100110000206BD000206D3000206D3000206D30089
:100120000206D3000206D3000206D3000206D30063
:100130000206D3000206D3000206D3000206D30053
:100140000206D3000206D3000206D3000206D30043
:100150000206D3000206D30053D8EF32907FC8E0E6
:1001600020E15C200B5990784F747DF0A374C0F0AF
:10017000907FC9E0F8907854F0907851B41F0A74D9
:100180000FF0A3746CF002019674AB254EF9741055
:10019000354FF0A3E9F0907855F0E8B41F22D2076C
:1001A000754E00754F007550007551007552007501
:1001B0005300907855E030E7F9907FC9F0809D2298
:1001C000F9E54E29F54EF8E54F3400F54FB4070A2E
:1001D000E8B40006754E00754F00E92552F9F55256
:1001E00074003553F553C92440C93400F87400C372
:1001F0009974079850BCD20B7954E72401F709E7AA
:100200003400F709E73400F709E73400F780A375F5
:10021000815F1209411202ABE41209A34005D20C1E
:1002200012090E12033030060312035D300405007C
:100230000000C20430080512082A80EA315C300749
:100240000D1208C6907FC9F0300703120705E55B61
:1002500054046558604E6558F558E55A703BD559B9
:1002600043755910200C0BE41209A34037D20C023D
:1002700002A4E533120993600612099F0202A4C288
:100280000C900EE07400F0A3F0900EF674FFF0A353
:10029000F0A3F01203300202A4D55A087400120B26
:1002A0004512099F00000000004126C206C204C298
:1002B00005C200C201755A00755800755910C20C6C
:1002C00074FF907FABF0907FA9F0907FAAF075400B
:1002D0005575415375424275435375570075540027
:1002E000755500755600C20BC207C208D2E843D844
:1002F00020538EF85391EF907F92E054FDF0907F61
:10030000AFE04411F0907FAEE04409F0907FDE74DE
:1003100005F0907FDF7405F0907FDD7409F0D2AFB7
:10032000907FD6E04402F0758901758810D2A92229
:10033000907FD6E04408F0F0E04402F07FDC7E03DA
:10034000120637907FD6E054F7F07E037FFF7801E6
:1003500012061E200606DFF6DEF480D422907FE926
:10036000E0700B907FE8E024DF70000203A81470B7
:100370000302041424FE700302046F24FB700302C2
:1003800004E11470030204F214700302050E1470E9
:100390000302051D240570030205AA907FE8E030E2
:1003A000E6030205320205EE907FE8E0247F602339
:1003B0001460302402705AA205E43325E0FFA20045
:1003C000E4334F907F00F0E4A3F0907FB57402F027
:1003D0000205F5E4907F00F0A3F0907FB57402F081
:1003E0000205F5907FECE0F45480C4FFE054072050
:1003F0000102701D2F25E024B4F58275837FE0543F
:10040000FE907F00F0E4A3F0907FB57402F0020547
:10041000F50205EE907FE8E024FE600724026040CC
:100420000205EE907FEAE07043907FECE0F45480A8
:10043000C4FFE0540720010270322F25E024B4F5F8
:100440008275837FE4F0907FECE0548013131354A3
:100450001FFFE054072F907FD7F0D2E5F00205F59B
:10046000907FEAE0B40105C2050205F50205EE90B1
:100470007FE824FE6007240260580205F5907FEAB9
:10048000E0705B907FECE0F45480C4FFE054072000
:10049000010270D82F25E024B4F58275837F7401A2
:1004A000F0C083C082907FECE05480131313541F7C
:1004B000FFE054072F907FD7F0D2E5F0D082D083B1
:1004C000EF20E407A37401F00205F5E0D2E1F002A9
:1004D00005F5907FEAE0B40105D2050205F50205B5
:1004E000EE907F00E4A20133F0907FB57401F0023A
:1004F00005F5907FEAE0600BB40110D2011205FF10
:100500000205F5C2011205FF0205F50205EE907F16
:1005100000E530F0907FB57401F00205F52001038D
:1005200002052F907FEAE0F5301205FF0205F50283
:1005300005EE907FE9E0B410257400300C0F907F39
:10054000ECE0F9C3E5339974004002E534907F0094
:10055000F0A3E533F0907FB57402F00205F5B41115
:1005600046907FECE0B53332E55A7012E53312095C
:100570009360277403120B45755A04120B4F120B2C
:1005800060E4907C407D40C0E0120C36EFF0A3EEBA
:10059000F0A3D0E004DDF0120B64907FD4747CF003
:1005A000A37440F00205F50205F5907FEBE024FE10
:1005B000601414601E24027035907FD4740EF0A372
:1005C00074D6F00205F5907FD4740EF0A374E8F0B1
:1005D0000205F5907FEAE023F9900F0893C9049390
:1005E000C9907FD4F0A3E9F00205F50205F5907FEC
:1005F000B4E04401F0907FB4E04402F0C2062290DF
:100600007FD7E47F08F0D2E5F0C2E505E0DFF67FB2
:10061000087410F0D2E5F0C2E505E0DFF622C082F2
:10062000C083C0E090FB4BA3E582458370F9D8F40A
:10063000D0E0D083D082228E318F32E5321532AEB7
:1006400031700215314E60067801D11E80ED220511
:100650005B32C0E0C083C082C085C084C086C0D089
:1006600074EF5291907FAB7401F0907FE8E0B42179
:1006700017A3E0B4FF121206D412093B75815F5133
:10068000CEB1F51206984126D206D0D0D086D084BD
:10069000D085D082D083D0E032C0E0C083C0825306
:1006A00091EF907FAB7408F0907FD6E04480F0D259
:1006B000040000000000D082D083D0E032C0E0C04F
:1006C00083C0825391EF907FAB7410F0D082D083BF
:1006D000D0E03232300C2DE55A60297407120A7AC4
:1006E00024B06020740E790C120A81D11E740E7928
:1006F00008120A81780079007407120A7A30E70438
:10070000D9F6D8F422754D00300C0BE55A702BE564
:1007100033120993700574010207E27403120B454A
:10072000120B4F315C740679A0120A8174017900B2
:10073000120A81740E7908120A81755A0412093856
:10074000315C7407120A7A548870F5740479FF12C8
:100750000A81740579FF120A81740779A0120A814F
:10076000315C7407120A7A540860F5315C74071220
:100770000A7A548070F57E067F00900F7BE0B412F9
:1007800003000000120B00315C120B2B60F97407A0
:10079000120A7A7402120A7A5403700A12084B3150
:1007A0005C120D6F80E114700574020207E2147090
:1007B0002530091A7404120A7AFC7405120A7AFDAB
:1007C0007F00120A98DCF980BE74020207E2120868
:1007D0004B120CD880B17407120A7A5401600300DE
:1007E0000000F54C300A19200903120885E54D6018
:1007F00031907FB923F0907FB8E020E1F902082220
:1008000020091FAD48AC4912015CA952A85375528A
:1008100000755300C20BEDC399FDEC98FC40034DED
:1008200070E5D208C20712082A22907FB8E054036C
:100830007018C208907E0079407F0DE7F009A3DFB1
:10084000FA907FB9740DF012093B227404120A7AEF
:10085000FC7405120A7AFDD20975F0007948E7C3E5
:100860009C42F0F709E79D42F0F709E7940042F057
:10087000F709E7940042F0F7E5F06002C209EDC322
:1008800013CC13FD227948E754C0094709470947AB
:10089000601F7C007D20120CD87948E7C39440F794
:1008A00009E79400F709E79400F709E79400F78057
:1008B000D4E548543F600E7C00C313FD740034003F
:1008C000F548120CD822907FE3740FF0A3746CF0FB
:1008D000A3E0B45528E0B45324E0B44220E0B4438C
:1008E0001C79447F04E0F709DFFB7F04D209E0F7BD
:1008F0006002C20909DFF7E0A2E7920A22C207906C
:100900007FB8E04401F0907FC8E04401F022E53375
:100910001209936022120B607437900F5C7D04C043
:10092000E0120C36EFF0A3A3EEF0A3A3D0E004DDB9
:10093000EE120B6412099F22D28522C28522B28553
:100940002290784A7480F0907827743FF09078264F
:10095000743FF0907849E0D2E0F0907F947400F01A
:1009600075B3FF75B4F075B22012093B2275B4401F
:10097000907826743FF09078277400F090784A744D
:100980008AF02290784A7480F0907827743FF0754E
:10099000B4F022F5331209BE740040027401221231
:1009A0000A1922F5331209BE50080533E53370F5F4
:1009B000D322120B33F53412099FE533C32275A0FD
:1009C00000759062120A18759070120A18E533F5D6
:1009D00090120A18F4F590120A18D2A7120A1843B6
:1009E000A070120A18759003120A187470F5A012FC
:1009F0000A187450F5A0120A18E5A0540FB40B168B
:100A00007470F5A0120A18E5A0540FB4040874F02D
:100A1000F5A0C3020A17D3222275A00022F590B2D6
:100A2000A522F590B2A62275B300B2A6C2A4E590A5
:100A3000D2A475B3FF220586E583907FE3F0E582BB
:100A4000A3F0A375B300C2A4B2A61F120A18E590C2
:100A5000F0B2A6DFF6120A18E590F0D2A475B3FF43
:100A60000586220586E583907FE3F0E582A3F0A367
:100A7000E0F590B2A6DFF90586224440120A1D80F7
:100A8000A64460120A1DE980994400120A1D80974D
:100A90004420120A1DE9808A74E1120A1DEF4440C5
:100AA000120A1D120A27CF4440120A1D120A27FEFD
:100AB00074C1120A1D2274E1120A1DEF4460120A69
:100AC0001DED120A22EF4460120A1DEE120A227472
:100AD000C1120A1D227428120A1DEE23FE120A22D8
:100AE0007400120A227400120A2274E9120A1DEF1D
:100AF0004440120A1DEEFF120A3674C9120A1D2262
:100B00007428120A1DEE23FE120A227400120A2211
:100B10007400120A2274E9120A1DEF4460120A1DC1
:100B2000EEFF120A6374C9120A1D227400120A89A8
:100B30005401227401120A89543F227401120A8955
:100B400054C023232254030303F97401020A9022A0
:100B50007406020A89C0E0F97406120A90D0E022F5
:100B6000740880F1740080ED120B50440480E6128A
:100B70000B5054FB80DF120B68120BA560FB80EF5B
:100B8000C0E0C0F0540160027402F5F0120B505442
:100B9000FC45F0120B554401120B5554FE120B5537
:100BA000D0F0D0E0227400120A895440600274012F
:100BB00022120B687401120B8014120B80120B802E
:100BC00004120B80120B80120B80120B80120B8010
:100BD000120B80120B6F22120B687401120B80141F
:100BE000120B80120B80120B80120B80120B8012E2
:100BF0000B80120B80120B80120B6F22C0E0120BC5
:100C0000687401120B807400120B807401120B8047
:100C1000D0E02323237B06120B8023DBFAEE7B0834
:100C200023120B80DBFAEF7B0823120B80DBFA1216
:100C30000B6F120B7622C0E0120B687401120B804E
:100C4000120B8014120B80D0E02323237B06120B9F
:100C50008023DBFA7B08C0E07400120B80120BA526
:100C600013D0E033DBF0FE7B08C0E07400120B8091
:100C7000120BA513D0E033DBF0FF120B6F22120B27
:100C8000687401120B8014120B80120B8004120B7B
:100C90008014120B80120B80120B80120B80120B2F
:100CA00080120B6F120B76120B687401120B8014FA
:100CB000120B80120B80120B8004120B80120B801F
:100CC000120B80120B80120B807B1014120B80DB36
:100CD000FB120B6F120B76227428120A1DEDC33320
:100CE000FEEC33CE120A22EE120A227400120A22FD
:100CF00074E9120A1D7440120A1D75B300C2A49053
:100D00007FE3747EF0ED4C605B907FE47400254DD2
:100D1000254DF07420C3954DF9EDC399FDEC940079
:100D2000FCE95006E92D7C007D00FF254DF54DC006
:100D3000E0B2A6907FB8E020E1FC907FE5DF028082
:100D40000CE590B2A6F0E590B2A6F0DFF4E590B223
:100D5000A6F0E590F0D0E0B420AB907FB923F07519
:100D60004D0080A1D2A475B3FF74C9120A1D22746C
:100D700028120A1DEDC333FDEC33FCED120A22EC00
:100D8000120A227400120A2274E9120A1D746012F7
:100D90000A1D12015CED4C700674C9120A1D2290E6
:100DA0007FE474AB2550F0907FE374103551F0125E
:100DB000015CA853A952E84960F5E9C39DE89C404D
:100DC00004EDF9ECF8E92550FBE83551FA7400C35D
:100DD0009BFF74079AFE40064F7013020DEAEB2F3B
:100DE000FBEA3EFAE92FF9E83EF87A007B008B50E7
:100DF0008A51C3E55299F552E55398F553907FE532
:100E0000E8C313FAE913FBEAC313FAEB13FB500A26
:100E1000E0F590B2A6E0F590B2A6EAC313FAEB13A0
:100E2000FB5014E0F590B2A6E0F590B2A6E0F59084
:100E3000B2A6E0F590B2A6EAC313FAEB13FB502872
:100E4000E0F590B2A6E0F590B2A6E0F590B2A6E08B
:100E5000F590B2A6E0F590B2A6E0F590B2A6E0F566
:100E600090B2A6E0F590B2A6EB6052E0F590B2A683
:100E7000E0F590B2A6E0F590B2A6E0F590B2A6E05B
:100E8000F590B2A6E0F590B2A6E0F590B2A6E0F536
:100E900090B2A6E0F590B2A6E0F590B2A6E0F5908B
:100EA000B2A6E0F590B2A6E0F590B2A6E0F590B259
:100EB000A6E0F590B2A6E0F590B2A6DBAEEDC39940
:100EC000FDEC98FC300B0CE9C39440E50094004025
:100ED00002C20B020D921201100100000040C90A6B
:100EE000FF10060301020301090220000101004076
:100EF00000090400000208025000070582024000B9
:100F000000070502024000000F100F140F340F5AA3
:100F10000403090420034D006900630072006F00A0
:100F2000200053006F006C007500740069006F00B2
:100F30006E00730026034200410043004B00500046
:100F4000410043004B0020005500530042002000A8
:100F50004300610062006C00650012033000300045
:0C0F600030003000300030003000300065
:00000001FF
