:0300000002020FEA
:03000B0002065E8C
:030033000201586F
:03004300020100B7
:10010000020661000206E2000206E2000206A80002
:100110000206CC000206E2000206E2000206E2004D
:100120000206E2000206E2000206E2000206E20027
:100130000206E2000206E2000206E2000206E20017
:100140000206E2000206E2000206E2000206E20007
:100150000206E2000206E20053D8EF32907FC8E0C8
:1001600020E15C200B5990784F747DF0A374C0F0AF
:10017000907FC9E0F8907854F0907851B41F0A74D9
:1001800011F0A37436F00201967455254EF97411DE
:10019000354FF0A3E9F0907855F0E8B41F22D2076C
:1001A000754E00754F007550007551007552007501
:1001B0005300907855E030E7F9907FC9F0809D2298
:1001C000F9E54E29F54EF8E54F3400F54FB4060A2F
:1001D000E8B40006754E00754F00E92552F9F55256
:1001E00074003553F553C92440C93400F87400C372
:1001F0009974069850BCD20B7954E72401F709E7AB
:100200003400F709E73400F709E73400F780A375F5
:10021000815F120AA91202B1E4120B0B4008D20C42
:1002200012099E120A7612033F30060312036C3045
:100230000405000000C20430080512078780EA3177
:100240005C30070D120956907FC9F0300703120683
:10025000E4E55B5404655860516558F558E55A70FB
:100260003ED55946755910200C0EE4120B0B403A3E
:10027000D20C12099E0202AAE533120AFB60061292
:100280000B070202AAC20C9010487400F0A3F09071
:10029000105E74FFF0A3F0A3F012033F0202AAD590
:1002A0005A087400120CAD120B0700000000004148
:1002B00029C206C204C205C200C201755A0075589F
:1002C00000755910C20C74FF907FABF0907FA9F0BD
:1002D000907FAAF07540557541537542427543535E
:1002E00075570075540075550075560075361875AC
:1002F0005C10755DD4C20BC207C208D2E843D82097
:10030000538EF85391EF907F92E054FDF0907FAFC1
:10031000E04411F0907FAEE04409F0907FDE740578
:10032000F0907FDF7405F0907FDD7409F0D2AF901C
:100330007FD6E04402F0758901758810D2A9229019
:100340007FD6E04408F0F0E04402F07FDC7E031248
:100350000646907FD6E054F7F07E037FFF780112C7
:10036000062D200606DFF6DEF480D422907FE9E039
:10037000700B907FE8E024DF70000203B714700375
:1003800002042324FE700302047E24FB7003020493
:10039000F014700302050114700302051D147003AC
:1003A00002052C240570030205B9907FE8E030E6D1
:1003B000030205410205FD907FE8E0247F602314DD
:1003C00060302402705AA205E43325E0FFA200E465
:1003D000334F907F00F0E4A3F0907FB57402F002F9
:1003E0000604E4907F00F0A3F0907FB57402F00261
:1003F0000604907FECE0F45480C4FFE05407200131
:1004000002701D2F25E024B4F58275837FE054FE31
:10041000907F00F0E4A3F0907FB57402F002060430
:100420000205FD907FE8E024FE60072402604002A0
:1004300005FD907FEAE07043907FECE0F45480C4C7
:10044000FFE0540720010270322F25E024B4F5822A
:1004500075837FE4F0907FECE05480131313541FF6
:10046000FFE054072F907FD7F0D2E5F0020604900A
:100470007FEAE0B40105C2050206040205FD907F93
:10048000E824FE600724026058020604907FEAE038
:10049000705B907FECE0F45480C4FFE054072001CF
:1004A0000270D82F25E024B4F58275837F7401F0A3
:1004B000C083C082907FECE05480131313541FFF5D
:1004C000E054072F907FD7F0D2E5F0D082D083EFB1
:1004D00020E407A37401F0020604E0D2E1F0020672
:1004E00004907FEAE0B40105D2050206040205FD8E
:1004F000907F00E4A20133F0907FB57401F0020612
:1005000004907FEAE0600BB40110D20112060E02E3
:100510000604C20112060E0206040205FD907F00C9
:10052000E530F0907FB57401F0020604200103026B
:10053000053E907FEAE0F53012060E020604020541
:10054000FD907FE9E0B410257400300C0F907FEC33
:10055000E0F9C3E5339974004002E534907F00F080
:10056000A3E533F0907FB57402F0020604B411469F
:10057000907FECE0B53332E55A7012E533120AFB96
:100580006027755A04120CB77403120CAD120CC814
:10059000E4907C407D40C0E0120D9EEFF0A3EEF0B1
:1005A000A3D0E004DDF0120CCC907FD4747CF0A3D7
:1005B0007440F0020604020604907FEBE024FE6023
:1005C0001414601E24027035907FD47410F0A3744C
:1005D0003EF0020604907FD47410F0A37450F00231
:1005E0000604907FEAE023F990107093C90493C940
:1005F000907FD4F0A3E9F0020604020604907FB4D1
:10060000E04401F0907FB4E04402F0C20622907F03
:10061000D7E47F08F0D2E5F0C2E505E0DFF67F0819
:100620007410F0D2E5F0C2E505E0DFF622C082C02A
:1006300083C0E090FB4BA3E582458370F9D8F4D0EA
:10064000E0D083D082228E318F32E5321532AE3146
:10065000700215314E60067801D12D80ED22055BC8
:1006600032C0E0C083C082C085C084C086C0D07460
:10067000EF5291907FAB7401F0907FE8E0B42117C6
:10068000A3E0B4FF121206E3120AA375815F51D4EE
:10069000D1041206A74129D206D0D0D086D084D06A
:1006A00085D082D083D0E032C0E0C083C082539135
:1006B000EF907FAB7408F0907FD6E04480F0D204D6
:1006C0000000000000D082D083D0E032C0E0C083C0
:1006D000C0825391EF907FAB7410F0D082D083D062
:1006E000E0323222754D00300C0BE55A7039E5339B
:1006F000120AFB7006754C01020739120CB774031D
:10070000120CAD315C7402120BE2C3948060187459
:100710000679A0120BE9A9367402120BE9799774D5
:1007200007120BE9120924755A04120AA01207AD28
:10073000F54C74027980120BE9300A2220090CACC6
:1007400048E549C313CC13FD120E40E54D603090CF
:100750007FB923F0907FB8E020E1F902077F2009FC
:100760001EAD48AC49315CA952A85375520075536F
:1007700000C20BEDC399FDEC98FC40034D70E6D22E
:1007800008C20712078722907FB8E054037018C28E
:1007900008907E0079407F0DE7F009A3DFFA907F93
:1007A000B9740DF0120AA322AD48AC49229011454C
:1007B000E0B4280675352002082EB42F06753540A2
:1007C00002082EB42A0675353002082EB4120A909B
:1007D000110A7C007D2402080CB4250A90112E7C9D
:1007E000007D0802080CB40314855C83855D827C5F
:1007F000007D1212080C755C10755DD422B40003E4
:10080000740022755C10755DE67401221207A8124F
:10081000092E0586907E00C0050586E0A30586F0BA
:10082000A3DDF6D0E0907FB9F0058674002279A0B0
:100830007406120BE9120924300D2E79E0740612A9
:100840000BE9901147E044E0F97406120BE9A3E0CC
:10085000F97405120BE9A3E0F97404120BE9A3E0A3
:10086000F97403120BE90208B3200947901148E01C
:10087000F9A3E0FAA3E0FBAC5F120A61C002C00377
:1008800005F0A9F07403120BE9D003D0027900AC93
:100890005E120A61C002C00353F00F43F0A0A9F03A
:1008A0007406120BE9D0017404120BE9D00174052F
:1008B000120BE920096BE54A54FE454B60077400B2
:1008C0007B010208CBE54A13E54913F9FA740212D9
:1008D0000BE990114AE02AF0901149E03BF09011A9
:1008E00048E03400F0901147E03400F0A935740777
:1008F000120BE91209247407120BE2540860F4C0C9
:10090000027C017D00300A06120E40020911120E0F
:10091000D77C027D0012092ED002DAD712092401F9
:100920002E7400227407120BE2548070F722D20951
:1009300075F0007948E7C39D42F0F709E79C42F063
:10094000F709E7940042F0F709E7940042F0F7E571
:10095000F06002C20922907FE37411F0A37436F0B4
:10096000A3E0B45528E0B45324E0B44220E0B443FB
:100970001C79447F04E0F709DFFB7F04D209E0F72C
:100980006002C20909DFF7E0A2E7920A22C20790DB
:100990007FB8E04401F0907FC8E04401F022E533E5
:1009A000120AFB700122120CB77403120CAD79A06D
:1009B0007406120BE931247407120BE2544060F7FD
:1009C00079EC7407120BE931247407120BE2540816
:1009D00060F57586009011557F007E70120C3D7A8F
:1009E000907F00120C00DAF990112E058675F00048
:1009F0009011CFE042F0FAA3E042F00586F0A3EABE
:100A0000F0A305869011CDE042F0FAA3E042F00594
:100A100086F0A3EAF0E5F06005D20D020A58C20D97
:100A200090112E058675F0009011C9E042F0FAA3EE
:100A3000E042F00586F0A3EAF0A305869011C7E036
:100A400042F0FAA3E042F00586F0A3EAF09011C369
:100A5000E0F55EA3A3E0F55F7400120CAD120B0786
:100A6000227D11E98CF084A9F013EB33FBEA33FA11
:100A7000E933F9DDEE22E533120AFB6022120CC8DD
:100A800074379010C47D04C0E0120D9EEFF0A3A354
:100A9000EEF0A3A3D0E004DDEE120CCC120B072283
:100AA000D28522C28522B2852290784A7480F09045
:100AB0007827743FF0907826743FF0907849E0D220
:100AC000E0F0907F947400F075B3FF75B4F075B2E8
:100AD00020120AA32275B440907826743FF09078D3
:100AE000277400F090784A748AF02290784A7480D3
:100AF000F0907827743FF075B4F022F533120B268E
:100B000074004002740122120B8122F533120B266D
:100B100050080533E53370F5D322120C9BF53412DF
:100B20000B07E533C32275A000759062120B807528
:100B30009070120B80E533F590120B80F4F5901253
:100B40000B80D2A7120B8043A070120B807590030C
:100B5000120B807470F5A0120B807450F5A0120B6C
:100B600080E5A0540FB40B167470F5A0120B80E54D
:100B7000A0540FB4040874F0F5A0C3020B7FD32275
:100B80002275A00022F590B2A522F590B2A622759A
:100B9000B300B2A6C2A4E590D2A475B3FF22058625
:100BA000E583907FE3F0E582A3F0A375B300C2A4D0
:100BB000B2A61F120B80E590F0B2A6DFF6120B80F2
:100BC000E590F0D2A475B3FF0586220586E58390F3
:100BD0007FE3F0E582A3F0A3E0F590B2A6DFF9058C
:100BE00086224440120B8580A64460120B85E98062
:100BF000994400120B8580974420120B85E9808A66
:100C000074E1120B85EF4440120B85120B8FCF4419
:100C100040120B85120B8FFE74C1120B852274E1FA
:100C2000120B85EF4460120B85ED120B8AEF4460C6
:100C3000120B85EE120B8A74C1120B8522742812D6
:100C40000B85EE23FE120B8A7400120B8A740012BD
:100C50000B8A74E9120B85EF4440120B85EEFF12EC
:100C60000B9E74C9120B85227428120B85EE23FE8D
:100C7000120B8A7400120B8A7400120B8A74E91228
:100C80000B85EF4460120B85EEFF120BCB74C9127B
:100C90000B85227400120BF15401227401120BF126
:100CA000543F227401120BF154C023232254030336
:100CB00003F97401020BF8227406020BF1C0E0F98B
:100CC0007406120BF8D0E022740880F1740080EDF5
:100CD000120CB8440480E6120CB854FB80DF120CEE
:100CE000D0120D0D60FB80EFC0E0C0F05401600237
:100CF0007402F5F0120CB854FC45F0120CBD44011E
:100D0000120CBD54FE120CBDD0F0D0E022740012C3
:100D10000BF154406002740122120CD07401120CC9
:100D2000E814120CE8120CE804120CE8120CE81299
:100D30000CE8120CE8120CE8120CE8120CD7221284
:100D40000CD07401120CE814120CE8120CE8120C0E
:100D5000E8120CE8120CE8120CE8120CE8120CE88D
:100D6000120CD722C0E0120CD07401120CE87400EF
:100D7000120CE87401120CE8D0E02323237B061246
:100D80000CE823DBFAEE7B0823120CE8DBFAEF7B9E
:100D90000823120CE8DBFA120CD7120CDE22C0E09A
:100DA000120CD07401120CE8120CE814120CE8D0EA
:100DB000E02323237B06120CE823DBFA7B08C0E048
:100DC0007400120CE8120D0D13D0E033DBF0FE7B43
:100DD00008C0E07400120CE8120D0D13D0E033DBF4
:100DE000F0FF120CD722120CD07401120CE814126E
:100DF0000CE8120CE804120CE814120CE8120CE8CF
:100E0000120CE8120CE8120CE8120CD7120CDE12CD
:100E10000CD07401120CE814120CE8120CE8120C3D
:100E2000E804120CE8120CE8120CE8120CE8120CA0
:100E3000E87B1014120CE8DBFB120CD7120CDE223C
:100E40007428120B85EDC333FEEC33CE120B8AEE01
:100E5000120B8A7400120B8A74E9120B857440120B
:100E60000B8575B300C2A4907FE3747EF0ED4C60F7
:100E70005B907FE47400254D254DF07420C3954DA3
:100E8000F9EDC399FDEC9400FCE95006E92D7C00D6
:100E90007D00FF254DF54DC0E0B2A6907FB8E02063
:100EA000E1FC907FE5DF02800CE590B2A6F0E590D2
:100EB000B2A6F0DFF4E590B2A6F0E590F0D0E0B491
:100EC00020AB907FB923F0754D0080A1D2A475B3FB
:100ED000FF74C9120B85227428120B85EDC333FDF4
:100EE000EC33FCED120B8AEC120B8A7400120B8AA5
:100EF00074E9120B857460120B8512015CED4C7065
:100F00000674C9120B8522907FE474552550F09029
:100F10007FE374113551F012015CA853A952E849DE
:100F200060F5E9C39DE89C4004EDF9ECF8E9255033
:100F3000FBE83551FA7400C39BFF74069AFE400625
:100F40004F7013020F52EB2FFBEA3EFAE92FF9E83C
:100F50003EF87A007B008B508A51C3E55299F552D6
:100F6000E55398F553907FE5E8C313FAE913FBEADC
:100F7000C313FAEB13FB500AE0F590B2A6E0F5902C
:100F8000B2A6EAC313FAEB13FB5014E0F590B2A635
:100F9000E0F590B2A6E0F590B2A6E0F590B2A6EA30
:100FA000C313FAEB13FB5028E0F590B2A6E0F590DE
:100FB000B2A6E0F590B2A6E0F590B2A6E0F590B248
:100FC000A6E0F590B2A6E0F590B2A6E0F590B2A644
:100FD000EB6052E0F590B2A6E0F590B2A6E0F59095
:100FE000B2A6E0F590B2A6E0F590B2A6E0F590B218
:100FF000A6E0F590B2A6E0F590B2A6E0F590B2A614
:10100000E0F590B2A6E0F590B2A6E0F590B2A6E0C9
:10101000F590B2A6E0F590B2A6E0F590B2A6E0F5A4
:1010200090B2A6DBAEEDC399FDEC98FC300B0CE959
:10103000C39440E50094004002C20B020EFA120174
:10104000100100000040C90AFF100603010203015D
:10105000090220000101004000090400000208020A
:101060005000070582024000000705020240000010
:101070001078107C109C10C20403090420034D005A
:101080006900630072006F00200053006F006C0065
:101090007500740069006F006E0073002603420043
:1010A000410043004B005000410043004B00200032
:1010B00055005300420020004300610062006C00B4
:1010C0006500120330003000300030003000300086
:1010D0003000300070000000000000000000000040
:1010E000000000000000700005000000000000008B
:1010F0000000240000000000F000020000000000DA
:1011000000000000040100000000000000211F009A
:1011100000004241434B5041434B486172642044BC
:1011200072697665202020202020332E3036000082
:06113000000000000200B7
:00000001FF
