:0300000002020FEA
:03000B0002065E8C
:030033000201586F
:03004300020100B7
:10010000020661000206E2000206E2000206A80002
:100110000206CC000206E2000206E2000206E2004D
:100120000206E2000206E2000206E2000206E20027
:100130000206E2000206E2000206E2000206E20017
:100140000206E2000206E2000206E2000206E20007
:100150000206E2000206E20053D8EF32907FC8E0C8
:1001600020E15C200B5990784F747DF0A374C0F0AF
:10017000907FC9E0F8907854F0907851B41F0A74D9
:1001800011F0A37460F0020196747F254EF974118A
:10019000354FF0A3E9F0907855F0E8B41F22D2076C
:1001A000754E00754F007550007551007552007501
:1001B0005300907855E030E7F9907FC9F0809D2298
:1001C000F9E54E29F54EF8E54F3400F54FB4060A2F
:1001D000E8B40006754E00754F00E92552F9F55256
:1001E00074003553F553C92440C93400F87400C372
:1001F0009974069850BCD20B7954E72401F709E7AB
:100200003400F709E73400F709E73400F780A375F5
:10021000815F120AA91202B1E4120B0B4008D20C42
:1002200012099E120A7612033F30060312036C3045
:100230000405000000C20430080512078780EA3177
:100240005C30070D120956907FC9F0300703120683
:10025000E4E55B5404655860516558F558E55A70FB
:100260003ED55946755910200C0EE4120B0B403A3E
:10027000D20C12099E0202AAE533120AFB60061292
:100280000B070202AAC20C9010727400F0A3F09047
:10029000108874FFF0A3F0A3F012033F0202AAD566
:1002A0005A087400120CBB120B070000000000413A
:1002B00029C206C204C205C200C201755A0075589F
:1002C00000755910C20C74FF907FABF0907FA9F0BD
:1002D000907FAAF07540557541537542427543535E
:1002E00075570075540075550075560075361875AC
:1002F0005C10755DFEC20BC207C208D2E843D8206D
:10030000538EF85391EF907F92E054FDF0907FAFC1
:10031000E04411F0907FAEE04409F0907FDE740578
:10032000F0907FDF7405F0907FDD7409F0D2AF901C
:100330007FD6E04402F0758901758810D2A9229019
:100340007FD6E04408F0F0E04402F07FDC7E031248
:100350000646907FD6E054F7F07E037FFF780112C7
:10036000062D200606DFF6DEF480D422907FE9E039
:10037000700B907FE8E024DF70000203B714700375
:1003800002042324FE700302047E24FB7003020493
:10039000F014700302050114700302051D147003AC
:1003A00002052C240570030205B9907FE8E030E6D1
:1003B000030205410205FD907FE8E0247F602314DD
:1003C00060302402705AA205E43325E0FFA200E465
:1003D000334F907F00F0E4A3F0907FB57402F002F9
:1003E0000604E4907F00F0A3F0907FB57402F00261
:1003F0000604907FECE0F45480C4FFE05407200131
:1004000002701D2F25E024B4F58275837FE054FE31
:10041000907F00F0E4A3F0907FB57402F002060430
:100420000205FD907FE8E024FE60072402604002A0
:1004300005FD907FEAE07043907FECE0F45480C4C7
:10044000FFE0540720010270322F25E024B4F5822A
:1004500075837FE4F0907FECE05480131313541FF6
:10046000FFE054072F907FD7F0D2E5F0020604900A
:100470007FEAE0B40105C2050206040205FD907F93
:10048000E824FE600724026058020604907FEAE038
:10049000705B907FECE0F45480C4FFE054072001CF
:1004A0000270D82F25E024B4F58275837F7401F0A3
:1004B000C083C082907FECE05480131313541FFF5D
:1004C000E054072F907FD7F0D2E5F0D082D083EFB1
:1004D00020E407A37401F0020604E0D2E1F0020672
:1004E00004907FEAE0B40105D2050206040205FD8E
:1004F000907F00E4A20133F0907FB57401F0020612
:1005000004907FEAE0600BB40110D20112060E02E3
:100510000604C20112060E0206040205FD907F00C9
:10052000E530F0907FB57401F0020604200103026B
:10053000053E907FEAE0F53012060E020604020541
:10054000FD907FE9E0B410257400300C0F907FEC33
:10055000E0F9C3E5339974004002E534907F00F080
:10056000A3E533F0907FB57402F0020604B411469F
:10057000907FECE0B53332E55A7012E533120AFB96
:100580006027755A04120CCE7403120CBB120CEBCC
:10059000E4907C407D40C0E0120DC7EFF0A3EEF088
:1005A000A3D0E004DDF0120CF2907FD4747CF0A3B1
:1005B0007440F0020604020604907FEBE024FE6023
:1005C0001414601E24027035907FD47410F0A3744C
:1005D00068F0020604907FD47410F0A3747AF002DD
:1005E0000604907FEAE023F990109A93C90493C916
:1005F000907FD4F0A3E9F0020604020604907FB4D1
:10060000E04401F0907FB4E04402F0C20622907F03
:10061000D7E47F08F0D2E5F0C2E505E0DFF67F0819
:100620007410F0D2E5F0C2E505E0DFF622C082C02A
:1006300083C0E090FB4BA3E582458370F9D8F4D0EA
:10064000E0D083D082228E318F32E5321532AE3146
:10065000700215314E60067801D12D80ED22055BC8
:1006600032C0E0C083C082C085C084C086C0D07460
:10067000EF5291907FAB7401F0907FE8E0B42117C6
:10068000A3E0B4FF121206E3120AA375815F51D4EE
:10069000D1041206A74129D206D0D0D086D084D06A
:1006A00085D082D083D0E032C0E0C083C082539135
:1006B000EF907FAB7408F0907FD6E04480F0D204D6
:1006C0000000000000D082D083D0E032C0E0C083C0
:1006D000C0825391EF907FAB7410F0D082D083D062
:1006E000E0323222754D00300C0BE55A7039E5339B
:1006F000120AFB7006754C01020739120CCE740306
:10070000120CBB315C7402120BEFC394806018743E
:100710000679A0120BF6A9367402120BF6799774BB
:1007200007120BF6120924755A04120AA01207AD1B
:10073000F54C74027980120BF6300A2220090CACB9
:1007400048E549C313CC13FD120E69E54D603090A6
:100750007FB923F0907FB8E020E1F902077F2009FC
:100760001EAD48AC49315CA952A85375520075536F
:1007700000C20BEDC399FDEC98FC40034D70E6D22E
:1007800008C20712078722907FB8E054037018C28E
:1007900008907E0079407F0DE7F009A3DFFA907F93
:1007A000B9740DF0120AA322AD48AC492290116F22
:1007B000E0B4280675352002082EB42F06753540A2
:1007C00002082EB42A0675353002082EB4120A909B
:1007D00011347C007D2402080CB4250A9011587C49
:1007E000007D0802080CB40314855C83855D827C5F
:1007F000007D1212080C755C10755DFE22B40003BA
:10080000740022755C11755D107401221207A81224
:10081000092E0586907E00C0050586E0A30586F0BA
:10082000A3DDF6D0E0907FB9F0058674002279A0B0
:100830007406120BF6120924300D2E79E07406129C
:100840000BF6901171E044E0F97406120BF6A3E088
:10085000F97405120BF6A3E0F97404120BF6A3E089
:10086000F97403120BF60208B3200947901172E0E5
:10087000F9A3E0FAA3E0FBAC5F120A61C002C00377
:1008800005F0A9F07403120BF6D003D0027900AC86
:100890005E120A61C002C00353F00F43F0A0A9F03A
:1008A0007406120BF6D0017404120BF6D001740515
:1008B000120BF620096BE54A54FE454B60077400A5
:1008C0007B010208CBE54A13E54913F9FA740212D9
:1008D0000BF6901174E02AF0901173E03BF0901148
:1008E00072E03400F0901171E03400F0A935740723
:1008F000120BF61209247407120BEF540860F4C0AF
:10090000027C017D00300A06120E69020911120FE5
:100910000F7C027D0012092ED002DAD712092401C1
:100920002E7400227407120BEF548070F722D20944
:1009300075F0007948E7C39D42F0F709E79C42F063
:10094000F709E7940042F0F709E7940042F0F7E571
:10095000F06002C20922907FE37411F0A37460F08A
:10096000A3E0B45528E0B45324E0B44220E0B443FB
:100970001C79447F04E0F709DFFB7F04D209E0F72C
:100980006002C20909DFF7E0A2E7920A22C20790DB
:100990007FB8E04401F0907FC8E04401F022E533E5
:1009A000120AFB700122120CCE7403120CBB79A048
:1009B0007406120BF631247407120BEF544060F7E3
:1009C00079EC7407120BF631247407120BEF5408FC
:1009D00060F575860090117F7F007E70120C5A7A48
:1009E000907F00120C15DAF9901158058675F00009
:1009F0009011F9E042F0FAA3E042F00586F0A3EA94
:100A0000F0A305869011F7E042F0FAA3E042F0056A
:100A100086F0A3EAF0E5F06005D20D020A58C20D97
:100A2000901158058675F0009011F3E042F0FAA39A
:100A3000E042F00586F0A3EAF0A305869011F1E00C
:100A400042F0FAA3E042F00586F0A3EAF09011ED3F
:100A5000E0F55EA3A3E0F55F7400120CBB120B0778
:100A6000227D11E98CF084A9F013EB33FBEA33FA11
:100A7000E933F9DDEE22E533120AFB6022120CEBBA
:100A800074379010EE7D04C0E0120DC7EFF0A3A301
:100A9000EEF0A3A3D0E004DDEE120CF2120B07225D
:100AA000D28522C28522B2852290784A7480F09045
:100AB0007827743FF0907826743FF0907849E0D220
:100AC000E0F0907F947400F075B3FF75B4F075B2E8
:100AD00020120AA32275B440907826743FF09078D3
:100AE000277400F090784A748AF02290784A7480D3
:100AF000F0907827743FF075B4F022F533120B298B
:100B000074004002740122120B7C22F533120B7C1C
:100B1000120B2950080533E53370F5D322120C0D62
:100B2000F534120B07E533C322E533F4F59075A0D5
:100B3000F0120B77F4F590120B77B2A7120B77B285
:100B4000A7120B77B2A7120B77C2A5E5335407653E
:100B5000A054077020D2A5E533F4540765A05407CC
:100B60007013D2A7C00179107404120C05D001C310
:100B7000E533020B76D322C001D00122C2A7120BAB
:100B80007775A00022C2A4F590120B77B2A522C2FD
:100B9000A4F590B2A622D2A475B300B2A6120B7728
:100BA000E590C2A475B3FF22D2A40586E583907FA9
:100BB000E3F0E582A3F0A375B300B2A61F120B7792
:100BC000E590F0B2A6DFF6120B77E590F0C2A475BF
:100BD000B3FF058622C2A40586E583907FE3F0E596
:100BE00082A3F0A3E0F59000B2A6DFF805862244C8
:100BF00040120B8580A04440120B85E9809144008F
:100C0000120B8580914400120B85E98082740B12CF
:100C10000BFE543F2279507404120C05EF4440122D
:100C20000B85120B96CF4440120B85120B96FE7962
:100C3000107404120C052279507404120C05EF4450
:100C400040120B85ED120B8FEF4440120B85EE1214
:100C50000B8F79107404120C0522EE23FEE534B4D8
:100C600005127438120B85EE120B8F7400120B8F65
:100C700074104FFF79507404120C05EF4440120BAE
:100C800085EEFF120BA879107404120C052279501E
:100C90007404120C05EF4440120B85EE23FF120B77
:100CA000D579107404120C0522740B120BFE5480BB
:100CB000227405120BFE54C023232254030303F9AC
:100CC0007405120BFE543F49F97405020C057405B6
:100CD000120BFE4408F97405020C057406020BFEA3
:100CE000C0E0F97406120C05D0E022120CDB4408B7
:100CF00080EE120CDB54F780E7120CDB440480E03A
:100D0000120CDB54FB80D9120CF9120D3660FB80FB
:100D1000EFC0E0C0F0540160027402F5F0120CDB89
:100D200054FC45F0120CE04401120CE054FE120C8D
:100D3000E0D0F0D0E0227400120BFE548060027408
:100D40000122120CF97401120D1114120D11120D61
:100D50001104120D11120D11120D11120D11120D9F
:100D600011120D11120D0022120CF97401120D1145
:100D700014120D11120D11120D11120D11120D116F
:100D8000120D11120D11120D11120D0022C0E012E0
:100D90000CF97401120D117400120D117401120D71
:100DA00011D0E02323237B06120D1123DBFAEE7B07
:100DB0000823120D11DBFAEF7B0823120D11DBFA69
:100DC000120D00120D0722C0E0120CF97401120D71
:100DD00011120D1114120D11D0E02323237B0612E2
:100DE0000D1123DBFA7B08C0E07400120D11120D07
:100DF0003613D0E033DBF0FE7B08C0E07400120D48
:100E000011120D3613D0E033DBF0FF120D00221269
:100E10000CF97401120D1114120D11120D1104129E
:100E20000D1114120D11120D11120D11120D1112BE
:100E30000D11120D00120D07120CF97401120D1193
:100E400014120D11120D11120D1104120D11120DAB
:100E500011120D11120D11120D117B1014120D1122
:100E6000DBFB120D00120D0722E534B405137438B4
:100E7000120B85EDC333FEEC33CE120B8FEE120B4B
:100E80008F79507404120C057440A934B9050244DA
:100E900010120B85D2A475B300907FE3747EF0ED41
:100EA0004C605F907FE47400254D254DF07420C3A5
:100EB000954DF9EDC399FDEC9400FCE95006E92D40
:100EC0007C007D00FF254DF54DC0E0B2A6907FB8B7
:100ED000E020E1FC907FE5DF02800FE590B2A6F014
:100EE00000E590B2A6F00000DFF1E590B2A6F000B8
:100EF000E590F0D0E0B420A7907FB923F0754D00C5
:100F0000809DC2A475B3FF79107404120C0522ED04
:100F1000C333FDEC33FC79507404120C0574401299
:100F20000B8512015CED4C700879107404120C05ED
:100F300022907FE4747F2550F0907FE37411355147
:100F4000F012015CA853A952E84960F5E9C39DE895
:100F50009C4004EDF9ECF8E92550FBE83551FA74B2
:100F600000C39BFF74069AFE40064F7013020F7C6D
:100F7000EB2FFBEA3EFAE92FF9E83EF87A007B0016
:100F80008B508A51C3E55299F552E55398F5539029
:100F90007FE5E8C313FAE913FBEAC313FAEB13FB8B
:100FA000500AE0F590B2A6E0F590B2A6EAC313FAB3
:100FB000EB13FB5014E0F590B2A6E0F590B2A6E07A
:100FC000F590B2A6E0F590B2A6EAC313FAEB13FBD4
:100FD0005028E0F590B2A6E0F590B2A6E0F590B208
:100FE000A6E0F590B2A6E0F590B2A6E0F590B2A624
:100FF000E0F590B2A6E0F590B2A6EB6052E0F59075
:10100000B2A6E0F590B2A6E0F590B2A6E0F590B2F7
:10101000A6E0F590B2A6E0F590B2A6E0F590B2A6F3
:10102000E0F590B2A6E0F590B2A6E0F590B2A6E0A9
:10103000F590B2A6E0F590B2A6E0F590B2A6E0F584
:1010400090B2A6E0F590B2A6E0F590B2A6DBAEEDC8
:10105000C399FDEC98FC300B0CE9C39440E5009477
:10106000004002C20B020F221201100100000040DA
:10107000C90AFF1006030102030109022000010151
:101080000040000904000002080250000705820227
:101090004000000705020240000010A210A610C682
:1010A00010EC0403090420034D0069006300720082
:1010B0006F00200053006F006C0075007400690021
:1010C0006F006E00730026034200410043004B0096
:1010D0005000410043004B002000550053004200E7
:1010E00020004300610062006C00650012033000C4
:1010F0003000300030003000300030003000700030
:1011000000000000000000000000000000000000DF
:101110007000050000000000000000002400000036
:101120000000F000020000000000000000000401C8
:1011300000000000000000211F0000004241434B5E
:101140005041434B486172642044726976652020A7
:1011500020202020332E3036000000000000020046
:00000001FF
