:0300000002019F5B
:03000B000205BA31
:030033000201586F
:03004300020100B7
:100100000205BD0002063E0002063E000206040093
:100110000206280002063E0002063E0002063E00DD
:1001200002063E0002063E0002063E0002063E00B7
:1001300002063E0002063E0002063E0002063E00A7
:1001400002063E0002063E0002063E0002063E0097
:0D01500002063E0002063E0053D8EF3222A8
:10015E00300903020758300A03020CC52230090386
:10016E00020764300A03020CD12230090302094847
:10017E00300A03020E922230090302094F300A039D
:10018E00020E9622300903020A24300A03020F6877
:10019E002275815F12070612024B3006031202DB34
:1001AE00300405000000C204907FD8E0542065356D
:1001BE0060476535F535D536407536102008231263
:1001CE000703E4120768400AD208D20912020E028F
:1001DE000207E4120CD54021D208D20A12020E02F6
:1001EE0002071206FDE533315E6005316B02020730
:1001FE00120700C208C209C2090000000000809A5E
:10020E00E533315E6036317874023192C007318544
:10021E00316B79022009027903D0E0C39480401C2F
:10022E00600E94016016940560065010E954FDF9B5
:10023E0090064AE9F0A37410F01202AC22C206C274
:10024E0004C205C200C201C209C20A753500753664
:10025E0010C20874FF907FABF0907FA9F0907FAA38
:10026E00F0D2E843D820538EF85391EF907FAFE051
:10027E004411F0907FAEE04409F0907FDE7405F0FB
:10028E00907FDF7405F0907FDD7409F0D2AF907F20
:10029E00D6E04402F0758901758810D2A922907FAC
:1002AE00D6E04408F0F0E04402F07FDC7E03120555
:1002BE00A2907FD6E054F7F07E037FFF78011205FF
:1002CE00A2200608D9F679FFDAF280D222907FE9D1
:1002DE00E0700B907FE8E024DF70000203261470BC
:1002EE000302039224FE70030203ED24FB7003024B
:1002FE00045F14700302047014700302048C1470F3
:10030E000302049B24057003020515907FE8E0307C
:10031E00E6030204B0020559907FE8E0247F6023D3
:10032E001460302402705AA205E43325E0FFA200C7
:10033E00E4334F907F00F0E4A3F0907FB57402F0A9
:10034E00020560E4907F00F0A3F0907FB57402F098
:10035E00020560907FECE0F45480C4FFE054072067
:10036E000102701D2F25E024B4F58275837FE054C1
:10037E00FE907F00F0E4A3F0907FB57402F00205CA
:10038E0060020559907FE8E024FE60072402604079
:10039E00020559907FEAE07043907FECE0F45480C0
:1003AE00C4FFE0540720010270322F25E024B4F57B
:1003BE008275837FE4F0907FECE054801313135426
:1003CE001FFFE054072F907FD7F0D2E5F0020560B3
:1003DE00907FEAE0B40105C205020560020559905E
:1003EE007FE824FE600724026058020560907FEAD1
:1003FE00E0705B907FECE0F45480C4FFE054072083
:10040E00010270D82F25E024B4F58275837F740124
:10041E00F0C083C082907FECE05480131313541FFE
:10042E00FFE054072F907FD7F0D2E5F0D082D08333
:10043E00EF20E407A37401F0020560E0D2E1F002C0
:10044E000560907FEAE0B40105D205020560020561
:10045E0059907F00E4A20133F0907FB57401F00251
:10046E000560907FEAE0600BB40110D20112056ABC
:10047E00020560C20112056A020560020559907FED
:10048E0000E530F0907FB57401F0020560200103A5
:10049E000204AD907FEAE0F53012056A02056002B3
:1004AE000559907FE9E0B41025740030080F907F55
:1004BE00ECE0F9C3E5339974004002E534907F0017
:1004CE00F0A3E533F0907FB57402F0020560B4112D
:1004DE0033907FECE0B5331FE533315E6019317830
:1004EE00E4907C40AD40C0E03192EFF0A3EEF0A37B
:1004FE00D0E004DDF13185907FD4747CF0A374409C
:10050E00F0020560020560907FEBE024FE6014149B
:10051E00601E24027035907FD47406F0A37440F0F0
:10052E00020560907FD47406F0A37452F002056049
:10053E00907FEAE023F990067293C90493C9907FE5
:10054E00D4F0A3E9F0020560020560907FB4E044A8
:10055E0001F0907FB4E04402F0C20622907FD7E40F
:10056E007F08F0D2E5F0C2E505E0DFF67F087410F3
:10057E00F0D2E5F0C2E505E0DFF622C082C083C00E
:10058E00E090FB4BA3E582458370F9D8F4D0E0D020
:10059E0083D082228E318F32E5321532AE31700227
:1005AE0015314E60067801B18980ED22053732C0D3
:1005BE00E0C083C082C085C084C086C0D074EF52B4
:1005CE0091907FAB7401F0907FE8E0B42117A3E027
:1005DE00B4FF1212063F12070075815F516FB160B2
:1005EE0012060321A8D206D0D0D086D084D085D0D2
:1005FE0082D083D0E032C0E0C083C0825391EF90AE
:10060E007FAB7408F0907FD6E04480F0D2040000F7
:10061E00000000D082D083D0E032C0E0C083C08220
:10062E005391EF907FAB7410F0D082D083D0E03234
:10063E00322212011001FFFFFF40C90A000006031B
:10064E00010200010902200001010040000904001E
:10065E000002FFFFFF0007058202400000070502AF
:10066E0002400000067A067E06B8069E04030904C0
:10067E0020034D006900630072006F0020005300DC
:10068E006F006C007500740069006F006E007300DF
:10069E001A033000300030003000300030003000DF
:1006AE00300030003000300032002603420041009E
:1006BE0043004B005000410043004B00200055000A
:1006CE005300420020004300610062006C00650090
:1006FD00D28522C28522B2852290784A7480F090EC
:10070D007827743FF0907826743FF0907849E0D2C6
:10071D00E0F0907F947400F075B3FF75B4F075B28E
:10072D00201207002275B440907826743FF090781F
:10073D00277400F090784A748AF02290784A748079
:10074D00F0907827743FF075B4F022F533120786D8
:10075D00740040027401221207D922F5331207D911
:10076D0012078650080533E53370F5D32212086A57
:10077D00F534120764E533C322E533F4F59075A023
:10078D00F01207D4F4F5901207D4B2A71207D4B221
:10079D00A71207D4B2A71207D4C2A5E53354076533
:1007AD00A054077020D2A5E533F4540765A0540773
:1007BD007013D2A7C00179107404120862D001C35E
:1007CD00E5330207D3D322C001D00122C2A71207FD
:1007DD00D475A00022C2A4F5901207D4B2A522C2EE
:1007ED00A4F590B2A622D2A475B300B2A61207D476
:1007FD00E590C2A475B3FF22D2A40586E583907F50
:10080D00E3F0E582A3F0A375B300B2A61F1207D4DF
:10081D00E590F0B2A6DFF61207D4E590F0C2A4750C
:10082D00B3FF058622C2A40586E583907FE3F0E53C
:10083D0082A3F0A3E0F59000B2A6DFF8058622446E
:10084D00401207E280A044401207E2E98091440083
:10085D001207E2809144001207E2E98082740B12C4
:10086D00085B543F2279507404120862EF44401221
:10087D0007E21207F3CF44401207E21207F3FE79A5
:10088D001074041208622279507404120862EF4445
:10089D00401207E2ED1207ECEF44401207E2EE12B0
:1008AD0007EC7910740412086222EE23FEE534B4CD
:1008BD00051274381207E2EE1207EC74001207EC01
:1008CD0074104FFF79507404120862EF4440120700
:1008DD00E2EEFF12080579107404120862227950B5
:1008ED007404120862EF44401207E2EE23FF12086F
:1008FD00327910740412086222740B12085B548052
:10090D0022740512085B54C023232254030303F9F8
:10091D00740512085B543F49F974050208627405A9
:10092D0012085B4408F97405020862740602085B3C
:10093D00C0E0F97406120862D0E0221209384408AA
:10094D0080EE12093854F780E7120938440480E02C
:10095D0012093854FB80D912095612099360FB8095
:10096D00EFC0E0C0F0540160027402F5F0120938D6
:10097D0054FC45F012093D440112093D54FE120983
:10098D003DD0F0D0E022740012085B5480600274F8
:10099D000122120956740112096E1412096E120900
:1009AD006E0412096E12096E12096E12096E120989
:1009BD006E12096E12095D22120956740112096E2A
:1009CD001412096E12096E12096E12096E12096E59
:1009DD0012096E12096E12096E12095D22C0E01223
:1009ED000956740112096E740012096E7401120910
:1009FD006ED0E02323237B0612096E23DBFAEE7BF8
:100A0D00082312096EDBFAEF7B082312096EDBFA5D
:100A1D0012095D12096422C0E0120956740112090F
:100A2D006E12096E1412096ED0E02323237B061279
:100A3D00096E23DBFA7B08C0E0740012096E1209FF
:100A4D009313D0E033DBF0FE7B08C0E07400120995
:100A5D006E12099313D0E033DBF0FF12095D221201
:100A6D000956740112096E1412096E12096E0412E0
:100A7D00096E1412096E12096E12096E12096E12A8
:100A8D00096E12095D120964120956740112096E7C
:100A9D001412096E12096E12096E0412096E1209F2
:100AAD006E12096E12096E12096E7B101412096E08
:100ABD00DBFB12095D12096422E534B405137438A9
:100ACD001207E2EDC333FEEC33CE1207ECEE120744
:100ADD00EC795074041208627440A934B9050244CB
:100AED00101207E2D2A475B300907FE3747EF0ED8F
:100AFD004C605F907FE4740025382538F07420C376
:100B0D009538F9EDC399FDEC9400FCE95006E92DFB
:100B1D007C007D00FF2538F538C0E0B2A6907FB887
:100B2D00E020E1FC907FE5DF02800FE590B2A6F0BA
:100B3D0000E590B2A6F00000DFF1E590B2A6F0005E
:100B4D00E590F0D0E0B420A7907FB923F075380080
:100B5D00809DC2A475B3FF7910740412086222ED52
:100B6D00C333FDEC33FC79507404120862744012E7
:100B7D0007E212015CED4C700879107404120862E2
:100B8D0022907FE4745D253BF0907FE37401353C4A
:100B9D00F012015CA83EA93DE84960F5E9C39DE866
:100BAD009C4004EDF9ECF8E9253BFBE8353CFA7483
:100BBD0001C39BFF74009AFE40064F7013020BD9C0
:100BCD00EB2FFBEA3EFAE92FF9E83EF87A007B00BD
:100BDD008B3B8A3CC3E53D99F53DE53E98F53E904E
:100BED007FE5E8C313FAE913FBEAC313FAEB13FB32
:100BFD00500AE0F590B2A6E0F590B2A6EAC313FA5A
:100C0D00EB13FB5014E0F590B2A6E0F590B2A6E020
:100C1D00F590B2A6E0F590B2A6EAC313FAEB13FB7A
:100C2D005028E0F590B2A6E0F590B2A6E0F590B2AE
:100C3D00A6E0F590B2A6E0F590B2A6E0F590B2A6CA
:100C4D00E0F590B2A6E0F590B2A6EB6052E0F5901B
:100C5D00B2A6E0F590B2A6E0F590B2A6E0F590B29E
:100C6D00A6E0F590B2A6E0F590B2A6E0F590B2A69A
:100C7D00E0F590B2A6E0F590B2A6E0F590B2A6E050
:100C8D00F590B2A6E0F590B2A6E0F590B2A6E0F52B
:100C9D0090B2A6E0F590B2A6E0F590B2A6DBAEED6F
:100CAD00C399FDEC98FC30070CE9C39440E5009422
:100CBD00004002C207020B7FF533120CF0740040A6
:100CCD0002740122120D4B22F533120CF05008055F
:100CDD0033E53370F5D322120E65F534120CD1E5E0
:100CED0033C32275A000759062120D4A7590701273
:100CFD000D4AE533F590120D4AF4F590120D4AD2D6
:100D0D00A7120D4A43A070120D4A759003120D4A99
:100D1D007470F5A0120D4A7450F5A0120D4AE5A09D
:100D2D00540FB40B167470F5A0120D4AE5A0540FB4
:100D3D00B4040874F0F5A0C3020D49D3222275A0A6
:100D4D000022F590B2A522F590B2A62275B300B29D
:100D5D00A6C2A4E590D2A475B3FF220586E58390C3
:100D6D007FE3F0E582A3F0A375B300C2A4B2A61F82
:100D7D00120D4AE590F0B2A6DFF6120D4AE590F09D
:100D8D00D2A475B3FF0586220586E583907FE3F037
:100D9D00E582A3F0A3E0F590B2A6DFF90586224423
:100DAD0040120D4F80A64460120D4FE9809944000A
:100DBD00120D4F80974420120D4FE9808A74E11275
:100DCD000D4FEF4440120D4F120D59CF4440120DEF
:100DDD004F120D59FE74C1120D4F2274E1120D4FB9
:100DED00EF4460120D4FED120D54EF4460120D4F94
:100DFD00EE120D5474C1120D4F227428120D4FEEC8
:100E0D0023FE120D547400120D547400120D5474FF
:100E1D00E9120D4FEF4440120D4FEEFF120D6874A5
:100E2D00C9120D4F227428120D4FEE23FE120D54D0
:100E3D007400120D547400120D5474E9120D4FEF1D
:100E4D004460120D4FEEFF120D9574C9120D4F2215
:100E5D007400120DBB5401227401120DBB543F22BC
:100E6D007401120DBB54C023232254030303F974E0
:100E7D0001020DC2227406020DBBC0E0F974061208
:100E8D000DC2D0E022740880F1740080ED120E8244
:100E9D00440480E6120E8254FB80DF120E9A120E6D
:100EAD00D760FB80EFC0E0C0F0540160027402F522
:100EBD00F0120E8254FC45F0120E874401120E877B
:100ECD0054FE120E87D0F0D0E0227400120DBB54E8
:100EDD00406002740122120E9A7401120EB21412A5
:100EED000EB2120EB204120EB2120EB2120EB212D7
:100EFD000EB2120EB2120EB2120EA122120E9A7470
:100F0D0001120EB214120EB2120EB2120EB2120E57
:100F1D00B2120EB2120EB2120EB2120EB2120EA109
:100F2D0022C0E0120E9A7401120EB27400120EB2AB
:100F3D007401120EB2D0E02323237B06120EB223CE
:100F4D00DBFAEE7B0823120EB2DBFAEF7B082312DD
:100F5D000EB2DBFA120EA1120EA822C0E0120E9AEA
:100F6D007401120EB2120EB214120EB2D0E023237F
:100F7D00237B06120EB223DBFA7B08C0E07400124D
:100F8D000EB2120ED713D0E033DBF0FE7B08C0E0BB
:100F9D007400120EB2120ED713D0E033DBF0FF1235
:100FAD000EA122120E9A7401120EB214120EB2126A
:100FBD000EB204120EB214120EB2120EB2120EB204
:100FCD00120EB2120EB2120EA1120EA8120E9A74B9
:100FDD0001120EB214120EB2120EB2120EB2041291
:100FED000EB2120EB2120EB2120EB2120EB27B1061
:100FFD0014120EB2DBFB120EA1120EA822742812CF
:10100D000D4FEDC333FEEC33CE120D54EE120D54D5
:10101D007400120D5474E9120D4F7440120D4F757A
:10102D00B300C2A4907FE3747EF0ED4C605B907FC3
:10103D00E4740025382538F07420C39538F9EDC3D4
:10104D0099FDEC9400FCE95006E92D7C007D00FF34
:10105D002538F538C0E0B2A6907FB8E020E1FC90CD
:10106D007FE5DF02800CE590B2A6F0E590B2A6F028
:10107D00DFF4E590B2A6F0E590F0D0E0B420AB90AF
:10108D007FB923F075380080A1D2A475B3FF74C960
:10109D00120D4F227428120D4FEDC333FDEC33FCAE
:1010AD00ED120D54EC120D547400120D5474E9121E
:1010BD000D4F7460120D4F12015CED4C700674C92A
:1010CD00120D4F22907FE4745D253BF0907FE37409
:1010DD0001353CF012015CA83EA93DE84960F5E9F7
:1010ED00C39DE89C4004EDF9ECF8E9253BFBE835A0
:1010FD003CFA7401C39BFF74009AFE40064F7013B7
:10110D0002111CEB2FFBEA3EFAE92FF9E83EF87AC3
:10111D00007B008B3B8A3CC3E53D99F53DE53E9850
:10112D00F53E907FE5E8C313FAE913FBEAC313FA22
:10113D00EB13FB500AE0F590B2A6E0F590B2A6EAEB
:10114D00C313FAEB13FB5014E0F590B2A6E0F59043
:10115D00B2A6E0F590B2A6E0F590B2A6EAC313FAF6
:10116D00EB13FB5028E0F590B2A6E0F590B2A6E0A7
:10117D00F590B2A6E0F590B2A6E0F590B2A6E0F536
:10118D0090B2A6E0F590B2A6E0F590B2A6EB605253
:10119D00E0F590B2A6E0F590B2A6E0F590B2A6E02B
:1011AD00F590B2A6E0F590B2A6E0F590B2A6E0F506
:1011BD0090B2A6E0F590B2A6E0F590B2A6E0F5905B
:1011CD00B2A6E0F590B2A6E0F590B2A6E0F590B229
:1011DD00A6E0F590B2A6E0F590B2A6E0F590B2A625
:1011ED00DBAEEDC399FDEC98FC30070CE9C39440E0
:0B11FD00E50094004002C2070210C48D
:00000001FF
