:030000000201B644
:03000B000206CF1B
:0300330002018047
:0500400001FF100201A8
:100100000206DF00020779000207790002072600D5
:1001100002074F0002077900020779000207790001
:1001200002077900020779000207790002077900C7
:1001300002077900020779000207710002077900BF
:1001400002077900020779000207790002077900A7
:100150000207790002077900020779000207790097
:100160000207790002077900020779000207790087
:100170000207790002077900020779000207790077
:1001800053D8EF3290E6A3E020E22A90E690E0B464
:10019000002390E691E0B41F1C759AF0759B0075E2
:1001A0009D0A759E87781FE59CF59FD8FAD2077443
:1001B0008090E691F02275816F120BC9120279309E
:1001C0000C1FE4120D314016D20B120D0990E61AE5
:1001D000740C200D027404F0120A861208F5120342
:1001E000B63006031203E130040843870100000023
:1001F000C20430080512083D80E731843007091237
:10020000087930070312077AE55754046554606291
:100210006554F554E5567050D55557755510200B5B
:100220001CE4120D31404BD20B120D0990E61A74EA
:100230000C200D027404F0120A86020272E53312D9
:100240000D156006120D27020272C20B300C1690BB
:100250000AB07401F0A3E4F0900AC674FFF0A3F0B2
:10026000A3F01203B6020272D55607E4121026124A
:100270000D27000000000021E1C206C204C205C231
:1002800000C201C20CC20D753400D20E900040E0D5
:10029000600FD20CA3E0F9A3E0C9900AB0F0A3E983
:1002A000F0755600755400755510C20B120D097487
:1002B000FF90E65DF090E65FF0754055754153752F
:1002C0004242754353E4F553F550F551F552F53775
:1002D000F54FF55990E680E020E70C900AB3E4F082
:1002E000744078000202F1900AB37401F07400784F
:1002F00002900ACEF0C8A3F0C8900AD5F0C8A3F0C7
:10030000C890E625F0C800000090E624F0C8F53556
:100310008836C207C208D2E843D820538EF85391DA
:10032000EF90E600E054FDF090E6687408F090E687
:100330005CE04409F000000090E61274A0F090E642
:100340001474E0F0E490E610F090E611F090E613FB
:10035000F090E615F090E6187400F000000090E6CA
:1003600019F000000090E61BF000000090E61A74FF
:100370000C200D027404F000000090E6917480F0EF
:1003800000000090E6917480F000000090E6917407
:1003900080F000000090E6917480F000000090E68C
:1003A0005E7440F0D2AF90E680E04402F0758901BF
:1003B000758810D2A92290E680E04408F0F0E0446D
:1003C00002F07FDC7E051206B990E680E054F7F07B
:1003D0007E187FFF1206AB200606DFF8DEF680D619
:1003E0002290E6B9E0700B90E6B8E024DF700002DE
:1003F000042C14700302049824FE70030204F324F6
:10040000FB70030205651470030205761470030285
:1004100005921470030205A12405700302063790AB
:10042000E6B8E030E6030205B602067B90E6B8E0E7
:10043000247F60231460302402705AA205E433251F
:10044000E0FFA200E4334F90E740F0E4A3F090E631
:100450008B7402F0020682E490E740F0A3F090E68D
:100460008B7402F002068290E6BCE0F45480C4FF74
:10047000E05407200102701D2F25E024B4F5827599
:10048000837FE054FE90E740F0E4A3F090E68B74A5
:1004900002F002068202067B90E6B8E024FE6007C6
:1004A0002402604002067B90E6BAE0704390E6BC0E
:1004B000E0F45480C4FFE0540720010270322F257D
:1004C000E024B4F58275837FE4F090E6BCE05480CC
:1004D000131313541FFFE054072F90E683F0D2E567
:1004E000F002068290E6BAE0B40105C20502068277
:1004F00002067B90E6B824FE6007240260580206DC
:100500008290E6BAE0705B90E6BCE0F45480C4FFF1
:10051000E0540720010270D82F25E024B4F582753D
:10052000837F7401F0C083C08290E6BCE0548013E6
:100530001313541FFFE054072F90E683F0D2E5F029
:10054000D082D083EF20E407A37401F0020682E09A
:10055000D2E1F002068290E6BAE0B40105D20502CB
:10056000068202067B90E740E4A20133F090E68B1E
:100570007401F002068290E6BAE0600BB40110D27A
:100580000112068C020682C20112068C0206820249
:10059000067B90E740E530F0740190E68BF00206B0
:1005A000822001030205B390E6BAE0F53012068C12
:1005B00002068202067B90E6B9E0B41028E4300B14
:1005C0000E90E6BCE0F9C3E53399E44002E53490CF
:1005D000E740F0A3E533F090E68AE4F090E68B7410
:1005E00002F0020682B4114990E6BCE0B53335E56D
:1005F000567015E533120D15602A74031210267516
:100600005604121030120927121041E4900B3E7D5F
:1006100040C0E0121117EFF0A3EEF0A3D0E004DD2C
:10062000F012104590E6B3740BF0A3743EF002068E
:1006300082B4120002068290E6BBE024FE6014142D
:10064000601E2402703590E6B3740AF0A374A6F01D
:1006500002068290E6B3740AF0A374B8F002068230
:1006600090E6BAE023F9900AD893C90493C990E6BA
:10067000B3F0A3E9F002068202068290E6A0E0440D
:1006800001F090E6A0E04480F0C2062290E683E408
:100690007F08F0D2E5F0C2E505E0DFF67F087410D0
:1006A000F0D2E5F0C2E505E0DFF62275860090FBAA
:1006B00050A3E582458370F9228E318F32E53215E1
:1006C00032AE31700215314E6004D1AB80EF22059D
:1006D00057C0E0E5586005147000F558D0E032C00E
:1006E000E0C083C082C085C084C086C0D074EF5291
:1006F0009190E65D7401F090E6B8E0B42117A3E0B4
:10070000B4FF12120A54120BC375816F51B9D18212
:1007100012072521E1D206D0D0D086D084D085D052
:1007200082D083D0E032C0E0C083C082C085C08464
:10073000C086D2045391EF90E65D7408F00000008B
:100740000000D086D084D085D082D083D0E032C063
:10075000E0C083C082C085C084C0865391EF90E61C
:100760005D7410F0D086D084D085D082D083D0E064
:10077000325391EFF5A105593232754D00754E0097
:10078000754F00300B0BE5567019E533120D1570DF
:100790000574010207AC7403121026121030318464
:1007A000120927755604120BC012093DF54C300A88
:1007B00042200903120863300D1B90E6AFE0F99068
:1007C000E6B0E0F849600BE5AA20E6FB90E6487445
:1007D00006F0020835E54D454E605AC333F9E4335F
:1007E00090E698F090E699E9F090E6A5E030E2F91D
:1007F00002083520093FAD48AC49754800754900ED
:10080000E4C54FC333F9740033F84960067480902F
:10081000E691F0EDC399FDEC98FC40194D601690FF
:10082000E6A3E020E2F990E690E0F890E691E0F9A6
:100830007480F080DED208C20712083D2290E6A53F
:10084000E05409701DC20890F80079407F0DE7F070
:1008500009A3DFFA90E698E4F090E699740DF0129F
:100860000BC322AC48E549C313CC13FD740034001C
:10087000F5481211B975490022759A0A759B87903F
:10088000E67BE0B45528E0B45324E0B44220E0B461
:10089000431C79447F04E0F709DFFB7F04D209E0C1
:1008A000F76002C20909DFF7E0A2E7920A22C20755
:1008B00090E6A5E04401F090E6A3E04401F022E5D3
:1008C000AC30E1FB90E6047480F00000007402F0AC
:1008D0000000007400F0000000748090E691F000C9
:1008E000000090E691F000000090E691F00000001A
:1008F00090E691F022E533120D15602A1210417432
:1009000037900B2E7D04C0E0121117EF7002743087
:10091000F0A3A3EE70027430F0A3A3D0E004DDE6F0
:10092000121045120D2722740679A0120F5F740170
:100930007900120F5F740E7908120F5F2212018482
:100940007407120F5754886009E556740170EE74ED
:100950000122740479FF120F5F740579FF120F5F93
:10096000740779A0120F5F1201847407120F575495
:10097000806009E556740170EE74012212018474DE
:1009800007120F5754087009E556740170EE740190
:1009900022900A967E067F00120FE1120184121047
:1009A0000C701A740E120F5754087007E55670EB4E
:1009B0007401227402120F571460C180DE74071292
:1009C0000F577402120F5754037008120A1A1212AA
:1009D000A380C81470057402020A1914702F30091C
:1009E000247404120F57FC7405120F57C313CC1351
:1009F000FD7F00120F79DDF9EC60A01C80F3809B75
:100A00007402020A19120A1A1211B9808E7407129E
:100A10000F5754016003000000227404120F57FCAA
:100A20007405120F57FDD20975F0007948E7C39C91
:100A300042F0F709E79D42F0F709E7940042F0F72A
:100A400009E7940042F0F7E5F06002C209EDC31334
:100A5000CC13FD22300B2EE556602A7407120F5777
:100A600024B06021740E790C120F5F1206AB740E65
:100A70007908120F5F780079007407120F5730E77A
:070A800004D9F6D8F422228C
:100AA6001201000200000040C90A00000000010215
:100AB600030109022000010100C0320904000002FE
:100AC600080650000705860240000007050202409E
:100AD60000000AE00AE40B040B2C040309042003BB
:100AE6004D006900630072006F00200053006F0024
:100AF6006C007500740069006F006E0073002803B7
:100B06004200410043004B005000410043004B00AF
:100B160020005500530042003200200043006100CF
:100B260062006C00650012033000300030003000B7
:080B36003000300030003000F7
:100BC000D28522C28522B2852290E6007410F09070
:100BD000E60174C0F090E6C3743FF090E6C2743F43
:100BE000F090E6F37440F075B3FF75B5F075B2EFB1
:100BF000120BC375B4FF75B6FF120C852290E60187
:100C000074F2F075B54090E6C2743FF090E6C3749C
:100C100038F090E6C17400F090E6C074E4F090E61D
:100C2000F5F02290E60174C0F090E6C3743FF090B6
:100C3000E6C2743FF075B5F02204010157001101BE
:100C40005300010053003F035300040103570011F8
:100C5000035300130357003F0757000401015700D7
:100C600011015300010257001F01570006010357ED
:100C7000001303573F220353002303560027035753
:100C8000003F03570090E60174C2F07592E4787F4C
:100C90007980E4F218D9FC75921A78007980E4F230
:100CA00008D9FC900C3975921A78007904E0A36099
:100CB00013FA7B04E0A3F2E82408F8DBF7E8C39416
:100CC0001FF8DAEEE8242054E0F8D9E1787F797F44
:100CD0007A8075921AE360047592E4F21819DAF2D8
:100CE000787F797F7A8075921AE3FB7592E4E2C38C
:100CF0009B6004EBF280E91819DAEB90E6F5F090CE
:100D0000E60174C0F075920022C20DE534C3940E62
:100D10004002D20D22F533120D5274004008300DFE
:100D200003120BFD740122300D03120C23120DC7A8
:100D300022F533120D5250080533E53370F5D322F6
:100D4000121014F534300D03120BFD120D27E5338C
:100D5000C32275B000759062120DC6759070120DA9
:100D6000C6E533F590120DC6F4F590120DC6D2B754
:100D7000120DC643B070120DC6759004200D037598
:100D80009003120DC67470F5B0120DC67450F5B014
:100D9000120DC6E5B0540F300D06B40C27020DA39A
:100DA000B40B217470F5B0120DC6E5B0540F300DC0
:100DB00008B4031074B0020DBEB4040874F0F5B0AA
:100DC000C3020DC5D32222300D03D2B62275B00066
:100DD000227558FAE5BB20E70AE55670F774FF90D4
:100DE000E6F5F07558002280E8E5BB30E7F922759A
:100DF00032FFE5BB20E723C0E0D0E0C0E0D0E0C098
:100E0000E0D0E0C0E0D0E0D532E874FF90E6F5F045
:100E100090E698EEF090E699EFF022300D29C0832D
:100E2000C082C085C084C086C0E090E6F37440F004
:100E3000D0E090E6F1F0000000120DD1D086D08411
:100E4000D085D082D08322F590B2B522300D29C052
:100E500083C082C085C084C086C0E090E6F374C0C1
:100E6000F0D0E090E6F1F0000000120DD1D086D075
:100E700084D085D082D08322F590B2B622300D2363
:100E8000C083C082C085C084C08690E6F1E00000C7
:100E900000120DD190E6F2E0D086D084D085D082C9
:100EA000D0832275B300B2B6C2B4E590D2B475B3A4
:100EB000FF22300D2BC083C082C085C084C0860550
:100EC0008690E6F1E0000000120DD190E6F2E00518
:100ED00086F0A3DFEAD086D084D085D082D083226A
:100EE000E583F59AE582F59B75B300C2B4B2B61FEF
:100EF000120DC6E590F59CB2B6DFF5120DC6E59071
:100F0000F59CD2B475B3FF22C083C082C085C08473
:100F1000C086300D27058690E6F374C0F00586E0A4
:100F2000A3058690E6F1F0000000120DD10586DFE2
:100F3000E4D086D084D085D082D08322E583F59A10
:100F4000E582F59BE59CF590B2B6DFF8D086D084BB
:100F5000D085D082D083224440120E1B020E7D44E5
:100F600060120E1BE9020E4C4400120E1B020E7D95
:100F70004420120E1BE9020E4C74E1120E1BEF44CA
:100F800040120E1B120E7DCF4440120E1B120E7D1E
:100F9000FE74C1120E1B2274E1120E1BEF4460128C
:100FA0000E1BED120E4CEF4460120E1BEE120E4C97
:100FB00074C1120E1B227428120E1BEE23FE120E99
:100FC0004C7400120E4C7400120E4C74E9120E1B7D
:100FD000EF4440120E1BEEFF120EB274C9120E1B2C
:100FE000227428120E1BEE23FE120E4C7400120EF9
:100FF0004C7400120E4C74E9120E1BEF4460120E7A
:101000001BEEFF120F0874C9120E1B227400120F80
:10101000685401227401120F68543F227401120FA8
:101020006854C023232254030303F97401020F7090
:10103000227406020F68C0E0F97406120F70D0E047
:1010400022740880F1740080ED121031440480E6AF
:1010500012103154FB80DF12104912108660FB80A1
:10106000EFC0E0C0F0540160027402F5F0121031DC
:1010700054FC45F0121036440112103654FE121082
:1010800036D0F0D0E0227400120F68544060027431
:101090000122121049740112106114121061121011
:1010A00061041210611210611210611210611210AD
:1010B0006112106112105022121049740112106155
:1010C000141210611210611210611210611210617D
:1010D00012106112106112106112105022C0E01241
:1010E0001049740112106174001210617401121021
:1010F00061D0E02323237B0612106123DBFAEE7B11
:101100000823121061DBFAEF7B0823121061DBFA6F
:1011100012105012105722C0E01210497401121020
:101120006112106114121061D0E02323237B061298
:10113000106123DBFA7B08C0E0740012106112100A
:101140008613D0E033DBF0FE7B08C0E074001210A1
:101150006112108613D0E033DBF0FF121050221220
:1011600010497401121061141210611210610412FE
:1011700010611412106112106112106112106112CC
:1011800010611210501210571210497401121061A0
:101190001412106112106112106104121061121009
:1011A000611210611210611210617B101412106133
:1011B000DBFB121050121057227428120E1BEDC3C5
:1011C00033FFEC33FEEF120E4CEE120E4C74001295
:1011D0000E4C74E9120E1B7440120E1B300D209041
:1011E000E6E37400F090E6D0EEF090E6D1EFF090F8
:1011F000E6E4E0000000120DE774C9120E1B227530
:10120000B300C2B4ED4C700BD2B475B3FF74C91205
:101210000E1B22E54D254DF8E54E354EC82400F550
:101220009BE834F8F59AE536C313F8E53513C39512
:101230004DF9FBE8954EF8FAEDC399EC9840097525
:101240004D00754E00021254EDFB254DF54DECFAA4
:10125000354EF54EEDC39BFDEC9AFCB2B690E6A57B
:10126000E020E3FCEBC39401FBEA9400FA4B60142A
:10127000E590B2B6F59CE590B2B6F59CDBF2EA607B
:10128000031A80ECE590B2B6F59CE590F59CE54D2F
:10129000454E700C90E698E536F090E699E535F00D
:1012A0000212047428120E1BEDC333FFEC33FEEF61
:1012B000120E4CEE120E4C7400120E4C74E9120E0B
:1012C0001B7460120E1B300D3290E6D37400F09048
:1012D000E6D0EEF090E6D1EFF07400F5BB00000030
:1012E0007532FFE5AA5401700790E691F000000006
:1012F000E5BB30E7EE74C9120E1B22E54F602BFAF6
:10130000E59FF590B2B600E59FF590B2B600DAF031
:10131000748090E691F074F0F59D7400F59EEDC335
:10132000954FFDEC9400FC754F0074F0F59D740032
:10133000F59EEC604B7A4090E6A3E020E2FCE59F4E
:10134000F590B2B6E59FF590B2B6E59FF590B2B6CE
:10135000E59FF590B2B6E59FF590B2B6E59FF590A2
:10136000B2B6E59FF590B2B6E59FF590B2B6DACE8B
:10137000748090E691F074F0F59D7400F59EDCB5F4
:10138000ED603990E6A3E020E2FC90E690E0C31324
:10139000FA90E691E013C39DF54FE59FF590B2B644
:1013A00000E59FF590B2B600DDF0E54F700E748059
:1013B00090E691F074F0F59D7400F59E74C9120EDC
:0213C0001B22EE
:00000001FF
