:030000000201B644
:03000B000206CF1B
:0300330002018047
:0500400001FF100201A8
:100100000206DF00020779000207790002072600D5
:1001100002074F0002077900020779000207790001
:1001200002077900020779000207790002077900C7
:1001300002077900020779000207710002077900BF
:1001400002077900020779000207790002077900A7
:100150000207790002077900020779000207790097
:100160000207790002077900020779000207790087
:100170000207790002077900020779000207790077
:1001800053D8EF3290E6A3E020E22A90E690E0B464
:10019000002390E691E0B41F1C759AF0759B0075E2
:1001A0009D0A759E87781FE59CF59FD8FAD2077443
:1001B0008090E691F02275816F1210DF1202793083
:1001C0000C1FE4120BD24016D20B120BC090E61A91
:1001D000740C200D027404F0120A861208F5120342
:1001E000B63006031203E130040843870100000023
:1001F000C20430080512083D80E731843007091237
:10020000087930070312077AE55754046554606291
:100210006554F554E5567050D55557755510200B5B
:100220001CE4120BD2404BD20B120BC090E61A7496
:100230000C200D027404F0120A86020272E53312D9
:100240000BC26006120BCE020272C20B300C16906B
:100250000AB07401F0A3E4F0900AC674FFF0A3F0B2
:10026000A3F01203B6020272D55607E4120D7E12F5
:100270000BCE000000000021E1C206C204C205C28C
:1002800000C201C20CC20D753400D20E900040E0D5
:10029000600FD20CA3E0F9A3E0C9900AB0F0A3E983
:1002A000F0755600755400755510C20B120BC074D2
:1002B000FF90E65DF090E65FF0754055754153752F
:1002C0004242754353E4F553F550F551F552F53775
:1002D000F54FF55990E680E020E70C900AB3E4F082
:1002E000744078000202F1900AB37401F07400784F
:1002F00002900ACEF0C8A3F0C8900AD5F0C8A3F0C7
:10030000C890E625F0C800000090E624F0C8F53556
:100310008836C207C208D2E843D820538EF85391DA
:10032000EF90E600E054FDF090E6687408F090E687
:100330005CE04409F000000090E61274A0F090E642
:100340001474E0F0E490E610F090E611F090E613FB
:10035000F090E615F090E6187400F000000090E6CA
:1003600019F000000090E61BF000000090E61A74FF
:100370000C200D027404F000000090E6917480F0EF
:1003800000000090E6917480F000000090E6917407
:1003900080F000000090E6917480F000000090E68C
:1003A0005E7440F0D2AF90E680E04402F0758901BF
:1003B000758810D2A92290E680E04408F0F0E0446D
:1003C00002F07FDC7E051206B990E680E054F7F07B
:1003D0007E187FFF1206AB200606DFF8DEF680D619
:1003E0002290E6B9E0700B90E6B8E024DF700002DE
:1003F000042C14700302049824FE70030204F324F6
:10040000FB70030205651470030205761470030285
:1004100005921470030205A12405700302063790AB
:10042000E6B8E030E6030205B602067B90E6B8E0E7
:10043000247F60231460302402705AA205E433251F
:10044000E0FFA200E4334F90E740F0E4A3F090E631
:100450008B7402F0020682E490E740F0A3F090E68D
:100460008B7402F002068290E6BCE0F45480C4FF74
:10047000E05407200102701D2F25E024B4F5827599
:10048000837FE054FE90E740F0E4A3F090E68B74A5
:1004900002F002068202067B90E6B8E024FE6007C6
:1004A0002402604002067B90E6BAE0704390E6BC0E
:1004B000E0F45480C4FFE0540720010270322F257D
:1004C000E024B4F58275837FE4F090E6BCE05480CC
:1004D000131313541FFFE054072F90E683F0D2E567
:1004E000F002068290E6BAE0B40105C20502068277
:1004F00002067B90E6B824FE6007240260580206DC
:100500008290E6BAE0705B90E6BCE0F45480C4FFF1
:10051000E0540720010270D82F25E024B4F582753D
:10052000837F7401F0C083C08290E6BCE0548013E6
:100530001313541FFFE054072F90E683F0D2E5F029
:10054000D082D083EF20E407A37401F0020682E09A
:10055000D2E1F002068290E6BAE0B40105D20502CB
:10056000068202067B90E740E4A20133F090E68B1E
:100570007401F002068290E6BAE0600BB40110D27A
:100580000112068C020682C20112068C0206820249
:10059000067B90E740E530F0740190E68BF00206B0
:1005A000822001030205B390E6BAE0F53012068C12
:1005B00002068202067B90E6B9E0B41028E4300B14
:1005C0000E90E6BCE0F9C3E53399E44002E53490CF
:1005D000E740F0A3E533F090E68AE4F090E68B7410
:1005E00002F0020682B4114990E6BCE0B53335E56D
:1005F000567015E533120BC2602A7403120D7E7516
:100600005604120D91120927120DAEE4900B3E7D97
:1006100040C0E0120E8AEFF0A3EEF0A3D0E004DDBC
:10062000F0120DB590E6B3740BF0A3743EF0020621
:1006300082B4120002068290E6BBE024FE6014142D
:10064000601E2402703590E6B3740AF0A374A6F01D
:1006500002068290E6B3740AF0A374B8F002068230
:1006600090E6BAE023F9900AD893C90493C990E6BA
:10067000B3F0A3E9F002068202068290E6A0E0440D
:1006800001F090E6A0E04480F0C2062290E683E408
:100690007F08F0D2E5F0C2E505E0DFF67F087410D0
:1006A000F0D2E5F0C2E505E0DFF62275860090FBAA
:1006B00050A3E582458370F9228E318F32E53215E1
:1006C00032AE31700215314E6004D1AB80EF22059D
:1006D00057C0E0E5586005147000F558D0E032C00E
:1006E000E0C083C082C085C084C086C0D074EF5291
:1006F0009190E65D7401F090E6B8E0B42117A3E0B4
:10070000B4FF12120A541210D975816F51B9D182F7
:1007100012072521E1D206D0D0D086D084D085D052
:1007200082D083D0E032C0E0C083C082C085C08464
:10073000C086D2045391EF90E65D7408F00000008B
:100740000000D086D084D085D082D083D0E032C063
:10075000E0C083C082C085C084C0865391EF90E61C
:100760005D7410F0D086D084D085D082D083D0E064
:10077000325391EFF5A105593232754D00754E0097
:10078000754F00300B0BE5567019E533120BC27034
:100790000574010207AC7403120D7E120D913184B1
:1007A0001209277556041210D612093DF54C300A6D
:1007B00042200903120863300D1B90E6AFE0F99068
:1007C000E6B0E0F849600BE5AA20E6FB90E6487445
:1007D00006F0020835E54D454E605AC333F9E4335F
:1007E00090E698F090E699E9F090E6A5E030E2F91D
:1007F00002083520093FAD48AC49754800754900ED
:10080000E4C54FC333F9740033F84960067480902F
:10081000E691F0EDC399FDEC98FC40194D601690FF
:10082000E6A3E020E2F990E690E0F890E691E0F9A6
:100830007480F080DED208C20712083D2290E6A53F
:10084000E05409701DC20890F80079407F0DE7F070
:1008500009A3DFFA90E698E4F090E699740DF0129F
:1008600010D922AC48E549C313CC13FD7400340001
:10087000F548120F2C75490022759A0A759B8790CE
:10088000E67BE0B45528E0B45324E0B44220E0B461
:10089000431C79447F04E0F709DFFB7F04D209E0C1
:1008A000F76002C20909DFF7E0A2E7920A22C20755
:1008B00090E6A5E04401F090E6A3E04401F022E5D3
:1008C000AC30E1FB90E6047480F00000007402F0AC
:1008D0000000007400F0000000748090E691F000C9
:1008E000000090E691F000000090E691F00000001A
:1008F00090E691F022E533120BC2602A120DAE741D
:1009000037900B2E7D04C0E0120E8AEF7002743017
:10091000F0A3A3EE70027430F0A3A3D0E004DDE6F0
:10092000120DB5120BCE22740679A0120CB9740107
:100930007900120CB9740E7908120CB922120184D4
:100940007407120CB254886009E556740170EE7495
:100950000122740479FF120CB9740579FF120CB9E5
:10096000740779A0120CB91201847407120CB254E6
:10097000806009E556740170EE74012212018474DE
:1009800007120CB254087009E556740170EE740138
:1009900022900A967E067F00120D51120184120DDC
:1009A0006C701A740E120CB254087007E55670EB96
:1009B0007401227402120CB21460C180DE7407123A
:1009C0000CB27402120CB254037008120A1A1210FC
:1009D0000180C81470057402020A1914702F3009BE
:1009E000247404120CB2FC7405120CB2C313CC13A1
:1009F000FD7F00120CD8DDF9EC60A01C80F3809B19
:100A00007402020A19120A1A120F2C808E7407122D
:100A10000CB254016003000000227404120CB2FCFA
:100A20007405120CB2FDD20975F0007948E7C39C39
:100A300042F0F709E79D42F0F709E7940042F0F72A
:100A400009E7940042F0F7E5F06002C209EDC31334
:100A5000CC13FD22300B2EE556602A7407120CB21F
:100A600024B06021740E790C120CB91206AB740E0E
:100A70007908120CB9780079007407120CB230E7CB
:070A800004D9F6D8F422228C
:100AA6001201000200000040C90A00000000010215
:100AB600030109022000010100C0320904000002FE
:100AC600080650000705860240000007050202409E
:100AD60000000AE00AE40B040B2C040309042003BB
:100AE6004D006900630072006F00200053006F0024
:100AF6006C007500740069006F006E0073002803B7
:100B06004200410043004B005000410043004B00AF
:100B160020005500530042003200200043006100CF
:100B260062006C00650012033000300030003000B7
:080B36003000300030003000F7
:100BC000E422F533120BF074004002740122120C7F
:100BD0004322F533120C43120BF050080533E53372
:100BE00070F5D322120CD0F534120BCEE533C322AC
:100BF000E533F4F59075B0F0120C3EF4F590120C5C
:100C00003EB2B7120C3EB2B7120C3EB2B7120C3E57
:100C1000C2B5E533540765B054077020D2B5E5334B
:100C2000F4540765B054077013D2B7C0017910743B
:100C300004120CC8D001C3E533020C3DD322C0011D
:100C4000D00122C2B7120C3E75B00022C2B4F5909A
:100C5000120C3EB2B522C2B4F590B2B622D2B4752F
:100C6000B300B2B6120C3EE590C2B475B3FF22D207
:100C7000B4E583F59AE582F59B75B300B2B61F1211
:100C80000C3EE590F59CB2B6DFF5120C3EE590F512
:100C90009CC2B475B3FF058622C2B4E583F59AE51C
:100CA00082F59B120C3EE59CF59000B2B6DFF40590
:100CB00086224440120C4C80A44440120C4CE98023
:100CC000954400120C4C80954400120C4CE980862F
:100CD000740B120CC1543F2279507404120CC8EFEB
:100CE0004440120C4C120C5DCF4440120C4C120CC0
:100CF0005DFE79107404120CC82279507404120C31
:100D0000C8EF4440120C4CED120C56EF4440120C4C
:100D10004CEE120C5679107404120CC822EE23FE0D
:100D2000E534B405127438120C4CEE120C567400F3
:100D3000120C5674104FFF79507404120CC8EF4413
:100D400040120C4CEEFF120C6F79107404120CC898
:100D50002279507404120CC8EF4440120C4CEE235C
:100D6000FF120C9979107404120CC822740B120C27
:100D7000C15480227405120CC154C0232322540391
:100D80000303F97405120CC1543F49F97405020CB0
:100D9000C87405120CC14408F97405020CC8740625
:100DA000020CC1C0E0F97406120CC8D0E022120D8A
:100DB0009E440880EE120D9E54F780E7120D9E446B
:100DC0000480E0120D9E54FB80D9120DBC120DF967
:100DD00060FB80EFC0E0C0F0540160027402F5F0E7
:100DE000120D9E54FC45F0120DA34401120DA354A4
:100DF000FE120DA3D0F0D0E0227400120CC154807A
:100E00006002740122120DBC7401120DD414120D73
:100E1000D4120DD404120DD4120DD4120DD4120D0F
:100E2000D4120DD4120DD4120DC322120DBC7401B4
:100E3000120DD414120DD4120DD4120DD4120DD4DF
:100E4000120DD4120DD4120DD4120DD4120DC322D2
:100E5000C0E0120DBC7401120DD47400120DD474D4
:100E600001120DD4D0E02323237B06120DD423DB03
:100E7000FAEE7B0823120DD4DBFAEF7B0823120D68
:100E8000D4DBFA120DC3120DCA22C0E0120DBC74DD
:100E900001120DD4120DD414120DD4D0E02323234B
:100EA0007B06120DD423DBFA7B08C0E07400120D20
:100EB000D4120DF913D0E033DBF0FE7B08C0E074F0
:100EC00000120DD4120DF913D0E033DBF0FF120D38
:100ED000C322120DBC7401120DD414120DD4120DC4
:100EE000D404120DD414120DD4120DD4120DD41238
:100EF0000DD4120DD4120DC3120DCA120DBC740103
:100F0000120DD414120DD4120DD4120DD404120DDE
:100F1000D4120DD4120DD4120DD4120DD47B101492
:100F2000120DD4DBFB120DC3120DCA22E534B40539
:100F3000137438120C4CEDC333FEEC33CE120C5646
:100F4000EE120C5679507404120CC87440A934B9CE
:100F500005024410120C4CD2B475B300ED4C700D68
:100F6000C2B475B3FF79107404120CC822E54D2584
:100F70004DF8E54E354EC82400F59BE834F8F59A57
:100F8000E536C313F8E53513C3954DF9FBE8954EE7
:100F9000F8FAEDC399EC984009754D00754E0002C2
:100FA0000FAEEDFB254DF54DECFA354EF54EEDC38C
:100FB0009BFDEC9AFCB2B690E6A5E020E3FCEBC307
:100FC0009401FBEA9400FA4B6017E590B2B6F59CE9
:100FD00000E590B2B6F59C0000DBEFEA60031A80F2
:100FE000E9E590B2B6F59C00E590F59CE54D454EDF
:100FF000700C90E698E536F090E699E535F0020F32
:101000005C79507404120CC87440120C4CC2B4E5E4
:101010004F6029FAE59FF590B2B6E59FF590B2B61C
:10102000DAF2748090E691F074F0F59D7400F59E0C
:10103000EDC3954FFDEC9400FC754F0074F0F59DE9
:101040007400F59E7B00EC604B7A4090E6A3E020B4
:10105000E2FCE59FF590B2B6E59FF590B2B6E59F4C
:10106000F590B2B6E59FF590B2B6E59FF590B2B6B1
:10107000E59FF590B2B6E59FF590B2B6E59FF59085
:10108000B2B6DACE748090E691F074F0F59D7400FB
:10109000F59EDCB5ED603790E6A3E020E2FC90E63B
:1010A00090E0C313FA90E691E013C39DF54FE59FDE
:1010B000F590B2B6E59FF590B2B6DDF2E54F700E51
:1010C000748090E691F074F0F59D7400F59E7910AF
:1010D0007404120CC822D28522C28522B2852290C5
:1010E000E6007410F090E60174C0F090E6C3743F1F
:1010F000F090E6C2743FF090E6F37440F075B3FFF1
:1011000075B5F075B2EF1210D975B4FF75B6FF1250
:10111000119B2290E60174F2F075B54090E6C2741E
:101120003FF090E6C37438F090E6C17400F090E6AA
:10113000C074E4F090E6F5F02290E60174C0F090FF
:10114000E6C3743FF090E6C2743FF075B5F0220438
:101150000101570011015300010053003F035300E8
:10116000040103570011035300130357003F0757AF
:1011700000040101570011015300010257001F0133
:10118000570006010357001303573F220353002360
:10119000035600270357003F03570090E60174C22F
:1011A000F07592E4787F7980E4F218D9FC75921A90
:1011B00078007980E4F208D9FC90114F75921A7882
:1011C000007904E0A36013FA7B04E0A3F2E82408AA
:1011D000F8DBF7E8C3941FF8DAEEE8242054E0F8CF
:1011E000D9E1787F797F7A8075921AE360047592ED
:1011F000E4F21819DAF2787F797F7A8075921AE32F
:10120000FB7592E4E2C39B6004EBF280E91819DA03
:0F121000EB90E6F5F090E60174C0F075920022C5
:00000001FF
