:030000000201B644
:03000B000206E802
:0300330002018047
:0500400001FF100201A8
:100100000206F800020792000207920002073F0071
:10011000020768000207920002079200020792009D
:100120000207920002079200020792000207920063
:10013000020792000207920002078A00020792005B
:100140000207920002079200020792000207920043
:100150000207920002079200020792000207920033
:100160000207920002079200020792000207920023
:100170000207920002079200020792000207920013
:1001800053D8EF3290E6A3E020E22A90E690E0B464
:10019000002390E691E0B41F1C759AF0759B0075E2
:1001A0009D0E759EE1781FE59CF59FD8FAD20774E5
:1001B0008090E691F02275816F1216DC1202793080
:1001C0000C1FE41210424016D20B12101A90E61ABD
:1001D000740C200D027404F0120B8F12090E12031E
:1001E000C73006031203F230040843870100000001
:1001F000C20430080512085680E73184300709121E
:100200000892300703120793E5575404655460625F
:100210006554F554E5567050D55557755510200B5B
:100220001CE4121042404BD20B12101A90E61A74C2
:100230000C200D027404F0120B8F020272E53312CF
:1002400010266006121038020272C20B300C169093
:100250000F0A7401F0A3E4F0900F2074FFF0A3F0F4
:10026000A3F01203C7020272D55607E41213371225
:100270001038000000000021E1C206C204C205C21D
:1002800000C201C20CC20D753400D20E900040E0D5
:10029000600FD20CA3E0F9A3E0C9900F0AF0A3E924
:1002A000F0755600755400755510C20B12101A7473
:1002B000FF90E65DF090E65FF0754055754153752F
:1002C0004242754353E4F553F550F551F552F53B71
:1002D000F54FF55990E680E020E70C900F0DE4F023
:1002E000744078000202F1900F0D7401F0740078F0
:1002F00002900F28F0C8A3F0C8900F2FF0C8A3F009
:10030000C890E625F0C800000090E624F0C8F53556
:100310008836C210753901753AFF753818755A0C50
:10032000755B7FC207C208D2E843D820538EF853CA
:1003300091EF90E600E054FDF090E6687408F090CC
:10034000E65CE04409F000000090E61274A0F09032
:10035000E61474E0F0E490E610F090E611F090E618
:1003600013F090E615F090E6187400F0000000908D
:10037000E619F000000090E61BF000000090E61A7D
:10038000740C200D027404F000000090E69174805B
:10039000F000000090E6917480F000000090E6917B
:1003A0007480F000000090E6917480F000000090EE
:1003B000E65E7440F0D2AF90E680E04402F07589CA
:1003C00001758810D2A92290E680E04408F0F0E0A0
:1003D0004402F07FDC7E051206D290E680E054F7FE
:1003E000F07E187FFF1206C4200606DFF8DEF680D6
:1003F000D62290E6B9E0700B90E6B8E024DF7000FA
:1004000002043D1470030204A924FE7003020504D3
:1004100024FB700302057614700302058714700331
:100420000205A31470030205B224057003020650EE
:1004300090E6B8E030E6030205C702069490E6B8FD
:10044000E0247F60231460302402705AA205E43354
:1004500025E0FFA200E4334F90E740F0E4A3F090E2
:10046000E68B7402F002069BE490E740F0A3F09064
:10047000E68B7402F002069B90E6BCE0F45480C464
:10048000FFE05407200102701D2F25E024B4F582FF
:1004900075837FE054FE90E740F0E4A3F090E68B94
:1004A0007402F002069B02069490E6B8E024FE6017
:1004B000072402604002069490E6BAE0704390E69A
:1004C000BCE0F45480C4FFE0540720010270322FD6
:1004D00025E024B4F58275837FE4F090E6BCE05417
:1004E00080131313541FFFE054072F90E683F0D2BC
:1004F000E5F002069B90E6BAE0B40105C2050206EB
:100500009B02069490E6B824FE600724026058021D
:10051000069B90E6BAE0705B90E6BCE0F45480C4C1
:10052000FFE0540720010270D82F25E024B4F582A3
:1005300075837F7401F0C083C08290E6BCE0548074
:10054000131313541FFFE054072F90E683F0D2E5F6
:10055000F0D082D083EF20E407A37401F002069B61
:10056000E0D2E1F002069B90E6BAE0B40105D205C4
:1005700002069B02069490E740E4A20133F090E665
:100580008B7401F002069B90E6BAE0600BB4011098
:10059000D2011206A502069BC2011206A502069B05
:1005A00002069490E740E530F0740190E68BF0028B
:1005B000069B2001030205C490E6BAE0F53012065E
:1005C000A502069B02069490E6B9E0B41028E43038
:1005D0000B0E90E6BCE0F9C3E53399E44002E53444
:1005E00090E740F0A3E533F090E68AE4F090E68BE4
:1005F0007402F002069BB4114990E6BCE0B53335B5
:10060000E5567015E533121026602A74031213376D
:10061000755604121341120940121352E4900F98B8
:100620007D40C0E0121428EFF0A3EEF0A3D0E00468
:10063000DDF012135690E6B3740FF0A37498F00235
:10064000069BB4120890E6BCE0F538D20E02069B79
:1006500090E6BBE024FE601414601E240270359006
:10066000E6B3740FF0A37400F002069B90E6B37437
:100670000FF0A37412F002069B90E6BAE023F99003
:100680000F3293C90493C990E6B3F0A3E9F00206D0
:100690009B02069B90E6A0E04401F090E6A0E044B7
:1006A00080F0C2062290E683E47F08F0D2E5F0C233
:1006B000E505E0DFF67F087410F0D2E5F0C2E5054D
:1006C000E0DFF62275860090FB50A3E5824583703B
:1006D000F9228E318F32E5321532AE31700215318A
:1006E0004E6004D1C480EF220557C0E0E558600594
:1006F000147000F558D0E032C0E0C083C082C085DD
:10070000C084C086C0D074EF529190E65D7401F051
:1007100090E6B8E0B42117A3E0B4FF12120C7E12E9
:1007200016D675816F51B9D19B12073E21E1D206D1
:10073000D0D0D086D084D085D082D083D0E032C0D3
:10074000E0C083C082C085C084C086D2045391EFCC
:1007500090E65D7408F00000000000D086D084D0E0
:1007600085D082D083D0E032C0E0C083C082C08513
:10077000C084C0865391EF90E65D7410F0D086D0AF
:1007800084D085D082D083D0E0325391EFF5A1059B
:10079000593232754D00754E00754F00300B0BE528
:1007A000567019E533121026700574010207C574DE
:1007B0000312133712134131841209407556041283
:1007C00016D312097CF54C300A4220090312087C2A
:1007D000300D1B90E6AFE0F990E6B0E0F849600B11
:1007E000E5AA20E6FB90E6487406F002084EE54DC7
:1007F000454E605AC333F9E43390E698F090E69999
:10080000E9F090E6A5E030E2F902084E20093FAD9C
:1008100048AC49754800754900E4C54FC333F974C5
:100820000033F8496006748090E691F0EDC399FDBD
:10083000EC98FC40194D601690E6A3E020E2F99098
:10084000E690E0F890E691E0F97480F080DED2085E
:10085000C2071208562290E6A5E05409701DC2088E
:1008600090F80079407F0DE7F009A3DFFA90E69851
:10087000E4F090E699740DF01216D622AC48E549E2
:10088000C313CC13FD74003400F5481214CA754923
:100890000022759A0E759BE190E67BE0B45528E046
:1008A000B45324E0B44220E0B4431C79447F04E014
:1008B000F709DFFB7F04D209E0F76002C20909DF14
:1008C000F7E0A2E7920A22C20790E6A5E04401F011
:1008D00090E6A3E04401F022E5AC30E1FB90E604B1
:1008E0007480F00000007402F00000007400F0005A
:1008F0000000748090E691F000000090E691F00016
:10090000000090E691F000000090E691F022E533BF
:10091000121026602A1213527437900F887D04C07B
:10092000E0121428EF70027430F0A3A3EE7002748A
:1009300030F0A3A3D0E004DDE612135612103822E3
:10094000740679A0121270200E0A7402121268C383
:1009500094806027C20EA938740212127079E37471
:1009600007121270120B53301011A93974021212AF
:100970007079C67407121270120B5322900EF0E0B9
:10098000B4280F3010067537C4020A4375372002A9
:100990000A43B42F06753740020A43B42A0F3010B9
:1009A000067537C5020A43753730020A43B4120A86
:1009B000900CB57C007D240209F0B4250A900CD976
:1009C0007C007D080209F0B40317758600855A8300
:1009D000855B827C007D121209F0755A0C755B7F75
:1009E00022B40003740022755A0C755B91740122C5
:1009F000058611D80586120B8A120B6205867A00CD
:100A00007B0090F8000586E0A30586F0A3EB2401A7
:100A1000FBEA3400FAEDC39401FDEC9400FC4D6058
:100A200008EAB536E0EBB535DC90E698EAF090E6FA
:100A300099EBF0000000E5AA30E4FBEC4D70BF0537
:100A400086E422120B53300F27900EF2E044E0F9B7
:100A50007406121270A3E0F97405121270A3E0F983
:100A60007404121270A3E0F97403121270020ABA2D
:100A7000200947900EF3E0F9A3E0FAA3E0FBAC5D98
:100A8000120C69C002C00305F0A9F07403121270C1
:100A9000D003D0027900AC5C120C69C002C00353D1
:100AA000F00F43F0A0A9F07406121270D001740484
:100AB000121270D0017405121270E54A454B601392
:100AC000794AE7C39401F709E79400F774807B0043
:100AD000020AE1C3E54913606E7B00754900754A5F
:100AE00000F9FA7402121270900EF5E02AF0900EDE
:100AF000F4E03BF0900EF3E03400F0900EF2E034BE
:100B000000F0120B5330E6FAA93774071212701274
:100B10000B5330E6FA20E01C30E3F4AC397D00E5FD
:100B20003A5A7002EAFCEAC39CC0E0300A0A121486
:100B3000CA020B3B053B80CA1215B4D0E0FA7B0019
:100B400070CD120B534143D2097402798012127096
:100B5000740022740712126830E706E556740170BB
:100B6000F222D20975F0007948E7C39D42F0F709F7
:100B7000E79C42F0F709E7940042F0F709E7940098
:100B800042F0F7E5F06002C20922AD48AC4922E527
:100B90003312102670012212134174031213377995
:100BA000A0740612127071537407121268544060D8
:100BB000F779EC74071212707153740712126854AB
:100BC0000860F5758600900CE17F007E701212C7F8
:100BD0007A907F0012128ADAF9900CD9058675F0A6
:100BE00000900D5BE042F0FAA3E042F00586F0A32E
:100BF000EAF0A30586900D59E042F0FAA3E042F036
:100C00000586F0A3EAF0E5F06005D20F020C49C2B8
:100C10000F900CD9058675F000900D55E042F0FA62
:100C2000A3E042F00586F0A3EAF0A30586900D53F9
:100C3000E042F0FAA3E042F00586F0A3EAF0900D5E
:100C40004FE0F55CA3A3E0F55DD210900D3FE030DE
:100C5000E70274407004C2107401F53914F4F53AD7
:100C60007400121337121038227D11E98CF084A918
:100C7000F013EB33FBEA33FAE933F9DDEE222270AD
:100C80000000000000000000000000000000000064
:100C900000700005000000000000000000240000BB
:100CA000000000F00002000000000000000000044E
:100CB0000100000000000000001F0000004241434E
:100CC0004B5041434B486172642044726976652001
:100CD0002020202020312E303000000000000002B3
:010CE0000013
:100F00001201000200000040C90A000000000102B6
:100F1000030109022000010100C03209040000029F
:100F2000080650000705860240000007050202403F
:100F300000000F3A0F3E0F5E0F86040309042003E2
:100F40004D006900630072006F00200053006F00C5
:100F50006C007500740069006F006E007300280358
:100F60004200410043004B005000410043004B0051
:100F70002000550053004200320020004300610071
:100F800062006C0065001203300030003000300059
:080F9000300030003000300099
:10101A00C20DE534C3940E4002D20D22F5331210EC
:10102A006374004008300D03121710740122300D4A
:10103A00031217361210D822F5331210635008051E
:10104A0033E53370F5D322121325F534300D03122C
:10105A001710121038E533C32275B000759062126A
:10106A0010D77590701210D7E533F5901210D7F497
:10107A00F5901210D7D2B71210D743B0701210D70A
:10108A00759004200D037590031210D77470F5B093
:10109A001210D77450F5B01210D7E5B0540F300DB6
:1010AA0006B40C270210B4B40B217470F5B01210F8
:1010BA00D7E5B0540F300D08B4031074B00210CF46
:1010CA00B4040874F0F5B0C30210D6D32222300D4E
:1010DA0003D2B62275B000227558FAE5BB20E70A9A
:1010EA00E55670F774FF90E6F5F07558002280E82F
:1010FA00E5BB30E7F9227532FFE5BB20E723C0E004
:10110A00D0E0C0E0D0E0C0E0D0E0C0E0D0E0D5322E
:10111A00E874FF90E6F5F090E698EEF090E699EF25
:10112A00F022300D29C083C082C085C084C086C029
:10113A00E090E6F37440F0D0E090E6F1F0000000B1
:10114A001210E2D086D084D085D082D08322F59046
:10115A00B2B522300D29C083C082C085C084C08642
:10116A00C0E090E6F374C0F0D0E090E6F1F0000041
:10117A00001210E2D086D084D085D082D08322F5A6
:10118A0090B2B622300D23C083C082C085C084C00D
:10119A008690E6F1E00000001210E290E6F2E0D05C
:1011AA0086D084D085D082D0832275B300B2B6C2ED
:1011BA00B4E590D2B475B3FF22300D2BC083C08240
:1011CA00C085C084C086058690E6F1E00000001262
:1011DA0010E290E6F2E00586F0A3DFEAD086D0843A
:1011EA00D085D082D08322E583F59AE582F59B7576
:1011FA00B300C2B4B2B61F1210D7E590F59CB2B6CE
:10120A00DFF51210D7E590F59CD2B475B3FF22C072
:10121A0083C082C085C084C086300D27058690E6CB
:10122A00F374C0F00586E0A3058690E6F1F00000AD
:10123A00001210E20586DFE4D086D084D085D08201
:10124A00D08322E583F59AE582F59BE59CF590B279
:10125A00B6DFF8D086D084D085D082D083224440AD
:10126A0012112C02118E446012112CE902115D44F4
:10127A000012112C02118E442012112CE902115D68
:10128A0074E112112CEF444012112C12118ECF442A
:10129A004012112C12118EFE74C112112C2274E10B
:1012AA0012112CEF446012112CED12115DEF446003
:1012BA0012112CEE12115D74C112112C2274281213
:1012CA00112CEE23FE12115D740012115D740012CE
:1012DA00115D74E912112CEF444012112CEEFF1229
:1012EA0011C374C912112C22742812112CEE23FE78
:1012FA0012115D740012115D740012115D74E9120D
:10130A00112CEF446012112CEEFF12121974C9123B
:10131A00112C2274001212795401227401121279CA
:10132A00543F22740112127954C023232254030316
:10133A0003F97401021281227406021279C0E0F9DB
:10134A007406121281D0E022740880F1740080EDD4
:10135A00121342440480E612134254FB80DF121334
:10136A005A12139760FB80EFC0E0C0F0540160028C
:10137A007402F5F012134254FC45F012134744016B
:10138A0012134754FE121347D0F0D0E02274001211
:10139A0012795440600274012212135A7401121312
:1013AA00721412137212137204121372121372123B
:1013BA00137212137212137212137212136122121F
:1013CA00135A740112137214121372121372121333
:1013DA00721213721213721213721213721213729E
:1013EA0012136122C0E012135A74011213727400AC
:1013FA001213727401121372D0E02323237B061294
:10140A00137223DBFAEE7B0823121372DBFAEF7BEB
:10141A000823121372DBFA12136112136822C0E056
:10142A0012135A740112137212137214121372D015
:10143A00E02323237B0612137223DBFA7B08C0E026
:10144A00740012137212139713D0E033DBF0FE7B91
:10145A0008C0E0740012137212139713D0E033DB42
:10146A00F0FF1213612212135A740112137214122A
:10147A001372121372041213721412137212137269
:10148A001213721213721213721213611213681268
:10149A00135A740112137214121372121372121362
:1014AA00720412137212137212137212137212133B
:1014BA00727B1014121372DBFB121361121368226F
:1014CA00742812112CEDC333FFEC33FEEF12115DB9
:1014DA00EE12115D740012115D74E912112C744040
:1014EA0012112C300D2090E6E37400F090E6D0EE55
:1014FA00F090E6D1EFF090E6E4E00000001210F878
:10150A0074C912112C2275B300C2B4ED4C700BD2FF
:10151A00B475B3FF74C912112C22E54D254DF8E5B7
:10152A004E354EC82400F59BE834F8F59AE536C3E3
:10153A0013F8E53513C3954DF9FBE8954EF8FAED26
:10154A00C399EC984009754D00754E00021565ED7A
:10155A00FB254DF54DECFA354EF54EEDC39BFDECF2
:10156A009AFCB2B690E6A5E020E3FCEBC39401FB3B
:10157A00EA9400FA4B6014E590B2B6F59CE590B295
:10158A00B6F59CDBF2EA60031A80ECE590B2B6F598
:10159A009CE590F59CE54D454E700C90E698E53635
:1015AA00F090E699E535F0021515742812112CED24
:1015BA00C333FFEC33FEEF12115DEE12115D7400BE
:1015CA0012115D74E912112C746012112C300D3253
:1015DA0090E6D37400F090E6D0EEF090E6D1EFF00A
:1015EA007400F5BB0000007532FFE5AA54017007CC
:1015FA0090E691F0000000E5BB30E7EE74C91211E5
:10160A002C22E54F602BFAE59FF590B2B600E59FD4
:10161A00F590B2B600DAF0748090E691F074F0F5C5
:10162A009D7400F59EEDC3954FFDEC9400FC754F3B
:10163A000074F0F59D7400F59EEC604B7A4090E6DC
:10164A00A3E020E2FCE59FF590B2B6E59FF590B2E3
:10165A00B6E59FF590B2B6E59FF590B2B6E59FF56F
:10166A0090B2B6E59FF590B2B6E59FF590B2B6E5B1
:10167A009FF590B2B6DACE748090E691F074F0F5E8
:10168A009D7400F59EDCB5ED603990E6A3E020E29A
:10169A00FC90E690E0C313FA90E691E013C39DF53F
:1016AA004FE59FF590B2B600E59FF590B2B600DD22
:1016BA00F0E54F700E748090E691F074F0F59D7429
:1016CA0000F59E74C912112C22D28522C28522B23B
:1016DA00852290E6007410F090E60174C0F090E65E
:1016EA00C3743FF090E6C2743FF090E6F37440F0A2
:1016FA0075B3FF75B5F075B2EF1216D675B4FF75EE
:10170A00B6FF1217982290E60174F2F075B5409070
:10171A00E6C2743FF090E6C37438F090E6C17400F4
:10172A00F090E6C074E4F090E6F5F02290E60174D9
:10173A00C0F090E6C3743FF090E6C2743FF075B50E
:10174A00F022040101570011015300010053003F28
:10175A0003530004010357001103530013035700F6
:10176A003F075700040101570011015300010257B6
:10177A00001F01570006010357001303573F2203B6
:10178A00530023035600270357003F03570090E6F0
:10179A000174C2F07592E4787F7980E4F218D9FC7A
:1017AA0075921A78007980E4F208D9FC90174C7582
:1017BA00921A78007904E0A36013FA7B04E0A3F29A
:1017CA00E82408F8DBF7E8C3941FF8DAEEE82420E7
:1017DA0054E0F8D9E1787F797F7A8075921AE360CC
:1017EA00047592E4F21819DAF2787F797F7A8075B3
:1017FA00921AE3FB7592E4E2C39B6004EBF280E980
:10180A001819DAEB90E6F5F090E60174C0F07592DB
:02181A000022AA
:00000001FF
