:030000000201B644
:03000B000206E802
:0300330002018047
:0500400001FF100201A8
:100100000206F800020792000207920002073F0071
:10011000020768000207920002079200020792009D
:100120000207920002079200020792000207920063
:10013000020792000207920002078A00020792005B
:100140000207920002079200020792000207920043
:100150000207920002079200020792000207920033
:100160000207920002079200020792000207920023
:100170000207920002079200020792000207920013
:1001800053D8EF3290E6A3E020E22A90E690E0B464
:10019000002390E691E0B41F1C759AF0759B0075E2
:1001A0009D0E759EE1781FE59CF59FD8FAD20774E5
:1001B0008090E691F02275816F1215391202793024
:1001C0000C1FE412102C4016D20B12101A90E61AD3
:1001D000740C200D027404F0120B8F12090E12031E
:1001E000C73006031203F230040843870100000001
:1001F000C20430080512085680E73184300709121E
:100200000892300703120793E5575404655460625F
:100210006554F554E5567050D55557755510200B5B
:100220001CE412102C404BD20B12101A90E61A74D8
:100230000C200D027404F0120B8F020272E53312CF
:10024000101C6006121028020272C20B300C1690AD
:100250000F0A7401F0A3E4F0900F2074FFF0A3F0F4
:10026000A3F01203C7020272D55607E41211D81286
:100270001028000000000021E1C206C204C205C22D
:1002800000C201C20CC20D753400D20E900040E0D5
:10029000600FD20CA3E0F9A3E0C9900F0AF0A3E924
:1002A000F0755600755400755510C20B12101A7473
:1002B000FF90E65DF090E65FF0754055754153752F
:1002C0004242754353E4F553F550F551F552F53B71
:1002D000F54FF55990E680E020E70C900F0DE4F023
:1002E000744078000202F1900F0D7401F0740078F0
:1002F00002900F28F0C8A3F0C8900F2FF0C8A3F009
:10030000C890E625F0C800000090E624F0C8F53556
:100310008836C210753901753AFF753818755A0C50
:10032000755B7FC207C208D2E843D820538EF853CA
:1003300091EF90E600E054FDF090E6687408F090CC
:10034000E65CE04409F000000090E61274A0F09032
:10035000E61474E0F0E490E610F090E611F090E618
:1003600013F090E615F090E6187400F0000000908D
:10037000E619F000000090E61BF000000090E61A7D
:10038000740C200D027404F000000090E69174805B
:10039000F000000090E6917480F000000090E6917B
:1003A0007480F000000090E6917480F000000090EE
:1003B000E65E7440F0D2AF90E680E04402F07589CA
:1003C00001758810D2A92290E680E04408F0F0E0A0
:1003D0004402F07FDC7E051206D290E680E054F7FE
:1003E000F07E187FFF1206C4200606DFF8DEF680D6
:1003F000D62290E6B9E0700B90E6B8E024DF7000FA
:1004000002043D1470030204A924FE7003020504D3
:1004100024FB700302057614700302058714700331
:100420000205A31470030205B224057003020650EE
:1004300090E6B8E030E6030205C702069490E6B8FD
:10044000E0247F60231460302402705AA205E43354
:1004500025E0FFA200E4334F90E740F0E4A3F090E2
:10046000E68B7402F002069BE490E740F0A3F09064
:10047000E68B7402F002069B90E6BCE0F45480C464
:10048000FFE05407200102701D2F25E024B4F582FF
:1004900075837FE054FE90E740F0E4A3F090E68B94
:1004A0007402F002069B02069490E6B8E024FE6017
:1004B000072402604002069490E6BAE0704390E69A
:1004C000BCE0F45480C4FFE0540720010270322FD6
:1004D00025E024B4F58275837FE4F090E6BCE05417
:1004E00080131313541FFFE054072F90E683F0D2BC
:1004F000E5F002069B90E6BAE0B40105C2050206EB
:100500009B02069490E6B824FE600724026058021D
:10051000069B90E6BAE0705B90E6BCE0F45480C4C1
:10052000FFE0540720010270D82F25E024B4F582A3
:1005300075837F7401F0C083C08290E6BCE0548074
:10054000131313541FFFE054072F90E683F0D2E5F6
:10055000F0D082D083EF20E407A37401F002069B61
:10056000E0D2E1F002069B90E6BAE0B40105D205C4
:1005700002069B02069490E740E4A20133F090E665
:100580008B7401F002069B90E6BAE0600BB4011098
:10059000D2011206A502069BC2011206A502069B05
:1005A00002069490E740E530F0740190E68BF0028B
:1005B000069B2001030205C490E6BAE0F53012065E
:1005C000A502069B02069490E6B9E0B41028E43038
:1005D0000B0E90E6BCE0F9C3E53399E44002E53444
:1005E00090E740F0A3E533F090E68AE4F090E68BE4
:1005F0007402F002069BB4114990E6BCE0B53335B5
:10060000E5567015E53312101C602A74031211D8D8
:100610007556041211EB120940121208E4900F985B
:100620007D40C0E01212E4EFF0A3EEF0A3D0E004AE
:10063000DDF012120F90E6B3740FF0A37498F0027D
:10064000069BB4120890E6BCE0F538D20E02069B79
:1006500090E6BBE024FE601414601E240270359006
:10066000E6B3740FF0A37400F002069B90E6B37437
:100670000FF0A37412F002069B90E6BAE023F99003
:100680000F3293C90493C990E6B3F0A3E9F00206D0
:100690009B02069B90E6A0E04401F090E6A0E044B7
:1006A00080F0C2062290E683E47F08F0D2E5F0C233
:1006B000E505E0DFF67F087410F0D2E5F0C2E5054D
:1006C000E0DFF62275860090FB50A3E5824583703B
:1006D000F9228E318F32E5321532AE31700215318A
:1006E0004E6004D1C480EF220557C0E0E558600594
:1006F000147000F558D0E032C0E0C083C082C085DD
:10070000C084C086C0D074EF529190E65D7401F051
:1007100090E6B8E0B42117A3E0B4FF12120C7E12E9
:10072000153375816F51B9D19B12073E21E1D20675
:10073000D0D0D086D084D085D082D083D0E032C0D3
:10074000E0C083C082C085C084C086D2045391EFCC
:1007500090E65D7408F00000000000D086D084D0E0
:1007600085D082D083D0E032C0E0C083C082C08513
:10077000C084C0865391EF90E65D7410F0D086D0AF
:1007800084D085D082D083D0E0325391EFF5A1059B
:10079000593232754D00754E00754F00300B0BE528
:1007A000567019E53312101C700574010207C574E8
:1007B000031211D81211EB3184120940755604123C
:1007C000153012097CF54C300A4220090312087CCE
:1007D000300D1B90E6AFE0F990E6B0E0F849600B11
:1007E000E5AA20E6FB90E6487406F002084EE54DC7
:1007F000454E605AC333F9E43390E698F090E69999
:10080000E9F090E6A5E030E2F902084E20093FAD9C
:1008100048AC49754800754900E4C54FC333F974C5
:100820000033F8496006748090E691F0EDC399FDBD
:10083000EC98FC40194D601690E6A3E020E2F99098
:10084000E690E0F890E691E0F97480F080DED2085E
:10085000C2071208562290E6A5E05409701DC2088E
:1008600090F80079407F0DE7F009A3DFFA90E69851
:10087000E4F090E699740DF012153322AC48E54986
:10088000C313CC13FD74003400F548121386754968
:100890000022759A0E759BE190E67BE0B45528E046
:1008A000B45324E0B44220E0B4431C79447F04E014
:1008B000F709DFFB7F04D209E0F76002C20909DF14
:1008C000F7E0A2E7920A22C20790E6A5E04401F011
:1008D00090E6A3E04401F022E5AC30E1FB90E604B1
:1008E0007480F00000007402F00000007400F0005A
:1008F0000000748090E691F000000090E691F00016
:10090000000090E691F000000090E691F022E533BF
:1009100012101C602A1212087437900F887D04C0D0
:10092000E01212E4EF70027430F0A3A3EE700274D0
:1009300030F0A3A3D0E004DDE612120F121028223B
:10094000740679A0121113200E0A740212110CC33E
:1009500094806027C20EA938740212111379E374CF
:1009600007121113120B53301011A939740212110E
:100970001379C67407121113120B5322900EF0E074
:10098000B4280F3010067537C4020A4375372002A9
:100990000A43B42F06753740020A43B42A0F3010B9
:1009A000067537C5020A43753730020A43B4120A86
:1009B000900CB57C007D240209F0B4250A900CD976
:1009C0007C007D080209F0B40317758600855A8300
:1009D000855B827C007D121209F0755A0C755B7F75
:1009E00022B40003740022755A0C755B91740122C5
:1009F000058611D80586120B8A120B6205867A00CD
:100A00007B0090F8000586E0A30586F0A3EB2401A7
:100A1000FBEA3400FAEDC39401FDEC9400FC4D6058
:100A200008EAB536E0EBB535DC90E698EAF090E6FA
:100A300099EBF0000000E5AA30E4FBEC4D70BF0537
:100A400086E422120B53300F27900EF2E044E0F9B7
:100A50007406121113A3E0F97405121113A3E0F93F
:100A60007404121113A3E0F97403121113020ABAE9
:100A7000200947900EF3E0F9A3E0FAA3E0FBAC5D98
:100A8000120C69C002C00305F0A9F074031211131F
:100A9000D003D0027900AC5C120C69C002C00353D1
:100AA000F00F43F0A0A9F07406121113D0017404E2
:100AB000121113D0017405121113E54A454B60134E
:100AC000794AE7C39401F709E79400F774807B0043
:100AD000020AE1C3E54913606E7B00754900754A5F
:100AE00000F9FA7402121113900EF5E02AF0900E3C
:100AF000F4E03BF0900EF3E03400F0900EF2E034BE
:100B000000F0120B5330E6FAA937740712111312D2
:100B10000B5330E6FA20E01C30E3F4AC397D00E5FD
:100B20003A5A7002EAFCEAC39CC0E0300A0A121387
:100B300086020B3B053B80CA12145BD0E0FA7B00B7
:100B400070CD120B534143D20974027980121113F4
:100B5000740022740712110C30E706E55674017018
:100B6000F222D20975F0007948E7C39D42F0F709F7
:100B7000E79C42F0F709E7940042F0F709E7940098
:100B800042F0F7E5F06002C20922AD48AC4922E527
:100B90003312101C7001221211EB74031211D87958
:100BA000A074061211137153740712110C54406093
:100BB000F779EC74071211137153740712110C5466
:100BC0000860F5758600900CE17F007E7012117749
:100BD0007A907F00121132DAF9900CD9058675F0FF
:100BE00000900D5BE042F0FAA3E042F00586F0A32E
:100BF000EAF0A30586900D59E042F0FAA3E042F036
:100C00000586F0A3EAF0E5F06005D20F020C49C2B8
:100C10000F900CD9058675F000900D55E042F0FA62
:100C2000A3E042F00586F0A3EAF0A30586900D53F9
:100C3000E042F0FAA3E042F00586F0A3EAF0900D5E
:100C40004FE0F55CA3A3E0F55DD210900D3FE030DE
:100C5000E70274407004C2107401F53914F4F53AD7
:100C600074001211D8121028227D11E98CF084A989
:100C7000F013EB33FBEA33FAE933F9DDEE222270AD
:100C80000000000000000000000000000000000064
:100C900000700005000000000000000000240000BB
:100CA000000000F00002000000000000000000044E
:100CB0000100000000000000001F0000004241434E
:100CC0004B5041434B486172642044726976652001
:100CD0002020202020312E303000000000000002B3
:010CE0000013
:100F00001201000200000040C90A000000000102B6
:100F1000030109022000010100C03209040000029F
:100F2000080650000705860240000007050202403F
:100F300000000F3A0F3E0F5E0F86040309042003E2
:100F40004D006900630072006F00200053006F00C5
:100F50006C007500740069006F006E007300280358
:100F60004200410043004B005000410043004B0051
:100F70002000550053004200320020004300610071
:100F800062006C0065001203300030003000300059
:080F9000300030003000300099
:10101A00E422F53312104A740040027401221210BD
:10102A009D22F53312109D12104A50080533E533FC
:10103A0070F5D32212112AF534121028E533C3228F
:10104A00E533F4F59075B0F0121098F4F59012109B
:10105A0098B2B7121098B2B7121098B2B712109885
:10106A00C2B5E533540765B054077020D2B5E533ED
:10107A00F4540765B054077013D2B7C001791074DD
:10108A0004121122D001C3E533021097D322C00102
:10109A00D00122C2B712109875B00022C2B4F590DE
:1010AA00121098B2B522C2B4F590B2B622D2B47573
:1010BA00B300B2B6121098E590C2B475B3FF22D24B
:1010CA00B4E583F59AE582F59B75B300B2B61F12B3
:1010DA001098E590F59CB2B6DFF5121098E590F5F8
:1010EA009CC2B475B3FF058622C2B4E583F59AE5BE
:1010FA0082F59B121098E59CF59000B2B6DFF405D4
:10110A00862244401210A680A444401210A6E98008
:10111A009544001210A6809544001210A6E9808614
:10112A00740B12111B543F2279507404121122EFCE
:10113A0044401210A61210B7CF44401210A6121043
:10114A00B7FE791074041211222279507404121114
:10115A0022EF44401210A6ED1210B0EF44401210D4
:10116A00A6EE1210B07910740412112222EE23FE98
:10117A00E534B4051274381210A6EE1210B07400D9
:10118A001210B074104FFF79507404121122EF44F8
:10119A00401210A6EEFF1210C9791074041211221F
:1011AA002279507404121122EF44401210A6EE2341
:1011BA00FF1210F37910740412112222740B121107
:1011CA001B548022740512111B54C023232254037A
:1011DA000303F9740512111B543F49F974050211EE
:1011EA0022740512111B4408F974050211227406AF
:1011FA0002111BC0E0F97406121122D0E02212116A
:10120A00F8440880EE1211F854F780E71211F844F6
:10121A000480E01211F854FB80D9121216121253EC
:10122A0060FB80EFC0E0C0F0540160027402F5F088
:10123A001211F854FC45F01211FD44011211FD542B
:10124A00FE1211FDD0F0D0E022740012111B54805E
:10125A006002740122121216740112122E14121252
:10126A002E12122E0412122E12122E12122E1212D6
:10127A002E12122E12122E12121D22121216740180
:10128A0012122E1412122E12122E12122E12122EA6
:10129A0012122E12122E12122E12122E12121D2299
:1012AA00C0E0121216740112122E740012122E7459
:1012BA000112122ED0E02323237B0612122E23DBE7
:1012CA00FAEE7B082312122EDBFAEF7B08231212A6
:1012DA002EDBFA12121D12122422C0E01212167408
:1012EA000112122E12122E1412122ED0E0232323D0
:1012FA007B0612122E23DBFA7B08C0E0740012125E
:10130A002E12125313D0E033DBF0FE7B08C0E074D8
:10131A000012122E12125313D0E033DBF0FF121216
:10132A001D22121216740112122E1412122E1212E9
:10133A002E0412122E1412122E12122E12122E1203
:10134A00122E12122E12121D1212241212167401C9
:10135A0012122E1412122E12122E12122E041212FF
:10136A002E12122E12122E12122E12122E7B10145E
:10137A0012122EDBFB12121D12122422E534B405BE
:10138A001374381210A6EDC333FEEC33CE1210B02C
:10139A00EE1210B0795074041211227440A934B9B3
:1013AA00050244101210A6D2B475B300ED4C700DAC
:1013BA00C2B475B3FF7910740412112222E54D25C7
:1013CA004DF8E54E354EC82400F59BE834F8F59AF9
:1013DA00E536C313F8E53513C3954DF9FBE8954E89
:1013EA00F8FAEDC399EC984009754D00754E000264
:1013FA001408EDFB254DF54DECFA354EF54EEDC3CF
:10140A009BFDEC9AFCB2B690E6A5E020E3FCEBC3A8
:10141A009401FBEA9400FA4B6017E590B2B6F59C8A
:10142A0000E590B2B6F59C0000DBEFEA60031A8093
:10143A00E9E590B2B6F59C00E590F59CE54D454E80
:10144A00700C90E698E536F090E699E535F00213CF
:10145A00B67950740412112274401210A6C2B4E56F
:10146A004F6029FAE59FF590B2B6E59FF590B2B6BE
:10147A00DAF2748090E691F074F0F59D7400F59EAE
:10148A00EDC3954FFDEC9400FC754F0074F0F59D8B
:10149A007400F59E7B00EC604B7A4090E6A3E02056
:1014AA00E2FCE59FF590B2B6E59FF590B2B6E59FEE
:1014BA00F590B2B6E59FF590B2B6E59FF590B2B653
:1014CA00E59FF590B2B6E59FF590B2B6E59FF59027
:1014DA00B2B6DACE748090E691F074F0F59D74009D
:1014EA00F59EDCB5ED603790E6A3E020E2FC90E6DD
:1014FA0090E0C313FA90E691E013C39DF54FE59F80
:10150A00F590B2B6E59FF590B2B6DDF2E54F700EF2
:10151A00748090E691F074F0F59D7400F59E791050
:10152A00740412112222D28522C28522B285229007
:10153A00E6007410F090E60174C0F090E6C3743FC0
:10154A00F090E6C2743FF090E6F37440F075B3FF92
:10155A0075B5F075B2EF12153375B4FF75B6FF1293
:10156A0015F52290E60174F2F075B54090E6C27462
:10157A003FF090E6C37438F090E6C17400F090E64C
:10158A00C074E4F090E6F5F02290E60174C0F090A1
:10159A00E6C3743FF090E6C2743FF075B5F02204DA
:1015AA000101570011015300010053003F0353008A
:1015BA00040103570011035300130357003F075751
:1015CA0000040101570011015300010257001F01D5
:1015DA00570006010357001303573F220353002302
:1015EA00035600270357003F03570090E60174C2D1
:1015FA00F07592E4787F7980E4F218D9FC75921A32
:10160A0078007980E4F208D9FC9015A975921A78C5
:10161A00007904E0A36013FA7B04E0A3F2E824084B
:10162A00F8DBF7E8C3941FF8DAEEE8242054E0F870
:10163A00D9E1787F797F7A8075921AE3600475928E
:10164A00E4F21819DAF2787F797F7A8075921AE3D0
:10165A00FB7592E4E2C39B6004EBF280E91819DAA5
:0F166A00EB90E6F5F090E60174C0F07592002267
:00000001FF
