:0300000002019F5B
:03000B0002065E8C
:030033000201586F
:020043000201B8
:1001000002065F000206DF000206DF000206A5000D
:100110000206C9000206DF000206DF000206DF0059
:100120000206DF000206DF000206DF000206DF0033
:100130000206DF000206DF000206DF000206DF0023
:100140000206DF000206DF000206DF000206DF0013
:0D0150000206DF000206DF0053D8EF322266
:10015E0030090302096B300A03020E8B22300903A9
:10016E00020977300A03020E9D22300903020B5753
:10017E00300A030211B722300903020B5E300A0364
:10018E000211BB22300903020C33300A0302128D16
:10019E002275815F12082912026030060312037A5B
:1001AE00300408438701000000C20490E685E05445
:1001BE0020653560556535F5350539E539553A70A3
:1001CE00061208200201D8120823D5363D753610C6
:1001DE00200820E412097B400AD208D20912021F1D
:1001EE00020218E4120EA74021D208D20A12021FF0
:1001FE00020218120820E533315E6005316B0202EF
:10020E0018120823C208C209C209000000000080AB
:10021E0089E533315E603A317874023192C007312C
:10022E0085316B79062009027907D0E0C3948040AE
:10023E002060129401601A9405600A4004940350E1
:10024E0010E954FDF99006ECE9F0A37410F01203D6
:10025E004D22C206C204C205C200C201C209C20AB0
:10026E00753500753900753610C20874FF90E65D5D
:10027E00F090E65FF0C20B753A1090E680E020E752
:10028E000C9006EFE4F0744078000202A89006EF9E
:10029E007401F0753A147400780290070AF0C8A33E
:1002AE00F0C8900711F0C8A3F0C890E625F0C890EA
:1002BE00E624F0C8F5428843D2E843D820538EF89E
:1002CE005391EF90E600E054FDF090E6687408F06C
:1002DE0090E65CE04409F090E61274A0F090E6140B
:1002EE0074E0F0E490E610F090E611F090E613F072
:1002FE0090E615F090E6187400F090E619F090E68E
:10030E001BF090E61A740C200B027404F090E69128
:10031E007480F090E6917480F090E6917480F09085
:10032E00E6917480F090E65E7440F0D2AFD2E89021
:10033E00E680E04402F0758901758810D2A92290FA
:10034E00E680E04408F0F0E04402F07FDC7E051227
:10035E00064690E680E054F7F07E037FFF780112A8
:10036E00062D200606DFF6DEF480D42290E6B9E0F4
:10037E00700B90E6B8E024DF70000203C514700322
:10038E0002043124FE700302048C24FB7003020469
:10039E00FE14700302050F14700302052B14700374
:1003AE0002053A240570030205B990E6B8E030E67E
:1003BE000302054F0205FD90E6B8E0247F6023148A
:1003CE0060302402705AA205E43325E0FFA200E457
:1003DE00334F90E740F0E4A3F090E68B7402F00206
:1003EE000604E490E740F0A3F090E68B7402F0026E
:1003FE00060490E6BCE0F45480C4FFE054072001EC
:10040E0002701D2F25E024B4F58275837FE054FE23
:10041E0090E740F0E4A3F090E68B7402F00206043D
:10042E000205FD90E6B8E024FE600724026040025B
:10043E0005FD90E6BAE0704390E6BCE0F45480C44B
:10044E00FFE0540720010270322F25E024B4F5821C
:10045E0075837FE4F090E6BCE05480131313541FB1
:10046E00FFE054072F90E683F0D2E5F002060490E9
:10047E00E6BAE0B40105C2050206040205FD90E6E7
:10048E00B824FE60072402605802060490E6BAE023
:10049E00705B90E6BCE0F45480C4FFE0540720018A
:1004AE000270D82F25E024B4F58275837F7401F095
:1004BE00C083C08290E6BCE05480131313541FFF18
:1004CE00E054072F90E683F0D2E5F0D082D083EF90
:1004DE0020E407A37401F0020604E0D2E1F0020664
:1004EE000490E6BAE0B40105D2050206040205FD49
:1004FE0090E740E4A20133F090E68B7401F002061F
:10050E000490E6BAE0600BB40110D20112060E029E
:10051E000604C20112060E0206040205FD90E74013
:10052E00E530F090E68B7401F00206042001030220
:10053E00054C90E6BAE0F53012060E0206040205EE
:10054E00FD90E6B9E0B41028E430080E90E6BCE069
:10055E00F9C3E53399E44002E53490E740F0A3E5B2
:10056E0033F090E68AE4F090E68B7402F002060413
:10057E00B4113590E6BCE0B53321E533315E601B36
:10058E003178E49007A07D40C0E03192EFF0A3EE09
:10059E00F0A3D0E004DDF13185316B90E6B3740742
:1005AE00F0A374A0F002060402060490E6BBE02459
:1005BE00FE601414601E2402703590E6B37406F0CB
:1005CE00A374E2F002060490E6B37406F0A374F48A
:1005DE00F002060490E6BAE023F990071493C904DA
:1005EE0093C990E6B3F0A3E9F00206040206049064
:1005FE00E6A0E04401F090E6A0E04480F0C20622BE
:10060E0090E683E47F08F0D2E5F0C2E505E0DFF680
:10061E007F087410F0D2E5F0C2E505E0DFF622C0E7
:10062E0082C083C0E090FB4BA3E582458370F9D86E
:10063E00F4D0E0D083D082228E318F32E532153263
:10064E00AE31700215314E60067801D12D80ED224B
:10065E0032C0E0C083C082C085C084C086C0D05383
:10066E0091EF90E65D7401F090E6B8E0B42117A327
:10067E00E0B4FF121206E012082375815F5183D198
:10068E00041206A421A8D206D0D0D086D084D0855C
:10069E00D082D083D0E032C0E0C083C0825391EFCD
:1006AE0090E65D7408F090E680E04480F0D204009D
:1006BE0000000000D082D083D0E032C0E0C083C002
:1006CE00825391EF90E65D7410F0D082D083D0E02B
:1006DE003232220012010002FFFFFF40C90A010060
:1006EE000000010200010902200001010040000982
:1006FE0004000002FFFFFF0007058602400000070E
:10070E00050202400000071C0720075A0740040399
:10071E00090420034D006900630072006F00200081
:10072E0053006F006C007500740069006F006E005E
:10073E0073001A03300030003000300030003000FB
:10074E00300030003000300030003200260342000E
:10075E00410043004B005000410043004B0020007D
:10076E0055005300420020004300610062006C00FF
:02077E00650014
:01079F000059
:10082000D28522C28522B2852290E6007410F09013
:10083000E60174C0F090E6C3743FF090E6C2743FE6
:10084000F090E6F37440F075B3FF75B5F075B2EF54
:1008500012082375B4FF75B6FF1208E52290E60171
:1008600074F2F075B54090E6C2743FF090E6C37440
:1008700038F090E6C17400F090E6C074E4F090E6C1
:10088000F5F02290E60174C0F090E6C3743FF0905A
:10089000E6C2743FF075B5F0220401015700110162
:1008A0005300010053003F0353000401035700119C
:1008B000035300130357003F07570004010157007B
:1008C00011015300010257001F0157000601035791
:1008D000001303573F2203530023035600270357F7
:1008E000003F03570090E60174C2F07592E4787FF0
:1008F0007980E4F218D9FC75921A78007980E4F2D4
:1009000008D9FC90089975921A78007904E0A360E0
:1009100013FA7B04E0A3F2E82408F8DBF7E8C394B9
:100920001FF8DAEEE8242054E0F8D9E1787F797FE7
:100930007A8075921AE360047592E4F21819DAF27B
:10094000787F797F7A8075921AE3FB7592E4E2C32F
:100950009B6004EBF280E91819DAEB90E6F5F09071
:10096000E60174C0F075920022E422F53312099971
:10097000740040027401221209EC22F5331209ECD2
:1009800012099950080533E53370F5D322120A791C
:10099000F534120977E533C322E533F4F59075B0E9
:1009A000F01209E7F4F5901209E7B2B71209E7B2BD
:1009B000B71209E7B2B71209E7C2B5E533540765C4
:1009C000B054077020D2B5E533F4540765B054072E
:1009D0007013D2B7C00179107404120A71D001C328
:1009E000E5330209E6D322C001D00122C2B71209C1
:1009F000E775B00022C2B4F5901209E7B2B522C281
:100A0000B4F590B2B622D2B475B300B2B61209E70B
:100A1000E590C2B475B3FF22D2B4E583F59AE582BE
:100A2000F59B75B300B2B61F1209E7E590F59CB2CD
:100A3000B6DFF51209E7E590F59CC2B475B3FF0582
:100A40008622C2B4E583F59AE582F59B1209E7E5B3
:100A50009CF59000B2B6DFF405862244401209F5F9
:100A600080A444401209F5E9809544001209F580FC
:100A70009544001209F5E98086740B120A6A543F06
:100A80002279507404120A71EF44401209F5120AD7
:100A900006CF44401209F5120A06FE7910740412BA
:100AA0000A712279507404120A71EF44401209F558
:100AB000ED1209FFEF44401209F5EE1209FF79101B
:100AC0007404120A7122EE23FEE534B40512743860
:100AD0001209F5EE1209FF74001209FF74104FFF9E
:100AE00079507404120A71EF44401209F5EEFF12B6
:100AF0000A1879107404120A712279507404120AC7
:100B000071EF44401209F5EE23FF120A4279107486
:100B100004120A7122740B120A6A5480227405129C
:100B20000A6A54C023232254030303F97405120AEA
:100B30006A543F49F97405020A717405120A6A443D
:100B400008F97405020A717406020A6AC0E0F974B1
:100B500006120A71D0E022120B47440880EE120BF5
:100B60004754F780E7120B47440480E0120B4754C8
:100B7000FB80D9120B65120BA260FB80EFC0E0C0B6
:100B8000F0540160027402F5F0120B4754FC45F07A
:100B9000120B4C4401120B4C54FE120B4CD0F0D0F3
:100BA000E0227400120A6A54806002740122120B5F
:100BB000657401120B7D14120B7D120B7D04120B58
:100BC0007D120B7D120B7D120B7D120B7D120B7DA6
:100BD000120B6C22120B657401120B7D14120B7D2B
:100BE000120B7D120B7D120B7D120B7D120B7D12F1
:100BF0000B7D120B7D120B6C22C0E0120B65740191
:100C0000120B7D7400120B7D7401120B7DD0E0235A
:100C100023237B06120B7D23DBFAEE7B0823120BCA
:100C20007DDBFAEF7B0823120B7DDBFA120B6C12D3
:100C30000B7322C0E0120B657401120B7D120B7D49
:100C400014120B7DD0E02323237B06120B7D23DBC4
:100C5000FA7B08C0E07400120B7D120BA213D0E0E7
:100C600033DBF0FE7B08C0E07400120B7D120BA298
:100C700013D0E033DBF0FF120B6C22120B65740112
:100C8000120B7D14120B7D120B7D04120B7D1412BE
:100C90000B7D120B7D120B7D120B7D120B7D120B47
:100CA0006C120B73120B657401120B7D14120B7D09
:100CB000120B7D120B7D04120B7D120B7D120B7D2E
:100CC000120B7D120B7D7B1014120B7DDBFB120BC4
:100CD0006C120B7322E534B4051374381209F5ED68
:100CE000C333FEEC33CE1209FFEE1209FF795074C4
:100CF00004120A717440A934B9050244101209F5AE
:100D0000D2B475B300ED4C700DC2B475B3FF791059
:100D10007404120A7122E53B253BF8E53C353CC8DA
:100D20002400F59BE834F8F59AE543C313F8E5424F
:100D300013C3953BF9FBE8953CF8FAEDC399EC98A1
:100D40004009753B00753C00020D57EDFB253BF556
:100D50003BECFA353CF53CEDC39BFDEC9AFCB2B69E
:100D600090E6A5E020E3FCEBC39401FBEA9400FAD3
:100D70004B6017E590B2B6F59C00E590B2B6F59CD5
:100D80000000DBEFEA60031A80E9E590B2B6F59C5B
:100D900000E590F59CE53B453C700C90E698E543FA
:100DA000F090E699E542F0020D0579507404120ABC
:100DB0007174401209F5C2B4E5446029FAE59FF563
:100DC00090B2B6E59FF590B2B6DAF2748090E691F3
:100DD000F074F0F59D7400F59EEDC39544FDEC9420
:100DE00000FC75440074F0F59D7400F59E7B00ECEA
:100DF000604B7A4090E6A3E020E2FCE59FF590B2DC
:100E0000B6E59FF590B2B6E59FF590B2B6E59FF5D1
:100E100090B2B6E59FF590B2B6E59FF590B2B6E513
:100E20009FF590B2B6E59FF590B2B6DACE74809099
:100E3000E691F074F0F59D7400F59EDCB5ED603739
:100E400090E6A3E020E2FC90E690E0C313FA90E67F
:100E500091E013C39DF544E59FF590B2B6E59FF58B
:100E600090B2B6DDF2E544700E748090E691F074B5
:100E7000F0F59D7400F59E79107404120A7122C277
:100E80000BE534C3940E4002D20B22F533120EC888
:100E900074004008300B0312085D740122300B030C
:100EA000120883120F3D22F533120EC85008053385
:100EB000E53370F5D32212118AF534300B03120892
:100EC0005D120E9DE533C32275B000759062120F5E
:100ED0003C759070120F3CE533F590120F3CF4F521
:100EE00090120F3CD2B7120F3C43B070120F3C75FA
:100EF0009004200B03759003120F3C7470F5B01230
:100F00000F3C7450F5B0120F3CE5B0540F300B0697
:100F1000B40C27020F19B40B217470F5B0120F3CFA
:100F2000E5B0540F300B08B4031074B0020F34B4A2
:100F3000040874F0F5B0C3020F3BD32222300B0338
:100F4000D2B62275B000227538FAE5BB20E70AE573
:100F50003770F774FF90E6F5F07538002280E8E509
:100F6000BB30E7F9227532FFE5BB20E723C0E0D0B4
:100F7000E0C0E0D0E0C0E0D0E0C0E0D0E0D532E8B2
:100F800074FF90E6F5F090E698EEF090E699EFF0B9
:100F900022300B29C083C082C085C084C086C0E0D7
:100FA00090E6F37440F0D0E090E6F1F0000000121B
:100FB0000F47D086D084D085D082D08322F590B2DE
:100FC000B522300B29C083C082C085C084C086C0D2
:100FD000E090E6F374C0F0D0E090E6F1F00000009D
:100FE000120F47D086D084D085D082D08322F5904E
:100FF000B2B622300B23C083C082C085C084C086B5
:1010000090E6F1E0000000120F4790E6F2E0D08693
:10101000D084D085D082D0832275B300B2B6C2B45A
:10102000E590D2B475B3FF22300B2BC083C082C0D1
:1010300085C084C086058690E6F1E0000000120FAE
:101040004790E6F2E00586F0A3DFEAD086D084D0B0
:1010500085D082D08322E583F59AE582F59B75B32E
:1010600000C2B4B2B61F120F3CE590F59CB2B6DFD9
:10107000F5120F3CE590F59CD2B475B3FF22C08306
:10108000C082C085C084C086300B27058690E6F3F9
:1010900074C0F00586E0A3058690E6F1F00000003C
:1010A000120F470586DFE4D086D084D085D082D069
:1010B0008322E583F59AE582F59BE59CF590B2B62F
:1010C000DFF8D086D084D085D082D08322444012ED
:1010D0000F91020FF34460120F91E9020FC2440016
:1010E000120F91020FF34420120F91E9020FC27404
:1010F000E1120F91EF4440120F91120FF3CF4440D1
:10110000120F91120FF3FE74C1120F912274E112AB
:101110000F91EF4460120F91ED120FC2EF44601275
:101120000F91EE120FC274C1120F91227428120F88
:1011300091EE23FE120FC27400120FC27400120F40
:10114000C274E9120F91EF4440120F91EEFF12109A
:101150002874C9120F91227428120F91EE23FE12E7
:101160000FC27400120FC27400120FC274E9120F82
:1011700091EF4460120F91EEFF12107E74C9120FAE
:10118000912274001210DE54012274011210DE54F8
:101190003F2274011210DE54C023232254030303A0
:1011A000F974010210E62274060210DEC0E0F97440
:1011B000061210E6D0E022740880F1740080ED126F
:1011C00011A7440480E61211A754FB80DF1211BF5F
:1011D0001211FC60FB80EFC0E0C0F05401600274AB
:1011E00002F5F01211A754FC45F01211AC440112A3
:1011F00011AC54FE1211ACD0F0D0E02274001210E9
:10120000DE544060027401221211BF74011211D722
:10121000141211D71211D7041211D71211D71211AB
:10122000D71211D71211D71211D71211C6221211CB
:10123000BF74011211D7141211D71211D71211D77E
:101240001211D71211D71211D71211D71211D712AA
:1012500011C622C0E01211BF74011211D77400121E
:1012600011D774011211D7D0E02323237B0612116A
:10127000D723DBFAEE7B08231211D7DBFAEF7B08CA
:10128000231211D7DBFA1211C61211CD22C0E012BF
:1012900011BF74011211D71211D7141211D7D0E057
:1012A0002323237B061211D723DBFA7B08C0E074CB
:1012B000001211D71211FC13D0E033DBF0FE7B08D3
:1012C000C0E074001211D71211FC13D0E033DBF030
:1012D000FF1211C6221211BF74011211D71412117C
:1012E000D71211D7041211D7141211D71211D71215
:1012F00011D71211D71211D71211C61211CD121116
:10130000BF74011211D7141211D71211D71211D7AD
:10131000041211D71211D71211D71211D71211D7E7
:101320007B10141211D7DBFB1211C61211CD2274DF
:1013300028120F91EDC333FFEC33FEEF120FC2EE14
:10134000120FC27400120FC274E9120F917440128E
:101350000F91300B2090E6E37400F090E6D0EEF0B1
:1013600090E6D1EFF090E6E4E0000000120F5D742B
:10137000C9120F912275B300C2B4ED4C700BD2B4F8
:1013800075B3FF74C9120F9122E53B253BF8E53C8C
:10139000353CC82400F59BE834F8F59AE543C313BF
:1013A000F8E54213C3953BF9FBE8953CF8FAEDC329
:1013B00099EC984009753B00753C000213CAEDFB9F
:1013C000253BF53BECFA353CF53CEDC39BFDEC9A37
:1013D000FCB2B690E6A5E020E3FCEBC39401FBEA87
:1013E0009400FA4B6014E590B2B6F59CE590B2B665
:1013F000F59CDBF2EA60031A80ECE590B2B6F59C4E
:10140000E590F59CE53B453C700C90E698E543F093
:1014100090E699E542F002137A7428120F91EDC319
:1014200033FFEC33FEEF120FC2EE120FC274001244
:101430000FC274E9120F917460120F91300B329049
:10144000E6D37400F090E6D0EEF090E6D1EFF074C1
:1014500000F5BB0000007532FFE5AA54017007904B
:10146000E691F0000000E5BB30E7EE74C9120F9181
:1014700022E544602BFAE59FF590B2B600E59FF5B2
:1014800090B2B600DAF0748090E691F074F0F59DB9
:101490007400F59EEDC39544FDEC9400FC7544008A
:1014A00074F0F59D7400F59EEC604B7A4090E6A3D5
:1014B000E020E2FCE59FF590B2B6E59FF590B2B66C
:1014C000E59FF590B2B6E59FF590B2B6E59FF59031
:1014D000B2B6E59FF590B2B6E59FF590B2B6E59F3E
:1014E000F590B2B6DACE748090E691F074F0F59D86
:1014F0007400F59EDCB5ED603990E6A3E020E2FCD7
:1015000090E690E0C313FA90E691E013C39DF54492
:10151000E59FF590B2B600E59FF590B2B600DDF01C
:10152000E544700E748090E691F074F0F59D7400BF
:08153000F59E74C9120F91220F
:00000001FF
