:030000000215AB3B
:10000300E5BB30E7FB90E6C0E4F0EF44C0F580ECDD
:1000130090E6F0F0EDA3F0E5BB30E7FB7580FE2240
:0D002600121E3E121DCAEF4E60F9021E4A66
:0700330002003653D8EF3242
:01003A0022A3
:02003E00D322CB
:03004300021000A8
:030046007F002216
:02004900D322C0
:03004B00020D396A
:03004E007F00220E
:02005100D322B8
:1000560090F00FE0F50C120FD901B60001CF0300A6
:10006600811201B61E01162301162500CD2800FEB9
:100076002B00E32F02035A000002CB121152E47F39
:100086002CFEFDFC121181C3120FA25006AE36AF34
:100096003780047E007F2C8E0D8F0E12114B1210AE
:1000A600047C1F7DB0AB0EAA0D7F007EFC121A26C3
:1000B600E50E450D600FE50D90E69CF0E50EA3F00C
:1000C600AE0D121113C32212115212003E7481B5E5
:1000D6005909741AB55804C20880148015121152B1
:1000E60012003E7481B5590A741AB55805D2080231
:1000F600070912114B0202D412115212003E1211BC
:100106004B7481B55907741AB55802C3220202D43A
:10011600E4F50F75100212114B12115212003E1225
:100126001004748165597004741A6558707AE50C68
:10013600B4231390FC00E4F0A3F0A3F0A37408F03A
:10014600750F04751003E4121141E538F0740112BD
:100156001141E539F07402121141E53AF0740312C7
:100166001141E53BF07404121141E4F074051211DB
:1001760041E4F07407121141E4F07406121141745F
:1001860002F01211B512117ED3120FA24005121100
:10019600B58004AF37AE368E0D8F0EE50E450D6079
:1001A6000312110AC20780051219B2D207A207224A
:1001B60012112E60031219B212003E7481B559074E
:1001C600741AB55802C322D32212114B121004AC72
:1001D60058AD597B127A007F007EFC121A26121146
:1001E6005950067E007F128004AE36AF378E0D8FD3
:1001F6000EE50E450D600312110A0202C690F011BB
:10020600E0543FF50F12114B121004E50F64056020
:1002160021E50F643F601BE50F64016015E50F647F
:1002260008600FE50F641B600975581A75596F024F
:1002360002D490FC00E4F07B11FAFD7CFC7F017E89
:10024600FC121A2690FC017412F090FC08E50FF0DF
:10025600A3740AF0E50F64056006E50F643F703984
:1002660090FC087405F090E680E090FC0A30E70701
:1002760074FFF0A3F08007742EF0A374E0F090FCF6
:100286000CE555F0A3E556F0A37402F0A3E4F0A341
:10029600E553F0A3E554F0800BE50FB41B0690FC84
:1002A6000B7401F012115950067E007F128004AEC5
:1002B60036AF378E0D8F0EE50E450D600312110A0F
:1002C600121152C32212114B75581A75596F121911
:0302D600B2D3227E
:1002D900750BFFC20690E600E054E74412F0E4F51E
:1002E90012F51290E6827455F0F07F647E001219BF
:1002F9007190E682E020E60890E680740AF080F1C9
:10030900E4F5411213FE7C0E7D417B807A007F006B
:100319007EE4121A267E1F7FB07C1B7DC97B2C7A56
:1003290000121A26121DEE121E62EF6003121E62DF
:10033900120A7B121E62EF6003121E6290E678E0D9
:100349005410FFC4540F4450F509121EA3E490E061
:1003590000F0A3F0E50930E0047D0280027D017A16
:10036900E07B00AF09121D7C7AE07B007D80AF093C
:10037900121D60750CE0750D80750A80121518E460
:10038900F0050DE50D7002050CD50AF0750CE07548
:100399000D80750EE0750F00E53C60030204D31271
:1003A90014DDE064C270407408250FF50FE4803154
:1003B9001214DDA3A3E0FEA3E0B40008EEB4E00448
:1003C900740480251214DDE0FEA3E0FFEE20E7228D
:1003D900EE5403FEEF2404FFE43EFEEF250FF50F74
:1003E900EE350EF50E80C97408250FF50FE4350EAC
:1003F900F50E1214DDE0FEA3E064507003EE6442D2
:1004090060030204DA1214DDA3A3E0F50BE50F245F
:1004190004F582E4350EF583E0FFE50D2404F58249
:10042900E4350CF583EFF01214DDA3A3A3E0121554
:1004390018A3A3A3F0E50D242F1214E424057B08C7
:10044900120519E50D24371214E4240D7B10120549
:1004590019E50D24471214E4241DFDE4350EFC7B37
:10046900047A00121A268522108523117482251117
:10047900F51174003510F510E4F50AE50F2421F59E
:1004890082E4350E121491B404F1E50D246E1214B0
:10049900E42425F9E4350EFCAD017B087A00121A33
:1004A90026E50BD394004029E50F242DF582E43588
:1004B9000EF583E0FEA3E0FFE50D244CF582E4355B
:1004C9000CF583EEF0A3EFF080077EE07F80121831
:1004D900AA85221085231174822408FFE43400FEC2
:1004E900EF2511F511EE3510F510E4F50AE50D24A7
:1004F9006EF582E4350C121491B408F1E551C45437
:10050900F0FFE552540F2F121518A3A3F0D20622BB
:0B051900FDE4350EFC7A00121A2622C9
:1005240090E6B9E0120FD905CD000636010698030E
:10053400054A0605C70805C10905B50A05BB0B062A
:10054400DBFF000006FE90E6BBE024FE602814609A
:100554003F24FD601414602B24067052E52290E6BB
:10056400B3F0E523A3F0020701E52490E6B3F0E538
:1005740025A3F0020701E52A90E6B3F0E52BA3F0EA
:10058400020701E52C90E6B3F0E52DA3F002070184
:1005940090E6BAE0FF121C29AA06A9077B01EA49E2
:1005A4004B600BEE90E6B3F0EFA3F00207010206F6
:1005B400F5121E81020701121E9B020701121E93EF
:1005C400020701121E7802070112004940030207C4
:1005D4000190E741E4F090E6B8E0247F60191460EC
:1005E400202402704AA200E43325E0FFA201E43390
:1005F4004F90E740F0802C90E740E4F090E68A804A
:100604002690E6BCE0B4020590E6A3800A90E6BC1E
:10061400E0B4880C90E6A6E0540190E740F0800333
:100624000206F590E68AE4F0A37402F002070102E0
:1006340006F5120051400302070190E6B8E024FEDB
:1006440060162402600302070190E6BAE0B40105D3
:10065400C2000207010206F590E6BAE0703490E6A3
:10066400BCE0B40214121D9890E6837402F0742264
:10067400F090E6A3E4F002070190E6BCE0B4881031
:1006840090E6837418F07438F090E6A6E4F0806D78
:10069400805F805D121EC5503E90E6B8E024FE6087
:1006A400112402705890E6BAE0B40104D200804DDF
:1006B400803F90E6BAE0701D90E6BCE0B40205907D
:1006C400E6A3800A90E6BCE0B4880890E6A674012C
:1006D400F0802A801C801A90E6B8E0B4211390E6DA
:1006E400BCE0700D5391EF75A101C2AF121EAB8037
:1006F4000C90E6A0E04401F0800312186390E6A099
:05070400E04480F0223A
:100709001211BF120003121E0012116B12114B12AB
:10071900113470030208CB121810E53554FE453424
:1007290060197D017C007F24120003E4FDFC7F2415
:1007390012000375120175130080297E00E53554F6
:10074900017807C333CE33CED8F912118AF513E4F1
:100759003CF512E4FDFC7F24120003AD13AC127FBB
:1007690024120003E4FCFDE55D2513F55DE55C3528
:1007790012121199600E20080BE5365401453770A5
:100789000302087930090B3008047D42800D7D246D
:1007990080093008047D4080027D207C007F2E1274
:1007A9000003300809121E00400302071822E53031
:1007B900C313FCE53113FDEC90E6D0F0AF05EFA3D0
:1007C900F0E5131513AE12700215124E70030207ED
:1007D900187F2E121D1D8F11E5115488FFBF08F1D6
:1007E900E51130E0287F22121D1DE51130E319E4DF
:1007F900F515F5167F20121D1D0516E51670020563
:1008090015C3E515940140EC1219B2D322E5316400
:1008190040453070057517088003751701E4F51414
:10082900E514C39517509A1211346095121004AE4D
:1008390030AF3112117E120FA24006AE30AF3180B7
:1008490004AE36AF378E188F19E5192401FDE4354A
:1008590018FC7F20121CF8E5BB30E7FBE51890E691
:100869009CF0E519A3F0AE18FF121113051480B01E
:10087900121C553009047D2580027DC87C007F2E1D
:10088900120003AE12AF13E4FCFD7808120FC61272
:1008990018ED121EBF8F11E51130E0117F22121DD4
:1008A9001DEF30E70675581A75595DD322E4B51363
:1008B9000BE512B401061211A80207181211C6029B
:1008C9000718C3221211BF120003121E0012116B66
:1008D90012112E7002C3221211347003020A72120D
:1008E9001810E53554FE453460197D017C007F24DC
:1008F900120003E4FDFC7F24120003750F0175103B
:100909000080297E00E53554017807C333CE33CE04
:10091900D8F912118AF510E43CF50FE4FDFC7F24A7
:10092900120003AD10AC0F7F24120003E4FCFDE5B7
:100939005D2510F55DE55C350F1211996077E53697
:1009490054014537706F3009047D3580047DCA7CB8
:10095900007F2E120003E4B5100FE50FB4010A7FE2
:10096900007E007D017C008016E5372401FFE43517
:1009790036FEE43535FDE43534FC7801120FB31247
:1009890012D0121EBF8F0EE50E30E0147F22121D09
:100999001D8F0EE50E30E70675581A75595DD3227D
:1009A900E4B5100BE50FB401061211A80208E01214
:1009B90011C60208E03009047D3480027D307C00D4
:1009C9007F2E120003E5101510AE0F7002150F4EA1
:1009D90070030208E0121EBF8F0EE50E5488FFBF98
:1009E90008F3E531644045307005751208800375D8
:1009F9001201E4F511E511C39512505C90E6A3E0EC
:100A090020E2F990E690E0FEA3E0FDEEF50CEDF5AD
:100A19000DC39531E50C9530502CE4F0E50D24011A
:100A2900FDE4350CFC7F20121C7FAF117E00AC3039
:100A3900AD31120F90E50D2FFFE50C3EFAC3E537F6
:100A49009F12111A802390E691E4F0AD31AC307F0A
:100A590020121C7F0511809DC3E5379400F537E509
:100A690036940212111F0209CEE50E30E002D3229C
:020A7900C32296
:100A7B00120C0AE51354C0FFBF40F53005047DA1ED
:100A8B0080027DEC7C007F2E1200037F2E121D1D39
:100A9B008F13E51330E003020C09E5135488FFBFF5
:100AAB0008E9E4F514F5157F20121B98AC06AD0789
:100ABB00E51525E0FFE51433FE74002FF58274E095
:100ACB003EF583ECF0A3EDF00515E515700205146A
:100ADB00C3E514940140D07F2E121D1D8F1390E09F
:100AEB002FE0901FD0F090E02EE0901FD1F090E01F
:100AFB0031E0901FD2F090E030E0901FD3F0901FC8
:100B0B00B1C083C082E0FF90E001E05480FEEF4E65
:100B1B00D082D083F090E0A7E030E216D20990E0CB
:100B2B00C8E0F53BA3E0F53AA3E0F539A3E0F538CF
:100B3B00801AC20990E07BE0F53890E07AE0F53955
:100B4B0090E079E0F53A90E078E0F53B90E06DE0ED
:100B5B00F55390E06CE0F55490E06EE0F55590E0C5
:100B6B0070E0F55690E080E0F552E4F55190E06AC4
:100B7B00E030E21690E0B0E05434600EE030E20575
:100B8B0075514280087551448003E4F551E551607D
:100B9B001D120C0AE51354C0FFBF40F5AF51121CD8
:100BAB00D1E4F5647C0E7DC17B80FAFF802DE5528C
:100BBB00602E30E10B90E601E04440F07F0C800E9C
:100BCB00E55230E00C90E601E054BFF07F0B121CB5
:100BDB00D17C0E7DC17B807A007F007EE4121A26C9
:100BEB00AF57121D40C3E53B9401F53BE53A94002A
:100BFB00F53AE5399400F539E5389400F538227D5E
:100C0B00A07C007F2C1200037F2E121D1D8F132240
:100C1B009000407401F0A374FFF0A37410F0E4F59E
:100C2B0052F530753140046006C202C200C2017534
:100C3B00221275230075241275251275261275273D
:100C4B001C75281275293C752E12752F5C75321286
:100C5B0075330A90E678E05410FFC4540F4450F5F6
:100C6B0008121EA3853382853283E4F0A37403F04C
:100C7B00E50830E0047D0280027D01AE32AF33E542
:100C8B00087A0030E0047B0080027B01EB2FFBEA4B
:100C9B003EFAAF08121D7CAE32AF33AB07AA067D0E
:100CAB0004AF08121D607E127F0C90E680E030E7E7
:100CBB001A85262A85272B85282C85292D75300208
:100CCB00753100121E6D7401F0801185282A85295B
:100CDB002B85262C85272D121E6DE4F0D2E890E68D
:100CEB0068E04408F090E65CE04438F0D2AF90E660
:100CFB0080E04402F01202D9900040E0601AA3E0B9
:100D0B00FFA3E0853382853283CFF0A3EFF0D207C8
:100D1B00121BFAE4900040F090E680E054F7F05399
:0E0D2B008EF890E65CE04439F012136B80FB0A
:100D3900C0E0C083C082C085C084C086758600C0FB
:100D4900D075D000C000C001C002C003C006C007F2
:100D590090E678E030E206756306020E2390E678A5
:100D6900E020E10CE56364026006756307020E2367
:100D7900E56324FE605F14603624FE7003020E14DE
:100D890024FC7003020E2024086003020E23AB5FCB
:100D9900AA60A961AF6205628F82758300120F4153
:100DA90090E679F0E562655E7070756305806B9019
:100DB900E679E0AB5FAA60A961AE628E82758300B5
:100DC900120F6E756302E55E6401704E90E678E07D
:100DD9004420F08045E55E24FEB5620790E678E0A0
:100DE9004420F0E55E14B5620A90E678E04440F0EC
:100DF90075630090E679E0AB5FAA60A961AE628E87
:100E090082758300120F6E0562800F90E678E044C8
:100E190040F075630080037563005391DFD007D0FC
:100E290006D003D002D001D000D0D0D086D084D053
:080E390085D082D083D0E032A5
:100E41000A010A3F00000000020204010000000044
:100E5100FEFFFFFF00000000000000760000000020
:100E6100080A3F0000000000000601000000000029
:100E7100FDFFFF0000000000000036000000000040
:100E81000801051C03010201010002030202260000
:100E9100FFFBFAFAF8F9C3FF0909A8090000363F78
:100EA10008011305010201010100010000262600CD
:100EB100FFFBF8FBFBFBFFFF09090909002D363F8A
:100EC1000311013F000000000203020700000000BF
:100ED100FEFEFFFF000000000000003600000000E1
:100EE10005113F00000000000001070000000000A4
:100EF100FDFDFF00000000000000000000000000F8
:100F01000801061C0101020701000203020226007A
:100F1100FFFBFAFAF8FBFBFF09091209002D363F26
:100F2100080113010102010701000100002626004A
:100F3100FFFBF8FBFBFBFFFF0909091B002D363FF7
:100F4100BB010CE58229F582E5833AF583E0225065
:100F510006E92582F8E622BBFE06E92582F8E222AF
:100F6100E58229F582E5833AF583E49322F8BB0112
:100F71000DE58229F582E5833AF583E8F0225006F2
:100F8100E92582C8F622BBFE05E92582C8F222EFD7
:100F91008DF0A4A8F0CF8CF0A428CE8DF0A42EFE65
:100FA10022EB9FF5F0EA9E42F0E99D42F0E89C4574
:100FB100F022E8600FECC313FCED13FDEE13FEEF1E
:100FC10013FFD8F122E8600FEFC333FFEE33FEEDDC
:100FD10033FDEC33FCD8F122D083D082F8E4937056
:100FE10012740193700DA3A393F8740193F5828891
:0E0FF10083E4737402936860EFA3A3A380DF10
:010FFF0022CF
:0410000002193000A1
:0810040090E6A6E020E3F922CA
:0C100C00021E8A0002151F0002175A0085
:101018008F448C458D468A478B48E4F549F54A75D7
:101028004D70F54EFFEF20E319E54E154EAC4D70AF
:1010380002154DD39400EC940040077F2E121D1D1D
:1010480080E3E54E454D7005AE47AF4822E54EB406
:10105800FF09E54DB4FF04E4FEFF22300A11754B89
:1010680002754C00754702754800E4F549F54A7564
:101078004902754A00754B02754C00C3E548954A0C
:10108800E54795495006AE47AF488004AE49AF4A98
:101098008E478F48C3E54A9548F54AE5499547F58F
:1010A80049E4F54FF550E547C313FEE54813FFC380
:1010B800E5509FE54F9E5025AF44121B9885468208
:1010C800854583EEF0A3EFF074022546F546E43536
:1010D80045F5450550E55070CD054F80C920051DE3
:1010E800E54A454960177D027C00AF44121CF8743C
:1010F800FE254AF54A74FF3549F54980E3AE4BAF02
:021108004C2277
:10110A00E50D90E69CF0EFA3F0FBAA06C3E5379B3A
:10111A00F537E5369AF536E5359400F535E5349434
:10112A0000F5342290E6917480F0AF37AE36AD35D3
:10113A00AC34EC4D4E4F22250FF582E434FCF58396
:10114A002290E6917480F02275581A75598122AF5F
:10115A0037AE36AD35AC34E47B12FAF9F8C3020F78
:10116A00A290F011E0F55AA3E0F55BA3E0F55CA3C9
:10117A00E0F55D22E4FCFDAB37AA36A935A8342296
:10118A00FDAC06E53724FFE5363401C3132D22F5FD
:10119A005CED355BF55BEC355AF55AE5512274FE88
:1011AA002535F53574FF3534F53422E51075F0042C
:1011BA00A4FFAEF0227DE07C007F2C22E4F537F517
:0611CA0036F535F5342274
:1011D00090F00FE0FF24D6701D12115212003E74E1
:1011E00081B55908741AB558030208CD12112E6042
:1011F00003121631D32212112E6003121631D3229C
:101200001201000200000040C90A10008200010320
:1012100000010A060002000000400100090220004F
:10122000010100C000090400000208065000070583
:1012300088020002000705020200020009022000E5
:10124000010100C000090400000208065000070563
:101250008802400000070502024000000403090460
:1012600020034D006900630072006F0020005300EE
:101270006F006C007500740069006F006E007300F1
:101280001A033000300030003000300030003000F1
:101290003000300030003000310034034D00690070
:1012A000630072006F00200053006F006C00750037
:1012B000740069006F006E0073002000420041005E
:1012C00043004B005000410043004B002000000051
:1012D0008F168E158D148C13E4F517F51AF518F585
:1012E00019E51AC394045032AE18AF19E4FCFDABF3
:1012F00037AA36A935A834120FA2401E90E6A3E003
:1013000020E2F990E691E4F0F51B051AE531251984
:10131000F519E5303518F51880C71219ED90E61863
:101320007411F0E5BB30E7FB90E6C07408F07580FF
:10133000F090E6CEE4F0A3E514F0A3E515F0E51691
:10134000A3F090E6C67483F090E6D4E4F0AF808F0B
:1013500017EF30E0F8E5BB20E703121E5690E6C613
:0B136000E4F090E61804F0E4F51B2216
:10136B00E4F509F50A90E6A3E020E24C901BF5E0CA
:10137B00FCA3E0FDA3E0FEA3E0FF90F000E0F8A3E8
:10138B00E0F9A3E0FAA3E0FBC3120FA260028017FF
:10139B0090F00EE0240FFFE433FE90E690E0FCA308
:1013AB00E0C39FEC9E500890E6A37401F0800912F5
:1013BB001EB21217B9121EB990E6827455F0E4F5FD
:1013CB000BE020E62D90E680740AF0E58E54F8448D
:1013DB0005F58EE4F5B2F5B390E6C37480F0E4F551
:1013EB000B90E6C27407F0E4F50B7580BE121EABD2
:0313FB0080FE224F
:1013FE0090E6707401F07580B075B2FE7580B0E441
:10140E00F5B37580F0E59054607005753C0180036E
:10141E00E4F53C7580FEC28890E601748AF090E691
:10142E00007414F090E609E4F090E602F0A3F09058
:10143E00E6C3F090E6C27477F090E6C1E4F090E671
:10144E00C074B1F090E61274A0F090E6187405F036
:10145E0090E630E4F0A3F090E6D3F090E61574E059
:10146E00F090E61B7405F090E6147422F090E613EB
:10147E00F090E611F090E610F090E60BE04402F0EA
:03148E00021D98A4
:10149100F583E582250AF582E43583F583E085113C
:1014A10082851083F074022511F511E43510F510D1
:1014B100050AE50A22AA06C3E5379BF537E5369A00
:1014C100F536E5359400F535E5349400F53422AF71
:1014D10037AE36AD35AC34EC4D4E4F22850F82859B
:1014E1000E8322FFE4350CFEE50F2290E740F090D9
:1014F100E68AE4F0A322852B82852A83A37402F075
:1015010022852D82852C83A37407F022E53090E695
:0E15110026F0E531A3F022850D82850C8322A1
:10151F00C0E0C0F0C083C082C0D075D000C000C092
:10152F0001C002C003C004C005C006C00785282A39
:10153F0085292B1214F785262C85272D1215027558
:10154F00300075314090E6367480F0A37460F0740B
:10155F000C2401FFE434128F82F583E4F012150D91
:10156F0090E6047408F0121D9890E6A6E4F090E659
:10157F00A3F05391EF75A110E5416005C2AF121EA4
:10158F00ABD007D006D005D004D003D002D001D005
:0C159F0000D0D0D082D083D0F0D0E03259
:0615AB0075817C0215ECC5
:1015B100020C1BE493A3F8E493A34003F68001F229
:1015C10008DFF48029E493A3F85407240CC8C3333B
:1015D100C4540F4420C8834004F456800146F6DF0A
:1015E100E4800B0102040810204080901E23E47E59
:1015F100019360BCA3FF543F30E509541FFEE493FF
:10160100A360010ECF54C025E060A840B8E493A3C5
:10161100FAE493A3F8E493A3C8C582C8CAC583CAF0
:10162100F0A3C8C582C8CAC583CADFE9DEE780BEA8
:10163100E5AA30E007E4F50CF50D801D90E6ABE07E
:10164100FEA3E07C002400FFEC3EFE90E690E0FC6F
:10165100A3E02FF50DEC3EF50CE50D450C60069071
:10166100E6917480F0AE0CAF0DAB071214B61214F4
:10167100D0602290E6A3E020E2F990E690E0FEA39C
:10168100E0FBAA06C3E5379BF537E5369A1214C18C
:061691007480F080D922F4
:101697008F16121E3EE4FF121CA97F01121CA97FA0
:1016A70001121CA9E4FF121CA9751820751706E57D
:1016B70016551860047F0180027F00121CA9E518E7
:1016C700C313F518D517E8E4F519F51A751710E4DB
:1016D700FF121CA9E51A25E0F51AE51933F51912C9
:1016E7001DCAEF421AEE4219D517E4121E4AAE1967
:0316F700AF1A2205
:1016FA008F0CC20720075890E6A6E020E3F6E02008
:10170A00E0F290E6A3E020E203121D9890FC007438
:10171A0055F0A37453F0A37442F0A37453F0A3E5F5
:10172A003DF0A3E53EF0A3E53FF0A3E540F0A3E5D5
:10173A0037F0A3E536F0A3E535F0A3E534F0A3E5E9
:10174A000CF090E69CE4F0A3740DF0D20780A52279
:10175A00C0E0C083C082C0D075D000C006C0077E7A
:10176A00127F0C90E680E030E72F85262A85272B0A
:10177A001214F785282C85292D1215027530027549
:10178A00310090E6367489F0A37490F0EF2401FFDB
:10179A00E43E8F82F5837401F012150D5391EF75B3
:0F17AA00A120D007D006D0D0D082D083D0E0329B
:1017B90090F004E0F53DA3E0F53EA3E0F53FA3E09A
:1017C900F540A3E0F537A3E0F536A3E0F535A3E04E
:1017D900F534A3E020E7051214D0701375410330E6
:1017E90005051200468019120056E433FF80117571
:1017F900410230050512004E80061211D0E433FF74
:071809001216FA75410122DD
:101810001211BF120003E55A3009147F2612185A1C
:10182000E4FDFC7F28120003E4FDFC7F2A800944CC
:10183000E0FD3395E0FC7F2C120003E55DFD339560
:10184000E0FC7F26120003E55C7F2812185AE55B56
:10185000FD3395E0FC7F2A020003FD3395E0FC1286
:0318600000032260
:1018630090E6B9E024EF60291460322402703690C8
:10187300E6BCE0D394FE500A30060790E74074FEBE
:10188300800490E740E4F0A3F01214F07402F080B7
:101893001474E090E6B3F07480A3F0800890E6BC83
:0718A300E0FF121D40D322FB
:1018AA008E138F14121DDCE4F515AF15121697ADC1
:1018BA0007AC060514E514AA137002051314F58281
:1018CA008A83EFF0AF040514E514AA137002051316
:1018DA0014F5828A83EFF00515E515C3944040CAD2
:0318EA00021E32A9
:1018ED008F1D8E1C8D1B8C1AE5BB30E7FB90E6C05F
:1018FD007403F07580F090E6CEE4F0A3E51BF0A341
:10190D00E51CF0E51DA3F090E6C67482F075BB07EB
:10191D00E58030E0FBE5BB20E703121E5690E6C6DE
:03192D00E4F022C1
:10193000C0E0C0F0C083C082C0D075D000C000C07D
:1019400001C002C003C004C005C006C007120524C0
:101950005391EF75A101D007D006D005D004D00374
:10196000D002D001D000D0D0D082D083D0F0D0E04F
:011970003244
:101971008E138F1490E600E05418700DE513C31315
:10198100F513E51413F514801590E600E05418FFE3
:10199100BF100BE51425E0F514E51333F513E51439
:1019A1001514AE13700215134E6005121E1280EE4F
:0119B1002213
:1019B2001214D06035121004AE30AF31E4FCFDAB2E
:1019C20037AA36A935A834C3120FA25006AE36AFD5
:1019D200378004AE30AF318E1A8F1BE51A90E69C29
:0B19E200F0EFA3F0FB1214B680C62249
:1019ED0090E6C77470F0A3E4F0A37408F090E6CB12
:1019FD007411F0A37403F0E551B44206A37404F01E
:101A0D00800690E6CD7402F090E60C7401F090E63D
:091A1D00D2F090E6017486F0227B
:101A26008E168F178C188D19EB1BAE0270011A4E8D
:101A360060240519E519AE187002051814F5828E92
:101A460083E0FF0517E517AC167002051614F5823C
:071A56008C83EFF080D22227
:101A5D0070000B00000000000000000008030000F3
:101A6D0000007000050000000000000000002400D0
:101A7D0000000000700000000000000000000000E9
:061A8D0000000000000053
:101A9300E53CD39400402E90E601E0FEEF240425BC
:101AA300E044F0F580EE54FCF075B3FF8D90638055
:101AB30080E4FF120FFF0FBF64F9638080E4F5B386
:061AC30090E601EEF022A6
:101AC90090E678E020E6F9C2E990E678E04480F013
:101AD900EF25E090E679F090E678E030E0F990E6DD
:101AE90078E04440F090E678E020E6F990E678E086
:061AF90030E1D6D2E92223
:101AFF00A90790E678E020E6F9E563702590E6788F
:101B0F00E04480F0E925E0440190E679F08D5EAF86
:101B1F0003A907755F018A608961E4F56275630344
:041B2F00D322C322D8
:101B3300E53CD39400402990E601E0FEEF25E04424
:101B4300F0F580EE54FCF0E4F5B3638080FF120FF0
:101B5300FF0FBF64F9AF9063808090E601EEF0223F
:031B63007F0022DE
:101B6600A90790E678E020E6F9E563702390E67829
:101B7600E04480F0E925E090E679F08D5EAF03A9B8
:101B860007755F018A608961E4F562756301D32296
:021B9600C32268
:101B9800E5BB30E7FB90E6C07410F0EF44C0F58079
:101BA80090E6F1E0FF7E00E5BB30E7FB90E6F2E06F
:101BB800FE90E6F0E07C002400FFEC3EFE7580FE1F
:011BC80022FA
:101BC90000000321270000004241434B5041434B91
:101BD90044726976652020202020202020202020A2
:101BE900312E303030322F30362F30335553424377
:011BF90000EB
:101BFA0030070990E680E0440AF0800790E680E02A
:101C0A004408F07FDC7E0512197190E65D74FFF0DE
:0F1C1A0090E65FF05391EF90E680E054F7F022F0
:101C2900A907AE2EAF2F8F828E83A3E064037017AE
:101C3900AD0119ED7001228F828E83E07C002FFDAA
:0C1C4900EC3EFEAF0580DF7E007F002235
:101C550090E6C77436F0A3E4F0A37402F090E6CBE7
:101C650074D0F0A37403F090E60C7401F090E61BB9
:0A1C7500740DF090E60174C6F02231
:101C7F007513007514C8E5BB30E7FB90E6C0E4F0C0
:101C8F00EF44C0F580ECC313FAED13FBEA90E6D0F6
:0A1C9F00F0AF03EFA3F0E4F5BB2261
:101CA900531FFCEF6003431F02AD1F7F01121A93FC
:101CB900E51F4401FDF51F7F01121A93E51F54FE2C
:081CC900FDF51F7F01021A93D3
:101CD1008F167DA07C007F2C120003E516FD7C0091
:101CE1007F241200037D037C007F221200037DEF1D
:071CF1007C007F2E020003BE
:101CF800E5BB30E7FB90E6C07401F0EF44C0F58027
:101D0800ECC313FAED13FBEA90E6D0F0AF03EFA3B0
:051D1800F075BB07227D
:101D1D00E5BB30E7FB90E6C07410F0EF44C0F580F2
:101D2D0090E6F1E0FFE5BB30E7FB90E6F2E0FF75F2
:031D3D0080FE2203
:101D40008F1E121E00AF1E8F57EFFD3395E0FC7FF4
:101D5000241200037D977C007F2E120003021E00D8
:101D6000121AFFE56324FA600E146006240770F36C
:101D7000D322E4F563D322E4F563D322121B66E594
:101D80006324FA600E146006240770F3D322E4F58E
:081D900063D322E4F563D322C2
:101D9800E58E54F84405F58E90E6047402F090E65A
:0B1DA800917480F0F0F0F0538EF822F0
:101DB3007F007E70308909EF1F70011EEF4E70F4B3
:071DC3007F2E121D1DC3223B
:101DCA007F01121B33EF7E0030E4047F0180027F23
:101DDA0000227F01121B338F1FEF4408FDF51F7F7E
:041DEA0001021A9345
:101DEE007DA07C007F2C120003C205300503121E5D
:021DFE0062225F
:101E0000121EBFEF20E7F9121EBFEF30E002D3220F
:021E1000C322EB
:101E12007400F58690FDA57C05A3E582458370F9E3
:011E2200229D
:091E2300015200015100015718A1
:051E2C00C106013C00AD
:011E310000B0
:101E3200E51F54F7FDF51F7F01021A93E51F4404C5
:101E4200FDF51F7F01021A93E51F54FBFDF51F7F6D
:041E520001021A93DC
:0C1E560090E6C6E4F090E6F574FFF02280
:0B1E6200C207200505A207E433FF22A1
:0B1E6D00EF2401FFE43E8F82F583228A
:091E7800E5421214EC04F0D3223F
:091E8100E5431214EC04F0D32235
:091E8A00D2025391EF75A1083258
:081E930090E6BAE0F542D3220B
:081E9B0090E6BAE0F543D32202
:081EA300E4F563D2E9D2AF229D
:071EAB007400C0E0C0E0324A
:0D1EB2007DC0E4FF021A93E4FDFF021A93C5
:061EBF007F2E121D1D2202
:021EC500D32226
:00000001FF
