:0300000002125E8B
:10000300E5BB30E7FB90E6C0E4F0EF44C0F580ECDD
:1000130090E6F0F0EDA3F0E5BB30E7FB7580FE2240
:0D002600121C6E121C0CEF4E60F9021C7AC9
:0700330002003653D8EF3242
:01003A0022A3
:02003E00C322DB
:03004300021000A8
:030046008F3C22CA
:02004900C322D0
:03004B00020A297D
:04004E00D322D322C4
:01005200228B
:100056007525FFC20690E600E054E74412F0E4F589
:100066002CF52C90E6827455F0F07F647E00121712
:100076000E90E682E020E60890E680740AF080F1B1
:10008600E4F54A1210B17C0B7D317B807A007F004B
:100096007EE412186F121BC4121838EF6003121890
:1000A60038120477121838EF600312183890E67881
:1000B600E05410FFC4540F4450F523121CC8E490BA
:1000C600E000F0A3F0E52330E0047D0280027D012C
:1000D6007AE07B00AF23121B8D7AE07B007D80AF38
:1000E60023121B717526E07527807524801211CBAB
:1000F600E4F00527E52770020526D524F07526E0ED
:100106007527807528E0752900E5456003020241E0
:10011600121190E064C2704074082529F529E48024
:1001260031121190A3A3E0FEA3E0B40008EEB4E000
:100136000474048025121190E0FEA3E0FFEE20E790
:1001460022EE5403FEEF2404FFE43EFEEF2529F5DC
:1001560029EE3528F52880C974082529F529E435BE
:1001660028F528121190E0FEA3E064507003EE64B7
:10017600426003020248121190A3A3E0F525E52987
:100186002404F582E43528F583E0FFE5272404F509
:1001960082E43526F583EFF0121190A3A3A3E012B3
:1001A60011CBA3A3A3F0E527242F12119724057BD7
:1001B60008120287E5272437121197240D7B1012A7
:1001C6000287E5272447121197241DFDE43528FCF4
:1001D6007B047A0012186F85082A85092B748225FC
:1001E6002BF52B7400352AF52AE4F524E52924217C
:1001F600F582E43528121144B404F1E527246E1281
:1002060011972425F9E43528FCAD017B087A001204
:10021600186FE525D394004029E529242DF582E4BD
:100226003528F583E0FEA3E0FFE527244CF582E4BC
:100236003526F583EEF0A3EFF080077EE07F80128F
:10024600164785082A85092B74822408FFE43400A2
:10025600FEEF252BF52BEE352AF52AE4F524E527C6
:10026600246EF582E43526121144B408F1E54DC436
:1002760054F0FFE54E540F2F1211CBA3A3F0D20674
:0C02860022FDE43528FC7A0012186F22DB
:1002920090E6B9E012108B033B0003A401040603AD
:1002A20002B806033508032F0903230A03290B04A6
:1002B20049FF0000046C90E6BBE024FE6028146055
:1002C2003F24FD601414602B24067052E50890E66A
:1002D200B3F0E509A3F002046FE50A90E6B3F0E596
:1002E2000BA3F002046FE51090E6B3F0E511A3F062
:1002F20002046FE51290E6B3F0E513A3F002046F77
:1003020090E6BAE0FF121A3CAA06A9077B01EA4965
:100312004B600BEE90E6B3F0EFA3F002046F020421
:1003220063121CA602046F121CC002046F121CB8D6
:1003320002046F121C9D02046F12004E400302045D
:100342006F90E741E4F090E6B8E0247F6019146012
:10035200202402704AA200E43325E0FFA201E43324
:100362004F90E740F0802C90E740E4F090E68A80DE
:100372002690E6BCE0B4020590E6A3800A90E6BCB3
:10038200E0B4880C90E6A6E0540190E740F08003C8
:1003920002046390E68AE4F0A37402F002046F029E
:1003A2000463120050400302046F90E6B8E024FE9A
:1003B20060162402600302046F90E6BAE0B40105FD
:1003C200C20002046F02046390E6BAE0703490E661
:1003D200BCE0B40214121BA990E6837402F07422EA
:1003E200F090E6A3E4F002046F90E6BCE0B488105B
:1003F20090E6837418F07438F090E6A6E4F0806D0D
:10040200805F805D120DFE503E90E6B8E024FE60F3
:10041200112402705890E6BAE0B40104D200804D73
:10042200803F90E6BAE0701D90E6BCE0B402059011
:10043200E6A3800A90E6BCE0B4880890E6A67401C0
:10044200F0802A801C801A90E6B8E0B4211390E66E
:10045200BCE0700D5391EF75A101C2AF121CD080A8
:100462000C90E6A0E04401F08003120DB790E6A0E4
:05047200E04480F022CF
:10047700120620E52D54C0FFBF40F53005047DA1CD
:1004870080027DEC7C007F2E1200037F2E121B3032
:100497008F2DE52D30E00302061FE52D5488FFBFA1
:1004A70008E9E4F52EF52F7F201219ABAC06AD074E
:1004B700E52F25E0FFE52E33FE74002FF58274E06B
:1004C7003EF583ECF0A3EDF0052FE52F7002052E26
:1004D700C3E52E940140D07F2E121B308F2D90E064
:1004E70001E0541F901FB0F090E02FE0901FD0F074
:1004F70090E02EE0901FD1F090E031E0901FD2F015
:1005070090E030E0901FD3F0901FB1C083C082E02D
:10051700FF90E001E05480FEEF4ED082D083F09050
:10052700E0A7E030E216D20990E0C8E0F544A3E086
:10053700F543A3E0F542A3E0F541801AC20990E034
:100547007BE0F54190E07AE0F54290E079E0F54311
:1005570090E078E0F54490E06DE0F54F90E06CE0D6
:10056700F55090E06EE0F55190E070E0F55290E0C4
:1005770080E0F54EE4F54D90E06AE030E21690E059
:10058700B0E05434600EE030E205754D42800875E6
:100597004D448003E4F54DE545600C7F0112194693
:1005A700EF30E603E4F54DE54D601D120620E52D1D
:1005B70054C0FFBF40F5AF4D121AE4E4F5597C0B68
:1005C7007DB17B80FAFF802DE54E602E30E10B90E8
:1005D700E601E04440F07F0C800EE54E30E00C90E1
:1005E700E601E054BFF07F0B121AE47C0B7DB17B70
:1005F700807A007F007EE412186FAF53120046C363
:10060700E5449401F544E5439400F543E54294003D
:10061700F542E5419400F541227DA07C007F2C1234
:0A06270000037F2E121B308F2D22DE
:10063100E4F528F529F52AF52BF52EF52FC207D279
:10064100087F2E121B308F27E52720E7F420E303D4
:100651007F0022E52730E003020758300703020735
:10066100581215407003020758E5294528700712F2
:100671001B538E288F2990E6A6E020E3F9C3E52FCE
:100681009517E52E95164003020730300703020740
:10069100301215407003020730C3E517952FFFE5AF
:1006A10016952EFEC3EF9529EE952850028004AED3
:1006B10028AF298E2A8F2B12158A5006AE3FAF40E4
:1006C1008004AE2AAF2B8E2A8F2BE52B2401FDE46B
:1006D100352AFC7F20121B0BC3E529952BF529E553
:1006E10028952AF528AE2AAF2B12154DE52B252F7B
:1006F100F52FE52A352EF52E121CE4EF20E7F9122D
:100701001CE48F27E52730E007D207D20802067ED6
:10071100E52720E307D207C20802067EE52945281E
:10072100600302067E121B538E288F2902067EE586
:100731002F65177004E52E6516600AE4C31215696A
:100741006003020654E52E90E69CF0E52FA3F0E449
:10075100F52EF52F020654121540605A121004E5C9
:100761002F2540FBE52E353FFAE4353EF9E4353DD2
:10077100F8AE16AF17E4FCFDC3121067500CE52F5D
:100781002540FFE52E12157E8007AE16AF17E4FC5B
:10079100FD8E2C8F2DE52C90E69CF0EFA3F0C395F8
:1007A1002FFFE52C952EFEFAC3E5409F121555E467
:1007B100F52EF52F80A1121CE4EF20E306E5294573
:0C07C1002860037F0222A208E433FF221C
:1007CD00E4F527F528F529F52AF52BF52CF52DC29D
:1007DD0007C208F52E121CE4EF20E7F9121CE48F76
:1007ED0029E52920E3030208EDE52930E00302089D
:1007FD00ED3007030208ED12154070030208ED906D
:10080D00E6A3E0540570E2E51724FFFFE51634FF7B
:10081D00FE90E690E05EFEA3E05F4E6002D208908F
:10082D00E691E4F0E52845277007121B538E278FBC
:10083D0028E4F52CF52DD3E517952DE516952C40CF
:10084D00A82007A512154060A0E517952DFFE51608
:10085D00952CFEC3EF9528EE952750028004AE2708
:10086D00AF288E2A8F2B12158A5006AE3FAF4080CF
:10087D0004AE2AAF2B8E2A8F2BE52B2401FDE435F8
:10088D002AFC7F20121A92AE2AAF2B12154DC3E50A
:10089D0028952BF528E527952AF527E52B252DF508
:1008AD002DE52A352CF52C121CE4EF20E7F9121C4E
:1008BD00E48F29E52930E008752E01D2070208439F
:1008CD00E52920E308D207E4F52E020843E5284583
:1008DD00276003020843121B538E278F28020843FB
:1008ED00121CE4EF20E306E52845276003752E0270
:0E08FD00121540600620080312135BAF2E2276
:10090B009000407401F0A374FFF0A37410F0E4F5B1
:10091B004EF516751740046006C202C200C201757F
:10092B00080E750900750A0E750B12750C0E750DF8
:10093B001C750E0E750F3C75140E75155C75180E27
:10094B0075190A90E678E05410FFC4540F4450F523
:10095B0022121CC8851982851883E4F0A37403F056
:10096B00E52230E0047D0280027D01AE18AF19E56F
:10097B00227A0030E0047B0080027B01EB2FFBEA44
:10098B003EFAAF22121B8DAE18AF19AB07AA067D2C
:10099B0004AF22121B717E0E7F0C90E680E030E7D5
:1009AB001A850C10850D11850E12850F1375160205
:1009BB00751700121C927401F08011850E10850FB3
:1009CB0011850C12850D13121C92E4F0D2E890E6FF
:1009DB0068E04408F090E65CE04438F0D2AF90E673
:1009EB0080E04402F0120056900040E0601AA3E051
:1009FB00FFA3E0851982851883CFF0A3EFF0D20710
:100A0B00121A0DE4900040F090E680E054F7F0539A
:0E0A1B008EF890E65CE04439F0120F6B80FB21
:100A2900C0E0C083C082C085C084C086758600C00E
:100A3900D075D000C000C001C002C003C006C00705
:100A490090E678E030E206751F06020B1390E6780F
:100A5900E020E10CE51F64026006751F07020B1315
:100A6900E51F24FE605F14603624FE7003020B0448
:100A790024FC7003020B1024086003020B13AB1B48
:100A8900AA1CA91DAF1E051E8F827583001210189E
:100A990090E679F0E51E651A7070751F05806B90F8
:100AA900E679E0AB1BAA1CA91DAE1E8E82758300D8
:100AB900121045751F02E51A6401704E90E678E040
:100AC9004420F08045E51A24FEB51E0790E678E03B
:100AD9004420F0E51A14B51E0A90E678E04440F087
:100AE900751F0090E679E0AB1BAA1CA91DAE1E8EEE
:100AF90082758300121045051E800F90E678E04448
:100B090040F0751F008003751F005391DFD007D097
:100B190006D003D002D001D000D0D0D086D084D066
:080B290085D082D083D0E032B8
:100B31000A010A3F00000000020204010000000057
:100B4100FEFFFFFF00000000000000760000000033
:100B5100080A3F000000000000060100000000003C
:100B6100FDFFFF0000000000000036000000000053
:100B71000801051C03010201010002030202260013
:100B8100FFFBFAFAF8F9C3FF0909A8090000363F8B
:100B910008011305010201010100010000262600E0
:100BA100FFFBF8FBFBFBFFFF09090909002D363F9D
:100BB1000311013F000000000203020700000000D2
:100BC100FEFEFFFF000000000000003600000000F4
:100BD10005113F00000000000001070000000000B7
:100BE100FDFDFF000000000000000000000000000B
:100BF1000801061C0101020701000203020226008E
:100C0100FFFBFAFAF8FBFBFF09091209002D363F39
:100C1100080113010102010701000100002626005D
:100C2100FFFBF8FBFBFBFFFF0909091B002D363F0A
:100C31008F2D8C2E8D2F8A308B31E4F532F5337563
:100C41003670F537FFEF20E319E5371537AC36700D
:100C5100021536D39400EC940040077F2E121B300E
:100C610080E3E53745367005AE30AF3122E537B464
:100C7100FF09E536B4FF04E4FEFF223008117534A4
:100C810002753500753002753100E4F532F5331225
:100C91001B538E328F338E348F35C3E5319533E557
:100CA1003095325006AE30AF318004AE32AF338E64
:100CB100308F31E4F538F539E530C313FEE53113F2
:100CC100FFC3E5399FE5389E5025AF2D1219AB853D
:100CD1002F82852E83EEF0A3EFF07402252FF52FDE
:100CE100E4352EF52E0539E53970CD053880C9205A
:100CF100051DE533453260177D027C00AF2D121BC7
:100D01000B74FE2533F53374FF3532F53280E3AED3
:040D110034AF3522A4
:100D15008E2D8F2E12174F121CE4EF20E7F97DA0C0
:100D25007C007F2E1200037F2E121B308F2FE52FA4
:100D350030E70330E3F1E4F530E530C3940C503986
:100D4500E5302401FFE433FEE52E2FF582E52D3E47
:100D5500F583E0753100F532E52E2530F582E43571
:100D65002DF583E0FDE532F531EDF532AC317F202F
:100D75001200030530053080C07F1C121B308F2FF9
:100D85007F1C121B308F2F30040990E6F4E030E110
:100D950002C322E52F30E70330E3E5300409E52FF0
:100DA50030E002D322C322121CE4EF30E002D3224A
:020DB500C32257
:100DB70090E6B9E024EF602914603224027036907F
:100DC700E6BCE0D394FE500A30060790E74074FE75
:100DD700800490E740E4F0A3F01211A37402F080BE
:100DE7001474E090E6B3F07480A3F0800890E6BC3A
:070DF700E0FF120046D322C9
:020DFE00D322FE
:100E00001201000200000040C90A10008200010324
:100E100000010A0600020000004001000902200053
:100E2000010100C000090400000208065000070587
:100E300088020002000705020200020009022000E9
:100E4000010100C000090400000208065000070567
:100E50008802400000070502024000000403090464
:100E600020034D006900630072006F0020005300F2
:100E70006F006C007500740069006F006E007300F5
:100E80001A033000300030003000300030003000F5
:100E90003000300030003000310034034D00690074
:100EA000630072006F00200053006F006C0075003B
:100EB000740069006F006E00730020004200410062
:100EC00043004B005000410043004B002000000055
:100ED0008F2A8E298D288C27E4F52BF52EF52CF5FD
:100EE0002DE52EC394045032AE2CAF2DE4FCFDABA7
:100EF00040AA3FA93EA83D121067401E90E6A3E01D
:100F000020E2F990E691E4F0F52F052EE517252D66
:100F1000F52DE516352CF52C80C71217C690E6186E
:100F20007411F0E5BB30E7FB90E6C07408F0758003
:100F3000F090E6CEE4F0A3E528F0A3E529F0E52A59
:100F4000A3F090E6C67483F090E6D4E4F0AF808F0F
:100F50002BEF30E0F8E5BB20E703121C8690E6C6D5
:0B0F6000E4F090E61804F0E4F52F2206
:100F6B00E4F523F52490E6A3E020E24C901A08E088
:100F7B00FCA3E0FDA3E0FEA3E0FF90F000E0F8A3EC
:100F8B00E0F9A3E0FAA3E0FBC3121067600280173D
:100F9B0090F00EE0240FFFE433FE90E690E0FCA30C
:100FAB00E0C39FEC9E500890E6A37401F0800912F9
:100FBB001CD71215F0121CDE90E6827455F0E4F586
:100FCB0025E020E62D90E680740AF0E58E54F84477
:100FDB0005F58EE4F5B2F5B390E6C37480F0E4F555
:100FEB002590E6C27407F0E4F5257580BE121CD07F
:030FFB0080FE2253
:041000000216CD0007
:0810040090E6A6E020E3F922CA
:0C100C00021CAF000211D200021484008C
:10101800BB010CE58229F582E5833AF583E022508D
:1010280006E92582F8E622BBFE06E92582F8E222D7
:10103800E58229F582E5833AF583E49322F8BB013A
:101048000DE58229F582E5833AF583E8F02250061A
:10105800E92582C8F622BBFE05E92582C8F222EB03
:101068009FF5F0EA9E42F0E99D42F0E89C45F022A7
:10107800E8600FECC313FCED13FDEE13FEEF13FF56
:10108800D8F122D083D082F8E4937012740193705F
:101098000DA3A393F8740193F5828883E473740213
:0910A800936860EFA3A3A380DFAD
:1010B10090E6707401F07580B075B2FE7580B0E491
:1010C100F5B37580F0E590546070057545018003B6
:1010D100E4F5457580FEC28890E601748AF090E6D9
:1010E100007414F090E609E4F090E602F0A3F090A9
:1010F100E6C3F090E6C27477F090E6C1E4F090E6C2
:10110100C074B1F090E61274A0F090E6187405F086
:1011110090E630E4F0A3F090E6D3F090E61574E0A9
:10112100F090E61B7405F090E6147422F090E6133B
:10113100F090E611F090E610F090E60BE04402F03A
:03114100021BA9E5
:10114400F583E5822524F582E43583F583E0852B58
:1011540082852A83F07402252BF52BE4352AF52A9F
:101164000524E52422AA06C3E5409BF540E53F9A01
:10117400F53FE53E9400F53EE53D9400F53D22AF94
:1011840040AE3FAD3EAC3DEC4D4E4F2285298285AD
:10119400288322FFE43526FEE5292290E740F090DB
:1011A400E68AE4F0A322851182851083A37402F0F9
:1011B40022851382851283A37407F022E51690E634
:0E11C40026F0E517A3F02285278285268322D8
:1011D200C0E0C0F0C083C082C0D075D000C000C0E3
:1011E20001C002C003C004C005C006C007850E10BE
:1011F200850F111211AA850C12850D131211B575E6
:10120200160075174090E6367480F0A37460F0748F
:101212000C2401FFE4340E8F82F583E4F01211C036
:1012220090E6047408F0121BA990E6A6E4F090E69A
:10123200A3F05391EF75A110E54A6005C2AF121CED
:10124200D0D007D006D005D004D003D002D001D030
:0C12520000D0D0D082D083D0F0D0E032A9
:06125E0075817102129F70
:1012640002090BE493A3F8E493A34003F68001F28C
:1012740008DFF48029E493A3F85407240CC8C3338B
:10128400C4540F4420C8834004F456800146F6DF5A
:10129400E4800B0102040810204080901C53E47E7B
:1012A400019360BCA3FF543F30E509541FFEE4934F
:1012B400A360010ECF54C025E060A840B8E493A316
:1012C400FAE493A3F8E493A3C8C582C8CAC583CA41
:1012D400F0A3C8C582C8CAC583CADFE9DEE780BEF9
:1012E400E4F526C204C203E54D601290F00FE02439
:1012F40058600424807004D2048002C2047F0F7EEC
:10130400F0120D15E433F52690E6917480F0E5268D
:10131400600612178B7F0122E540453F701AE53EB7
:10132400453D7014121CE4EF20E7F9121CE4EF3081
:10133400E3037F02227F00223004091214E3E43322
:10134400F52680051206318F261215406006121705
:071354008BAF2622AF262219
:10135B00E5AA30E007E4F52FF530801D90E6ABE011
:10136B00FEA3E07C002400FFEC3EFE90E690E0FC48
:10137B00A3E02FF530EC3EF52FE530452F600690BE
:10138B00E6917480F0AE2FAF30AB071211691211DA
:10139B0083602290E6A3E020E2F990E690E0FEA3C2
:1013AB00E0FBAA06C3E5409BF540E53F9A1211749A
:0613BB007480F080D922CD
:1013C1008F30121C6EE4FF121ABC7F01121ABC7F0F
:1013D10001121ABCE4FF121ABC753220753106E500
:1013E10030553260047F0180027F00121ABCE53261
:1013F100C313F532D531E8E4F533F534753110E432
:10140100FF121ABCE53425E0F534E53333F5331228
:101411001C0CEF4234EE4233D531E4121C7AAE3368
:03142100AF3422C3
:101424008F26C20720075890E6A6E020E3F6E020C6
:10143400E0F290E6A3E020E203121BA990FC007402
:1014440055F0A37453F0A37442F0A37453F0A3E5CE
:1014540046F0A3E547F0A3E548F0A3E549F0A3E58A
:1014640040F0A3E53FF0A3E53EF0A3E53DF0A3E59E
:1014740026F090E69CE4F0A3740DF0D20780A52238
:10148400C0E0C083C082C0D075D000C006C0077E53
:101494000E7F0C90E680E030E72F850C10850D114F
:1014A4001211AA850E12850F131211B57516027545
:1014B400170090E6367489F0A37490F0EF2401FFCE
:1014C400E43E8F82F5837401F01211C05391EF75DD
:0F14D400A120D007D006D0D0D082D083D0E03274
:1014E300121A68121578780112107812168A90E68B
:1014F300D0A3E025E0FD0582D5820215831582E0A5
:1015030033FC90E6CEE0FEA3E07811C333CE33CEB6
:10151300D8F92DFFEE3CFEE48F408E3FF53EF53DBE
:1015230090E61B7405F0121CE4EF30E002D322EFC7
:0D15330030E302D322E55960021559C322AE
:10154000AF40AE3FAD3EAC3DEC4D4E4F22AB07AA97
:1015500006C3E5409BF540E53F9AF53FE53E940024
:10156000F53EE53D9400F53D22FFFEFDFCAB40AAB3
:101570003FA93EA83D021067E5402401FFE4353F46
:10158000FEE4353EFDE4353DFC22E4FCFDAB40AA23
:091590003FA93EA83DC30210670B
:10159900752601C204E54D601290F00FE0245660F3
:1015A9000424807004D2048002C2047F0F7EF012EA
:1015B9000D15E433F52690E6917480F0E526600D6B
:1015C900E4D3121569400312135B7F0122121540FF
:1015D9007003AF26223004071217FF8F26800512E9
:0715E90007CD8F26AF26227B
:1015F00090F004E0F546A3E0F547A3E0F548A3E04A
:10160000F549A3E0F540A3E0F53FA3E0F53EA3E0F4
:10161000F53DA3E020E7051211837013754A0330EE
:1016200005051212E4801912003EE433FF801175A3
:101630004A023005051215998006120049E433FF6D
:07164000121424754A012277
:101647008E2D8F2E121C1EE4F52FAF2F1213C1AD56
:1016570007AC06052EE52EAA2D7002052D14F5827E
:101667008A83EFF0AF04052EE52EAA2D7002052D13
:1016770014F5828A83EFF0052FE52FC3944040CA03
:03168700021C62E0
:10168A008F2A8E298D288C27E5BB30E7FB90E6C090
:10169A007403F07580F090E6CEE4F0A3E528F0A399
:1016AA00E529F0E52AA3F090E6C67482F075BB0737
:1016BA00E58030E0FBE5BB20E703121C8690E6C616
:0316CA00E4F02227
:1016CD00C0E0C0F0C083C082C0D075D000C000C0E3
:1016DD0001C002C003C004C005C006C007120292BB
:1016ED005391EF75A101D007D006D005D004D003DA
:1016FD00D002D001D000D0D0D082D083D0F0D0E0B5
:01170D0032A9
:10170E008E2D8F2E90E600E05418700DE52DC3132C
:10171E00F52DE52E13F52E801590E600E05418FFFA
:10172E00BF100BE52E25E0F52EE52D33F52DE52E1C
:10173E00152EAE2D7002152D4E6005121C4280EE38
:01174E002278
:10174F007DA07C007F2C120003121CE4EF20E7F930
:10175F003004067D017C008003E4FDFC7F22120033
:10176F00037DFF7C007F281200037DFF7C007F2A12
:0C177F001200037D087C007F1C020003A8
:10178B001211836035121004AE16AF17E4FCFDABDB
:10179B0040AA3FA93EA83DC31210675006AE3FAF0B
:1017AB00408004AE16AF178E278F28E52790E69C56
:0B17BB00F0EFA3F0FB12116980C622C2
:1017C60090E6C77470F0A3E4F0A37408F090E6CB3B
:1017D6007411F0A37403F0E54DB44206A37404F04B
:1017E600800690E6CD7402F090E60C7401F090E667
:0917F600D2F090E6017486F022A5
:1017FF001215787801121078120ED090E6CEE0FE16
:10180F00A3E04E7010A3E0FEA3E04E7008F540F584
:10181F003FF53EF53D121CE4EF30E0037F0122EF70
:09182F0030E3037F02227F002256
:10183800C207200506A207E433FF22C2047E1B7FED
:10184800DD120D15920730071D7E1B7FE9120D155D
:1018580092077CE07D00C2087B127A007F20120C80
:071868003190E00CE0FF22CB
:10186F008E308F318C328D33EB1BAE0270011A4EDE
:10187F0060240533E533AE327002053214F5828EE3
:10188F0083E0FF0531E531AC307002053014F5828D
:07189F008C83EFF080D222E0
:1018A600E545D39400402E90E601E0FEEF240425A2
:1018B600E044F0F580EE54FCF075B3FF8D90638044
:1018C60080E4FF1200520FBF64F9638080E4F5B331
:0618D60090E601EEF02295
:1018DC0090E678E020E6F9C2E990E678E04480F002
:1018EC00EF25E090E679F090E678E030E0F990E6CC
:1018FC0078E04440F090E678E020E6F990E678E075
:06190C0030E1D6D2E92211
:10191200A90790E678E020E6F9E51F702590E678C1
:10192200E04480F0E925E0440190E679F08D1AAFB9
:1019320003A907751B018A1C891DE4F51E751F0387
:04194200D322C322C7
:10194600E545D39400402990E601E0FEEF25E0440A
:10195600F0F580EE54FCF0E4F5B3638080FF1200EE
:10196600520FBF64F9AF9063808090E601EEF022DB
:031976007F0022CD
:10197900A90790E678E020E6F9E51F702390E6785C
:10198900E04480F0E925E090E679F08D1AAF03A9EB
:1019990007751B018A1C891DE4F51E751F01D322D9
:0219A900C32257
:1019AB00E5BB30E7FB90E6C07410F0EF44C0F58068
:1019BB0090E6F1E0FF7E00E5BB30E7FB90E6F2E05E
:1019CB00FE90E6F0E07C002400FFEC3EFE7580FE0E
:0119DB0022E9
:1019DC0000000321270000004241434B5041434B80
:1019EC004472697665202020202020202020202091
:1019FC00312E303030322F30362F30335553424366
:011A0C0000D9
:101A0D0030070990E680E0440AF0800790E680E018
:101A1D004408F07FDC7E0512170E90E65D74FFF032
:0F1A2D0090E65FF05391EF90E680E054F7F022DF
:101A3C00A907AE14AF158F828E83A3E064037017D1
:101A4C00AD0119ED7001228F828E83E07C002FFD99
:0C1A5C00EC3EFEAF0580DF7E007F002224
:101A680090E6C77436F0A3E4F0A37402F090E6CBD6
:101A780074D0F0A37403F090E60C7401F090E61BA8
:0A1A8800740DF090E60174C6F02220
:101A9200752F007530C8E5BB30E7FB90E6C0E4F077
:101AA200EF44C0F580ECC313FAED13FBEA90E6D0E5
:0A1AB200F0AF03EFA3F0E4F5BB2250
:101ABC005358FCEF6003435802AD587F011218A62F
:101ACC00E5584401FDF5587F011218A6E55854FE5F
:081ADC00FDF5587F010218A678
:101AE4008F307DA07C007F2C120003E530FD7C004C
:101AF4007F241200037D037C007F221200037DEF0C
:071B04007C007F2E020003AC
:101B0B00E5BB30E7FB90E6C07401F0EF44C0F58015
:101B1B00ECC313FAED13FBEA90E6D0F0AF03EFA39F
:051B2B00F075BB07226C
:101B3000E5BB30E7FB90E6C07410F0EF44C0F580E1
:101B400090E6F1E0FFE5BB30E7FB90E6F2E0FF75E1
:031B500080FE22F2
:101B53007F2A121B30EF753B00F53A7F28121B30AA
:0E1B6300EF253BF53BE4353AF53AFEAF3B2269
:101B7100121912E51F24FA600E146006240770F38F
:101B8100D322E4F51FD322E4F51FD322121979E5FC
:101B91001F24FA600E146006240770F3D322E4F5C3
:081BA1001FD322E4F51FD3223B
:101BA900E58E54F84405F58E90E6047402F090E64B
:0B1BB900917480F0F0F0F0538EF822E1
:101BC4007DA07C007F2C1200037FF47E0112170E8F
:091BD400D2053005031218382275
:101BDD0000000000000000000000000003000000F5
:081BED001200000000000000DE
:101BF5007F007E70308909EF1F70011EEF4E70F473
:071C05007F2E121B30C322E9
:101C0C007F01121946EF7E0030E4047F0180027FD1
:101C1C0000227F011219468F58EF4408FDF5587FBA
:041C2C00010218A6F3
:101C3000121CE4EF20E7F9121CE4EF30E002D3229B
:021C4000C322BD
:101C42007400F58690FDA57C05A3E582458370F9B5
:011C5200226F
:091C5300014E00014D000153187F
:051C5C00C10601450076
:011C61000082
:101C6200E55854F7FDF5587F010218A6E5584404DB
:101C7200FDF5587F010218A6E55854FBFDF5587F83
:041C8200010218A69D
:0C1C860090E6C6E4F090E6F574FFF02252
:0B1C9200EF2401FFE43E8F82F5832267
:091C9D00E54B12119F04F0D32263
:091CA600E54C12119F04F0D32259
:091CAF00D2025391EF75A1083235
:081CB80090E6BAE0F54BD322DF
:081CC00090E6BAE0F54CD322D6
:081CC800E4F51FD2E9D2AF22BE
:071CD0007400C0E0C0E03227
:0D1CD7007DC0E4FF0218A6E4FDFF0218A680
:061CE4007F2E121B3022CE
:00000001FF
